:08000006544D2D424F4F5400F0
:0A000006322E302E424554413200E4
:020000041A02DE
:10000000FC9F0020E1FF031A3102021A3902021A92
:100010005102021A5902021A6102021A000000007B
:100020000000000000000000EFBEADDE6902021A11
:100030007102021A000000007902021A3DF9031A47
:100040008902021A8902021A75F6031A00000000DA
:100050008902021A8902021A153D031A8902021A3C
:10006000597D031A2115031A8902021AA594031A4D
:10007000C5B8031ADDAF031AAD8F031A99AD031A81
:100080008902021A8902021A8902021A8902021AD4
:100090008902021A8902021A8902021A8902021AC4
:1000A00081C5031A09C6031A71C6031AF1C6031AD9
:1000B0008902021A8902021A8902021A8902021AA4
:1000C0008902021A8902021A8902021A8902021A94
:1000D0008902021A8902021A8902021A8902021A84
:1000E0008902021A8902021A8902021A8902021A74
:1000F000000000008902021A8902021A8902021A0B
:10010000000000008902021A8902021A8902021AFA
:100110008902021A88CA051A000000105C04000057
:1001200088BE051A00000810000C000088CA051AD5
:10013000000000200000000088CA051A00200020EE
:100140000000000088CA051A00800020000000009E
:1001500088CA051A00A000200000000088CA051AFD
:1001600000C000200000000088CA051A00F8002026
:10017000000000006004001070660000000C081011
:100180001C8C000000000020000000000020002067
:1001900008400000008000200020000000A0002097
:1001A0000020000000C000200000000000F8002037
:1001B000B400000080B489B000AFF860B9607A6024
:1001C000BB68FB61FB68BB6100237B610AE0FB69E4
:1001D0001A1DFA61BA69111DB96112681A607B694A
:1001E00004337B617A697B689A42F0D32437BD4639
:1001F0005DF8047B704700BF80B485B000AF7860C5
:1002000039607B68FB600023BB6007E0FB681A1D58
:10021000FA6000221A60BB680433BB60BA683B68AE
:100220009A42F3D31437BD465DF8047B704700BF94
:1002300080B400AFFEE700BF04207146084203D03F
:10024000EFF309801FF0C2BEEFF308801FF0BEBEBF
:1002500080B400AFFEE700BF80B400AFFEE700BF90
:1002600080B400AFFEE700BF80B400AFFEE700BF80
:1002700080B400AFFEE700BF80B400AFFEE700BF70
:1002800080B400AFFEE700BF80B400AFFEE700BF60
:10029000FFFFFFFFFFFFFFFFFFFFFFFFFFFFFFFF6E
:1002A000FFFFFFFFFFFFFFFFFFFFFFFFFFFFFFFF5E
:1002B000FFFFFFFFFFFFFFFFFFFFFFFFFFFFFFFF4E
:1002C000FFFFFFFFFFFFFFFFFFFFFFFFFFFFFFFF3E
:1002D000FFFFFFFFFFFFFFFFFFFFFFFFFFFFFFFF2E
:1002E000FFFFFFFFFFFFFFFFFFFFFFFFFFFFFFFF1E
:1002F000FFFFFFFFFFFFFFFFFFFFFFFFFFFFFFFF0E
:1003000080B483B000AF0346FB710B46BB7113464C
:10031000BB800648F979BB79BA8849010B4440F89B
:1003200023200C37BD465DF8047B70470060084011
:1003300090B583B000AF0446084611461A462346DE
:10034000FB710346BB710B46BB801346FB70FB7809
:100350009AB2BB8813439BB2F979BA790846114621
:100360001A46FFF7CDFF0C37BD4690BD80B485B06F
:1003700000AFF860B96011461A460B46FB71134690
:10038000BB71FB79B879FA68B96849010B44134429
:1003900002461A701437BD465DF8047B704700BFF3
:1003A00080B485B000AFF8600B467A60FB72FA7AD1
:1003B000FB6802F50262796843F822101437BD46E3
:1003C0005DF8047B704700BF80B485B000AFF86073
:1003D0000B467A60FB72FA7AFB6802F5066279686E
:1003E00043F822101437BD465DF8047B704700BF08
:1003F00080B582B002AF01230093054805494FF450
:100400008072402301F0A4FC00F066F9BD4680BD77
:100410007014001000A0002080B584B000AF786098
:1004200000F004FA0023BB811BE00023FB8112E0F3
:10043000FB895B009AB2BB89786811461A4601F0C5
:100440000BFC03467B817B89DBB2184600F08AF9FE
:10045000FB890133FB81FB897F2BE9D9BB89013300
:10046000BB81BB893F2BE0D91037BD4680BD00BFA3
:1004700080B582B000AF7860054A7B685360044B5A
:10048000AA221A701BF032FC0837BD4680BD00BF9F
:1004900000F8002080B582B000AF00F0C7F900235B
:1004A000BB800EE00023FB8005E0002000F05AF93D
:1004B000FB880133FB80FB887F2BF6D9BB88013397
:1004C000BB80BB883F2BEDD90837BD4680BD00BF40
:1004D00080B500AF0E200B21F0220423FFF728FF88
:1004E000354807210B22012321F0DEFD0E200921D2
:1004F000F0220423FFF71CFF2F48072109220123C4
:1005000021F0D2FD0E200A21F0220423FFF710FF74
:10051000294807210A22012321F0C6FD0E200821C7
:10052000F0220423FFF704FF2348072108220123B8
:1005300021F0BAFD0E200D21F0220423FFF7F8FE72
:100540001D4807210D22012321F0AEFD00F036F8F1
:10055000194807210D220123FFF708FF164807213C
:1005600008220023FFF702FF134807210922002376
:10057000FFF7FCFE104807210A220023FFF7F6FED2
:100580000D4807210B220123FFF7F0FE00F07CF855
:10059000094807210B220023FFF7E8FE00F074F85A
:1005A000054807210B220123FFF7E0FE00F06CF85D
:1005B00000F09CFA80BD00BF00400F4080B500AF46
:1005C0000E200021F0220423FFF7B2FE2D48072160
:1005D0000022012321F068FD0E200121F0220423D6
:1005E000FFF7A6FE274807210122012321F05CFD29
:1005F0000E200221F0220423FFF79AFE2148072152
:100600000222012321F050FD0E200321F0220423B9
:10061000FFF78EFE1B4807210322012321F044FD32
:100620000E200421F0220423FFF782FE1548072143
:100630000422012321F038FD0E200521F02204239D
:10064000FFF776FE0F4807210522012321F02CFD3C
:100650000E200621F0220423FFF76AFE0948072135
:100660000622012321F020FD0E200721F022042381
:10067000FFF75EFE034807210722012321F014FD46
:1006800080BD00BF00400F4080B483B000AF0023A6
:100690007B6002E07B6801337B607B68002BF9D0D4
:1006A0000C37BD465DF8047B704700BF80B582B053
:1006B00000AF0346FB71074807216FF0FF02FFF709
:1006C0006FFEFB79034807211A46FFF77DFE0837C6
:1006D000BD4680BD00400F4080B500AFFFF7F8FE7B
:1006E00080BD00BF80B582B000AF0346FB711C48DF
:1006F00007210A220023FFF739FEFFF7C5FFFB7928
:100700001846FFF7D3FFFFF7BFFF154807210D225B
:100710000023FFF72BFEFFF7B7FF1148072109223F
:100720000023FFF723FEFFF7AFFF0D480721082244
:100730000123FFF71BFEFFF7A7FF09480721082247
:100740000023FFF713FEFFF79FFF054807210D2247
:100750000123FFF70BFEFFF797FF0837BD4680BD6B
:1007600000400F4080B582B000AF0346FB711848CF
:1007700007210A220123FFF7F9FDFB791846FFF74D
:1007800095FF1348072109220023FFF7EFFD1048CA
:1007900007210D220023FFF7E9FDFFF775FF0C4845
:1007A000072108220123FFF7E1FDFFF76DFF08484D
:1007B000072108220023FFF7D9FDFFF765FF044852
:1007C00007210D220123FFF7D1FD0837BD4680BD6B
:1007D00000400F4080B582B000AF03460A46FB716F
:1007E0001346BB711520FFF77DFFFB791846FFF715
:1007F000B9FFBB791846FFF7B5FF0837BD4680BD86
:1008000080B582B000AF03460A46FB711346BB7148
:100810007520FFF767FFFB791846FFF7A3FFBB7949
:100820001846FFF79FFF0837BD4680BD80B500AF73
:100830005C20FFF757FF80BD80B582B000AF034654
:10084000FB71A020FFF74EFFFB791846FFF78AFFE8
:100850001120FFF787FF0837BD4680BD80B582B005
:1008600000AF0346FB71A120FFF73CFFFB79184660
:10087000FFF778FF0837BD4680BD00BF80B582B066
:1008800000AF0346FB71A220FFF72CFFFB7918464F
:10089000FFF768FF0837BD4680BD00BF80B582B056
:1008A00000AF0346FB71FB7963F05B03DBB21846D4
:1008B000FFF718FF0837BD4680BD00BF80B582B086
:1008C00000AF0346FB710B46BB7113467B71FB798E
:1008D00063F05703DBB21846FFF704FFFB79002BE8
:1008E00007D1BB791846FFF73DFF7B791846FFF724
:1008F00039FF0837BD4680BD80B582B000AF0346E2
:10090000FB71AB20FFF7EEFEFB791846FFF72AFFDD
:100910000837BD4680BD00BF80B582B000AF03463A
:10092000FB71FB7963F05103DBB21846FFF7DAFE87
:100930000837BD4680BD00BF80B582B000AF03461A
:10094000FB71B120FFF7CEFEFB791846FFF70AFFD7
:100950000837BD4680BD00BF80B582B000AF0346FA
:10096000FB71B320FFF7BEFEFB791846FFF7FAFED6
:100970000837BD4680BD00BF80B582B000AF0346DA
:100980000A46FB711346BB71B420FFF7ABFEFB793F
:1009900063F05F03DBB21846FFF7E4FEBB7943F078
:1009A0000503DBB21846FFF7DDFE0837BD4680BD04
:1009B00080B582B000AF0346FB71B520FFF792FE11
:1009C000FB791846FFF7CEFE0837BD4680BD00BF55
:1009D00080B582B000AF0346FB71B620FFF782FE00
:1009E000FB791846FFF7BEFE0837BD4680BD00BF45
:1009F00080B582B000AF0346FB71BB20FFF772FEEB
:100A0000FB791846FFF7AEFE0837BD4680BD00BF34
:100A100080B582B000AF0346FB71BE20FFF762FED7
:100A2000FB791846FFF79EFE0837BD4680BD00BF24
:100A300080B582B000AF0346FB71C120FFF752FEC4
:100A4000FB791846FFF78EFE0837BD4680BD00BF14
:100A500080B582B000AF0346FB71C720FFF742FEAE
:100A6000FB791846FFF77EFE0837BD4680BD00BF04
:100A700080B582B000AF0346FB71CA20FFF732FE9B
:100A8000FB791846FFF76EFE0837BD4680BD00BFF4
:100A900080B582B000AF0346FB71D120FFF722FE84
:100AA000FB7963F07D03DBB21846FFF75BFE202085
:100AB000FFF758FE0837BD4680BD00BF80B582B045
:100AC00000AF0346FB71FD20FFF70CFEFB7943F0FE
:100AD0001203DBB21846FFF745FE0837BD4680BD5E
:100AE00080B500AFB920FFF7FDFD80BD80B500AF38
:100AF0001220FFF7E3FF0020FFF70EFF1C205B2111
:100B0000FFF768FE00203F21FFF77AFE9120FFF7F4
:100B100023FF3F20FFF7ACFF0020FFF7AFFE0020D0
:100B2000FFF79CFE1420FFF787FE0020FFF740FF31
:100B30000120FFF7E1FEA020FD21FFF71DFF9F2010
:100B4000FFF776FF0F20FFF783FFFFF7C9FFE220D3
:100B5000FFF7F2FE2020FFF79BFF1F20FFF748FF63
:100B60000820FFF735FF0720FFF752FF0220FFF7AD
:100B700095FE012000210022FFF7A0FEFFF78AFC6E
:100B80000120FFF7C9FE80BD80B487B000AFF860D8
:100B90007B600B467B8113463B81B7F90A30FA68CC
:100BA0001289934280F2C080B7F90830FA685289FE
:100BB000934280F2B980B7F90A30002BC0F2B480BA
:100BC000B7F90830002BC0F2AF80FB681B78012B0F
:100BD00040D0022B00F09580002B00D0A4E0FB68F1
:100BE0001B890733DB10FB823B89FA8A12FB03F374
:100BF0009AB2B7F90A30DB109BB29BB21344BB82A6
:100C00007B8903F00703012202FA03F3FB747B687C
:100C1000002B0DD0FB685A68BB8A1344FA685168F0
:100C2000BA8A0A441178FA7C0A43D2B21A707BE07D
:100C3000FB685A68BB8A1344FA685168BA8A0A4446
:100C40001278D1B2FA7CD243D2B20A40D2B2D2B236
:100C50001A7069E0FB681B8901335B10FB823B89DA
:100C6000FA8A12FB03F39AB2B7F90A305B109BB20F
:100C70009BB21344BB827B8903F00103002B20D07D
:100C8000FB685A68BB8A1344FA685168BA8A0A44F6
:100C9000127822F00F02D2B21A70FB685A68BB8A2F
:100CA0001344FA685168BA8A0A441278D1B27A6851
:100CB000D2B202F00F02D2B20A43D2B2D2B21A704A
:100CC00032E0FB685A68BB8A1344FA685168BA8AF2
:100CD0000A44127802F00F02D2B21A70FB685A6806
:100CE000BB8A1344FA685168BA8A0A441278D1B2AE
:100CF0007A68D2B21201D2B20A43D2B2D2B21A7018
:100D000012E0FB681B89FB823B89FA8A12FB03F322
:100D10009AB27B891344BB82FB685A68BB8A13442E
:100D20007A68D2B21A7000BF1C37BD465DF8047BEA
:100D3000704700BF80B487B000AF78600B467B80FF
:100D400013463B8000237B8200237B61B7F902308E
:100D50007A68128993427BDAB7F900307A6852894F
:100D6000934275DAB7F90230002B71DBB7F9003026
:100D7000002B6DDB7B681B78012B2DD0022B55D00F
:100D8000002B00D064E07B681B890733DB103B82BB
:100D90003B883A8A12FB03F39AB2B7F90230DB10B0
:100DA0009BB29BB213447B827B8803F00703012232
:100DB00002FA03F3FB737B685A687B8A13441A7840
:100DC000FB7B1340DBB2002B03D04FF0FF337B6182
:100DD0003EE000237B613BE07B681B8901335B10B5
:100DE0003B823B883A8A12FB03F39AB2B7F902308E
:100DF0005B109BB29BB213447B827B8803F00103A0
:100E0000002B08D07B685A687B8A13441B7803F058
:100E10000F037B611CE07B685A687B8A13441B7854
:100E20001B09DBB203F00F037B6111E07B681B89B8
:100E30003B823B883A8A12FB03F39AB27B881344C5
:100E40007B827B685A687B8A13441B787B6100BF76
:100E50007B6918461C37BD465DF8047B704700BFB0
:100E600080B586B000AFF860084611461A460346C2
:100E70007B810B463B811346FB80B7F90630FA684D
:100E80005289934249DAB7F90630002B45DBB7F9AE
:100E90000A20B7F908309A4204DD3B89FB827B893E
:100EA000BB8203E07B89FB823B89BB82B7F91630AA
:100EB000002B01DA0023FB82B7F91430FA6812899B
:100EC000934204DDFB681B89013B9BB2BB82B7F9EF
:100ED0001620B7F914309A420AD1B7F91620B7F99B
:100EE0000630F86811461A463B6AFFF74DFE14E0DB
:100EF000FB8A7B820CE07B8A1AB2B7F90630F8686D
:100F000011461A463B6AFFF73FFE7B8A01337B821C
:100F10007A8AB7F914309A42EDDD1837BD4680BDA4
:100F200080B586B000AFF860084611461A46034601
:100F30007B810B463B811346FB80B7F90630FA688C
:100F4000128993423BDAB7F90630002B37DBB7F949
:100F50000A20B7F908309A4204DD3B89FB827B897D
:100F6000BB8203E07B89FB823B89BB82B7F91630E9
:100F7000002B01DA0023FB82B7F91430FA6852899A
:100F8000934204DDFB685B89013B9BB2BB82FB8A19
:100F90007B820EE0B7F90620B7F91230F8681146E7
:100FA0001A463B6AFFF7F0FD7B8A9BB201339BB286
:100FB0007B82B7F91220B7F914309A42EADD18376C
:100FC000BD4680BD80B58AB000AFF86008461146C6
:100FD0001A4603467B810B463B811346FB80002368
:100FE000FB74B7F90620B7F90A309A4208DD7B890D
:100FF000FB84FB88BB843B897B843B8E3B8407E07E
:10100000FB88FB847B89BB843B8E7B843B893B8450
:10101000B7F92420B7F92030F86811461A467B6BDF
:10102000FFF7B2FDB7F92020B7F922309A4207DB6B
:101030003A8C7B8CD31A9BB2FB830023FB7406E0B3
:101040007A8C3B8CD31A9BB2FB830123FB74BA8C42
:10105000FB8CD31A9BB23B82B7F91E20B7F9103034
:101060009A4246DC7B8C3B83FB8CFB82B7F91030C9
:101070005B10BB830023BB8234E0B7F91620B7F9BD
:101080001830F86811461A467B6BFFF77DFDFB8A26
:101090009BB201339BB2FB82BA8BFB8B13449BB296
:1010A000BB83B7F91C20B7F910309A4215DBBA8B15
:1010B0003B8AD31A9BB2BB83B7F92020B7F9223001
:1010C0009A4205DD3B8B9BB201339BB23B8304E02C
:1010D0003B8B9BB2013B9BB23B83BB8A9BB20133F0
:1010E0009BB2BB82B7F91420B7F910309A42C4DB27
:1010F0004EE07B8C3B83FB8CFB82B7F91E305B1090
:101100007B830023BB823DE0B7F91620B7F9183086
:10111000F86811461A467B6BFFF736FDFB7C002B07
:1011200005D03B8B9BB2013B9BB23B8304E03B8BE6
:101130009BB201339BB23B837A8B3B8A13449BB2B5
:101140007B83B7F91A20B7F91E309A4215DB7A8BE8
:10115000FB8BD31A9BB27B83B7F92420B7F92630D7
:101160009A4205DDFB8A9BB201339BB2FB8204E00D
:10117000FB8A9BB2013B9BB2FB82BB8A9BB20133D1
:101180009BB2BB82B7F91420B7F91E309A42BBDB81
:101190002837BD4680BD00BF80B588B000AFF8607D
:1011A000084611461A4603467B810B463B8113468F
:1011B000FB80FB88C3F101039BB2FB830123BB834C
:1011C000FB881A46D203D31A5B009BB27B830023B1
:1011D0003B83FB88FB82B7F90630002B00D1EFE0A0
:1011E0003A89FB8813449BB29BB2B7F90A201BB221
:1011F000F86811461A46BB6AFFF7C6FC3A89FB88B5
:10120000D31A9BB29BB2B7F90A201BB2F8681146F9
:101210001A46BB6AFFF7B8FC7A89FB8813449BB275
:101220009BB21AB2B7F90830F86811461A46BB6A81
:10123000FFF7AAFC7A89FB88D31A9BB29BB21AB239
:10124000B7F90830F86811461A46BB6AFFF79CFCEC
:10125000AFE0B7F91E30002B0DDBFB8A9BB2013BE0
:101260009BB2FB827B8B02339BB27B83FA8B7B8BA3
:1012700013449BB2FB833B8B9BB201339BB23B83FA
:10128000BB8B02339BB2BB83FA8BBB8B13449BB2E9
:10129000FB837A893B8B13449BB299B23A89FB8AD0
:1012A00013449BB29BB20AB21BB2F86811461A46AD
:1012B000BB6AFFF769FC7A893B8BD31A9BB299B260
:1012C0003A89FB8A13449BB29BB20AB21BB2F868FC
:1012D00011461A46BB6AFFF757FC7A893B8B1344C9
:1012E0009BB299B23A89FB8AD31A9BB29BB20AB2DB
:1012F0001BB2F86811461A46BB6AFFF745FC7A89AB
:101300003B8BD31A9BB299B23A89FB8AD31A9BB210
:101310009BB20AB21BB2F86811461A46BB6AFFF7C5
:1013200033FC7A89FB8A13449BB299B23A893B8B8E
:1013300013449BB29BB20AB21BB2F86811461A461C
:10134000BB6AFFF721FC7A89FB8AD31A9BB299B258
:101350003A893B8B13449BB29BB20AB21BB2F8682A
:1013600011461A46BB6AFFF70FFC7A89FB8A1344C1
:101370009BB299B23A893B8BD31A9BB29BB20AB209
:101380001BB2F86811461A46BB6AFFF7FDFB7A8963
:10139000FB8AD31A9BB299B23A893B8BD31A9BB280
:1013A0009BB20AB21BB2F86811461A46BB6AFFF735
:1013B000EBFBB7F91820B7F916309A42FFF649AFA0
:1013C0002037BD4680BD00BF90B58BB002AFF8603E
:1013D000084611461A4603467B810B463B8113465D
:1013E000FB80FB88C3F101039BB2FB830123BB831A
:1013F000FB881A46D203D31A5B009BB27B8300237F
:101400003B83FB88FB82B7F90630002B00D1AFE0AD
:101410007A89FB88D31A9BB299B27A89FB881344E4
:101420009BB29BB209B21AB2B7F908403B6B00936A
:10143000F8682346FFF714FD3A89FB88D31A9BB25C
:1014400099B23A89FB8813449BB29BB209B21AB293
:10145000B7F90A403B6B0093F8682346FFF760FD3D
:101460007FE0B7F91E30002B0DDBFB8A9BB2013BFE
:101470009BB2FB827B8B02339BB27B83FA8B7B8B91
:1014800013449BB2FB833B8B9BB201339BB23B83E8
:10149000BB8B02339BB2BB83FA8BBB8B13449BB2D7
:1014A000FB837A893B8BD31A9BB299B27A893B8BA7
:1014B00013449BB298B23A89FB8A13449BB29BB205
:1014C00009B202B21CB23B6B0093F8682346FFF7E7
:1014D000C7FC7A893B8BD31A9BB299B27A893B8B32
:1014E00013449BB298B23A89FB8AD31A9BB29BB23F
:1014F00009B202B21CB23B6B0093F8682346FFF7B7
:10150000AFFC7A89FB8AD31A9BB299B27A89FB8A9B
:1015100013449BB298B23A893B8B13449BB29BB263
:1015200009B202B21CB23B6B0093F8682346FFF786
:1015300097FC7A89FB8AD31A9BB299B27A89FB8A83
:1015400013449BB298B23A893B8BD31A9BB29BB29D
:1015500009B202B21CB23B6B0093F8682346FFF756
:101560007FFCB7F91820B7F916309A42FFF679AF29
:101570002437BD4690BD00BF80B584B000AFF86091
:10158000084611461A4603467B810B463B811346AB
:10159000FB71FB791F2B01D87B8922E0FB79203B73
:1015A000FB71FB79002B07D1BB691B681A897B890A
:1015B00013449BB29BB214E0FA79BB6953F8223012
:1015C000B7F90A10B7F90820F86800F06DF9FA7950
:1015D000BB6953F822301A897B8913449BB27B8103
:1015E0007B891BB218461037BD4680BD90B587B0C9
:1015F00002AFF860084611461A4603467B810B4647
:101600003B811346FB71FB791F2B01D87B8925E0B9
:10161000FB79203BFB71FB79002B07D13B6A1B68F0
:101620001A897B8913449BB29BB217E0FA793B6A13
:1016300053F82240B7F90A10B7F908207B6A0093E3
:10164000F868234600F0BCF9FA793B6A53F8223077
:101650001A897B8913449BB27B817B891BB2184614
:101660001437BD4690BD00BF80B485B000AF786030
:1016700039600023FB730023BB81FB7B7A68134432
:101680001B78BB73FB7B0133FB731FE0BB7B1F2B02
:1016900019D9BB7B5BB2002B15DBBB7BA3F120020E
:1016A0003B6853F822301A893B6893F88D319BB21E
:1016B00013449AB2BB8913449BB2BB81FB7B7A680B
:1016C00013441B78BB73FB7B0133FB73BB7B002B89
:1016D00002D0FB7B3F2BD9D9BA893B6893F88D3177
:1016E0009BB2D31A9BB29BB21BB218461437BD46AD
:1016F0005DF8047B704700BF90B589B002AFF86019
:101700007A603B600B467B810023FB82FB681B8970
:101710009BB21CB278683968FFF7A6FF0346E31A4C
:101720005B10FB82B7F91620B7F90A403B680093BB
:10173000F8687968234600F003F81C37BD4690BD71
:1017400090B589B002AFF860B96011461A460B46F1
:10175000FB801346BB800023FB75FB7DBA681344F6
:101760001B78BB751CE0B7F90610B7F90420BC7DE7
:10177000BB6A0093F8682346FFF7FEFE0346FB8032
:10178000BB6A93F88D319AB2FB8813449BB2FB80FD
:10179000FB7D0133FB75FB7DBA6813441B78BB7579
:1017A000BB7D002B02D0FB7D3F2BDCD9FB880133B6
:1017B0009BB29BB21BB218461C37BD4690BD00BF02
:1017C00090B589B002AFF860B96011461A460B4671
:1017D000FB801346BB800023FB75FB7DBA68134476
:1017E0001B78BB751EE0B7F90610B7F90420BC7D65
:1017F000BB6A0093FB6A0193F8682346FFF7F6FE85
:101800000346FB80BB6A93F88D319AB2FB88134480
:101810009BB2FB80FB7D0133FB75FB7DBA681344F3
:101820001B78BB75BB7D002B02D0FB7D3F2BDAD92B
:10183000FB8801339BB29BB21BB218461C37BD46D6
:1018400090BD00BF90B589B002AFF8607B600B46D9
:101850007B8113463B8107F12C033B6111484021FA
:10186000BA6A3B6922F004FB0E487968FFF7FCFE78
:1018700003469AB27B8913449BB201339BB2FB822D
:10188000B7F90A20B7F908407B680093F868054962
:101890002346FFF755FFFB8A1BB218461C37BD468F
:1018A00090BD00BF60040010F0B587B000AFF860D5
:1018B0007B600B467B8113463B810023BB8229E082
:1018C0000023FB821EE07A89FB8A13449BB29DB2FF
:1018D0003A89BB8A13449BB29CB2FA8ABB8A12B281
:1018E0001BB2786811461A46FFF724FA06462AB258
:1018F00023B2F86811461A463346FFF745F9FB8ACA
:101900000133FB827B681B89FA8A9A42DBD3BB8A4C
:101910000133BB827B685B89BA8A9A42D0D31C3779
:10192000BD46F0BDF0B587B000AFF8607B600B46F8
:101930007B8113463B817B681B8901335B107B8273
:101940007B685B8901335B103B820023BB822FE005
:101950000023FB8224E07A89FB8A13449AB27B8AB3
:10196000D31A9BB29DB23A89BB8A13449AB23B8A7E
:10197000D31A9BB29CB2FA8ABB8A12B21BB27868A5
:1019800011461A46FFF7D6F906462AB223B2F8687E
:1019900011461A463346FFF7F7F8FB8A0133FB82FC
:1019A0007B681B89FA8A9A42D5D3BB8A0133BB82F2
:1019B0007B685B89BA8A9A42CAD31C37BD46F0BDA0
:1019C000B0B586B000AFF8607B600B467B811346F4
:1019D0003B81D7ED0A7AF5EEC07AF1EE10FA02D526
:1019E0004FF00003BB62D7ED0A7AB7EE007AF4EE4F
:1019F000C77AF1EE10FA02DD4FF07E53BB6200238E
:101A0000BB8233E00023FB8228E07A89FB8A1344FF
:101A10009BB29DB23A89BB8A13449BB29CB2FA8AAC
:101A2000BB8A12B21BB2786811461A46FFF782F9D8
:101A300007EE900AB8EE677AD7ED0A7A67EE277A52
:101A4000FCEEE77A2AB223B2F86811461A4617EE7E
:101A5000903AFFF799F8FB8A0133FB827B681B8978
:101A6000FA8A9A42D1D3BB8A0133BB827B685B89F5
:101A7000BA8A9A42C6D31837BD46B0BDF0B58DB00C
:101A800000AFF8607B600B467B8113463B81D7ED4E
:101A9000127AF5EEC07AF1EE10FA00D8D9E07B6840
:101AA0001B8907EE903AB8EE677AD7ED127A67EEA7
:101AB000277AB6EE007A77EE877AFCEEE77AC7ED02
:101AC000007A3B887B847B685B8907EE903AB8EEAE
:101AD000677AD7ED127A67EE277AB6EE007A77EE5C
:101AE000877AFCEEE77AC7ED007A3B883B847B6817
:101AF0001B8907EE903AB8EE677AD7ED127A67EE57
:101B0000277AB0EE007AC7EE877AB6EE007A77EEE3
:101B1000877AFCEEE77AC7ED007A3B889BB2FB83BD
:101B20007B685B8907EE903AB8EE677AD7ED127A58
:101B300067EE277AB0EE007AC7EE877AB6EE007AC3
:101B400077EE877AFCEEE77AC7ED007A3B889BB2A6
:101B5000BB837B681B8907EE903AB8EE677A7B8C73
:101B600007EE903AF8EE677AC7EE277AC7ED067A65
:101B70007B685B8907EE903AB8EE677A3B8C07EE9C
:101B8000903AF8EE677AC7EE277AC7ED057A4FF0FC
:101B900000037B620023BB8557E04FF00003BB626C
:101BA0000023FB8542E07A89FB8D13449AB2FB8BBC
:101BB000D31A9BB29DB23A89BB8D13449AB2BB8BA8
:101BC000D31A9BB29CB2D7ED0A7AB6EE007A77EEC2
:101BD000877AFDEEE77AC7ED007A3B889AB2D7EDB7
:101BE000097AB6EE007A77EE877AFDEEE77AC7EDEE
:101BF000007A3B889BB212B21BB2786811461A4633
:101C0000FFF798F806462AB223B2F86811461A463A
:101C10003346FEF7B9FF97ED0A7AD7ED067A77EEED
:101C2000277AC7ED0A7AFB8D0133FB85FA8D7B8C11
:101C30009A42B8D397ED097AD7ED057A77EE277AED
:101C4000C7ED097ABB8D0133BB85BA8D3B8C9A42B7
:101C5000A3D33437BD46F0BD80B485B000AF786003
:101C60000B467B8013463B807B681B78002B34D06F
:101C7000012B65D17B681B897A889A4203D97B68DE
:101C80001B89013B7B807B685B893A889A4203D938
:101C90007B685B8901337B807B8823F001037B8039
:101CA0007B681B895B089BB2FB607B681B8903F028
:101CB0000103002B02D0FB680133FB603B88FA680C
:101CC00002FB03F37A88520892B21344BB607B682C
:101CD0005A68BB6813441B7833E07B681B897A8899
:101CE0009A4203D97B681B89013B7B807B685B89B7
:101CF0003A889A4203D97B685B8901337B807B8871
:101D000023F007037B807B681B89DB089BB2FB60A9
:101D10007B681B8903F00703002B02D0FB680133AB
:101D2000FB603B88FA6802FB03F37A88D20892B220
:101D30001344BB607B685A68BB6813441B7800E09F
:101D4000002318461437BD465DF8047B704700BF7A
:101D500080B485B000AFF860B96011461A460B46F2
:101D6000FB801346BB80FB68BA685A60FA88FB6840
:101D70001A81BA88FB685A81FB683A7E1A70143758
:101D8000BD465DF8047B704780B485B000AF7860D5
:101D90007B681B78012B1FD0022B38D0002B00D082
:101DA0004DE07B681B890733DB109AB27B685B8947
:101DB00012FB03F3BB810023FB8108E07B685A68B8
:101DC000FB89134400221A70FB890133FB81FA89D5
:101DD000BB899A42F2D332E07B681B8901335B10E6
:101DE0009AB27B685B8912FB03F3BB810023FB8102
:101DF00008E07B685A68FB89134400221A70FB894B
:101E00000133FB81FA89BB899A42F2D317E07B68E0
:101E10001A897B685B8912FB03F3BB810023FB817A
:101E200008E07B685A68FB89134400221A70FB891A
:101E30000133FB81FA89BB899A42F2D300BF143780
:101E4000BD465DF8047B704780B483B000AF786016
:101E50000B4B1B681F2B0CD8094B1B6809497A6870
:101E600041F82320064B1B680133054A1360012308
:101E700000E0002318460C37BD465DF8047B704730
:101E8000A00400107C15001080B400AF034B0022AA
:101E90001A60BD465DF8047B704700BFA0040010C7
:101EA00080B483B000AF01237B6000233B600CE073
:101EB0000C4A3B6852F823305B78022B02D1002396
:101EC0007B6007E03B6801333B60074B1B683A6867
:101ED0009A42EDD37B6818460C37BD465DF8047B0B
:101EE000704700BF7C150010A004001080B485B0BE
:101EF00000AFF860381D80E806003B60FB68002BEF
:101F000035D0FB6804333A1D92E8030083E80300F0
:101F1000FB683A68DA60FB68BA695A61FB68FA697B
:101F20009A61FB68D3ED067AF5EEC07AF1EE10FA0D
:101F300004D8FB684FF07C529A610DE0FB68D3ED4A
:101F4000067AB7EE007AF4EEC77AF1EE10FA03DB08
:101F5000FB684FF07C529A61FB68F0221A70FB68B4
:101F600002225A70FB6800221A61012300E000235C
:101F700018461437BD465DF8047B704780B582B0C3
:101F800000AF78607B68DB68002B00D188E07B685D
:101F90005B78002B00F084807B68DB687A68D2680D
:101FA00092ED007A7A68D2ED016A7A68D268D2ED51
:101FB000007A76EEE76A7A68D2ED067A66EEA77A5C
:101FC00077EE277AC3ED007A7B68DB687A68D2689F
:101FD00092ED017A7A68D2ED026A7A68D268D2ED1F
:101FE000017A76EEE76A7A68D2ED067A66EEA77A2B
:101FF00077EE277AC3ED017A7B681B695A1C7B68F0
:102000001A617B681A697B685B699A423DD27B687A
:1020100093ED027A7B68DB68D3ED017A77EE677A1D
:1020200017EE900A24F0CEFD02460B4610461946E4
:1020300021F0ECF902460B46104619464FF000021B
:10204000194B24F06BFD0346002B29D07B6893EDE0
:10205000017A7B68DB68D3ED007A77EE677A17EE5A
:10206000900A24F0AFFD02460B461046194621F0B7
:10207000CDF902460B46104619464FF000020A4BB6
:1020800024F04CFD0346002B0AD07B68DA687B689D
:10209000043393E8030082E803007B6800225A704F
:1020A0000837BD4680BD00BF0000E03F80B582B06C
:1020B00000AF78607B689B68002B00D14DE07B68A7
:1020C0005B78002B49D07B689B687A68926892EDB8
:1020D000007A7A68D2ED016A7A689268D2ED007A65
:1020E00076EEE76A7A68D2ED057A66EEA77A77EE41
:1020F000277AC3ED007A7B68DB685A1C7B68DA605C
:102100007B68DA687B681B699A421ED27B6893ED14
:10211000017A7B689B68D3ED007A77EE677A17EED9
:10212000900A24F04FFD02460B461046194621F056
:102130006DF902460B46104619464FF00002084B57
:1021400024F0ECFC0346002B07D07B689B687A6880
:1021500052681A607B6800225A700837BD4680BDFD
:102160000000E03FB0B582B000AF78607B689B684C
:10217000002B00D146E07B685B78002B42D07B6867
:102180009B687A68926892ED007A7A68D2ED057A57
:1021900077EE277AC3ED007A7B68DB685A1C7B6890
:1021A000DA607B68DA687B681B699A4222D27B68B6
:1021B00093ED017A7B689B68D3ED007A77EE677ABE
:1021C00017EE900A24F0FEFC02460B461046194614
:1021D00021F01CF904460D467B685B69184624F023
:1021E000F1FC02460B462046294624F06EFC0346CD
:1021F000002B07D07B689B687A6852681A607B68FE
:1022000000225A700837BD46B0BD00BFB0B582B0DD
:1022100000AF78607B68DB68002B00D1D8E07B687A
:102220005B78002B00F0D4807B681B695A1C7B68AC
:102230001A617B6893ED017A7B68DB68D3ED007AE5
:1022400077EE677A17EE900A24F0BCFC02460B4644
:102250001046194621F0DAF804460D467B689B6962
:10226000184624F0AFFC02460B461046194621F0F2
:10227000CDF802460B462046294624F079FC034659
:10228000002B0CD07B68DB687A68D26892ED007A0C
:102290007A68D2ED067A77EE277AC3ED007A7B680A
:1022A00093ED027A7B68DB68D3ED017A77EE677A8B
:1022B00017EE900A24F086FC02460B46104619469B
:1022C00021F0A4F804460D467B68DB69184624F02B
:1022D00079FC02460B461046194621F097F8024653
:1022E0000B462046294624F043FC0346002B0CD025
:1022F0007B68DB687A68D26892ED017A7A68D2ED01
:10230000077A77EE277AC3ED017A7B681A697B68D2
:102310005B699A4251D27B6893ED017A7B68DB68F6
:10232000D3ED007A77EE677A17EE900A24F04AFC34
:1023300002460B461046194621F068F804460D4641
:102340007B689B69184624F03DFC02460B4610460C
:10235000194621F05BF802460B462046294624F038
:10236000B4FB0346002B33D07B6893ED027A7B6885
:10237000DB68D3ED017A77EE677A17EE900A24F0E6
:1023800021FC02460B461046194621F03FF8044650
:102390000D467B68DB69184624F014FC02460B46A8
:1023A0001046194621F032F802460B4620462946CF
:1023B00024F08BFB0346002B0AD07B68DA687B682D
:1023C000043393E8030082E803007B6800225A701C
:1023D0000837BD46B0BD00BF80B582B000AF002356
:1023E0007B603DE0224A7B6852F82330002B34D0DA
:1023F0001F4A7B6852F823301B78F03B032B2BD805
:1024000001A252F823F000BF1924021A3924021A3B
:102410004924021A2924021A154A7B6852F82330EB
:102420001846FFF7ABFD18E0114A7B6852F82330DD
:102430001846FFF797FE10E00D4A7B6852F82330EC
:102440001846FFF7E3FE08E0094A7B6852F823309C
:102450001846FFF72BFE00E000BF7B6801337B606E
:10246000044B1B687A689A42BCD30837BD4680BDCE
:102470007C150010A004001080B483B000AF786019
:102480000B4B1B683F2B0CD8094B1B6809497A681A
:1024900041F82320064B1B680133054A13600123D2
:1024A00000E0002318460C37BD465DF8047B7047FA
:1024B000A40400107C14001080B400AF034B002271
:1024C0001A60BD465DF8047B704700BFA40400108D
:1024D00080B485B000AFF860381D80E806003B602E
:1024E000FB6800221A70FB6801225A70BB69002B3E
:1024F00002D0FB68BA69DA60FB6804333A1D92E8DF
:10250000030083E803003B68002B02D0FB683A68B5
:102510001A611437BD465DF8047B704790B587B0EB
:1025200002AFF860B960BB68D968BB68D3ED017AC7
:10253000B6EE007A77EE877AFDEEE77AC7ED017A9C
:10254000BB889AB2BB68D3ED027AB6EE007A77EE1A
:10255000877AFDEEE77AC7ED017ABB8898B2BB684F
:102560001B6912B204B20093F8682346FFF7E8F83B
:102570001437BD4690BD00BF80B485B000AFF86091
:10258000381D80E806003B60FB6801221A70FB687A
:1025900001225A70BB69002B02D0FB68BA69DA606D
:1025A000FB6804333A1D92E8030083E80300D7ED8B
:1025B000077AB7EE007AF4EEC77AF1EE10FA02DD90
:1025C0004FF07E53FB61D7ED077AF5EEC07AF1EE5E
:1025D00010FA02D54FF00003FB61FB68FA695A61FB
:1025E0003B68002B02D0FB683A681A611437BD467D
:1025F0005DF8047B704700BFB0B586B002AFF860ED
:10260000B960BB68D968BB68D3ED017AB6EE007AD1
:1026100077EE877AFDEEE77AC7ED017ABB889CB248
:10262000BB68D3ED027AB6EE007A77EE877AFDEEDC
:10263000E77AC7ED017ABB8898B2BB681A69BB68B4
:102640005B6925B204B200920193F8682A462346DA
:10265000FFF7B6F81037BD46B0BD00BF82B080B4FA
:1026600085B000AFF860381D80E80600FB61FB68AC
:1026700002221A70FB6801225A70FB6804333A1D6B
:1026800092E8030083E80300FB680C3307F11C02A7
:1026900092E8030083E80300FB687A6A5A61143702
:1026A000BD465DF8047B02B0704700BFB0B586B090
:1026B00002AFF860B960BB68D3ED017AB6EE007A7C
:1026C00077EE877AFDEEE77AC7ED017ABB8899B29B
:1026D000BB68D3ED027AB6EE007A77EE877AFDEE2C
:1026E000E77AC7ED017ABB889CB2BB68D3ED037A69
:1026F000B6EE007A77EE877AFDEEE77AC7ED017ADB
:10270000BB8898B2BB68D3ED047AB6EE007A77EE58
:10271000877AFDEEE77AC7ED017ABB889AB2BB688B
:102720005B6909B225B204B212B200920193F86853
:102730002A462346FEF746FC1037BD46B0BD00BF13
:1027400080B485B000AFF860381D80E806003B60BB
:10275000FB6803221A70FB6801225A70FB6804337D
:102760003A1D92E8030083E80300FB683A68DA60E8
:102770001437BD465DF8047B704700BF80B584B058
:1027800000AFF860B960BB68D3ED017AB6EE007AAD
:1027900077EE877AFDEEE77AC7ED017ABB8899B2CA
:1027A000BB68D3ED027AB6EE007A77EE877AFDEE5B
:1027B000E77AC7ED017ABB889AB2BB68DB6809B2D9
:1027C00012B2F868FFF7AEF81037BD4680BD00BF03
:1027D00090B587B002AFF860B960BB68D3ED017AFD
:1027E000B6EE007A77EE877AFDEEE77AC7ED017AEA
:1027F000BB8899B2BB68D3ED027AB6EE007A77EE69
:10280000877AFDEEE77AC7ED017ABB889AB2BB689A
:10281000DC68BB681B6909B212B20093F8682346F2
:10282000FFF72CF91437BD4690BD00BF90B587B0B7
:1028300002AFF860B960BB681B7D002B31D1BB686B
:10284000D3ED017AB6EE007A77EE877AFDEEE77A7D
:10285000C7ED017ABB8899B2BB68D3ED027AB6EEB8
:10286000007A77EE877AFDEEE77AC7ED017ABB88CA
:102870009AB2BB68D3ED037AB6EE007A77EE877A28
:10288000FDEEE77AC7ED017ABB8898B2BB681B6999
:1028900009B212B204B20093F8682346FEF77CFC3A
:1028A00030E0BB68D3ED017AB6EE007A77EE877A36
:1028B000FDEEE77AC7ED017ABB8899B2BB68D3ED2C
:1028C000027AB6EE007A77EE877AFDEEE77AC7ED08
:1028D000017ABB889AB2BB68D3ED037AB6EE007A70
:1028E00077EE877AFDEEE77AC7ED017ABB8898B27A
:1028F000BB681B6909B212B204B20093F8682346A0
:10290000FEF762FD1437BD4690BD00BF82B080B4B3
:1029100085B000AFF860381D80E80600FB61FB68F9
:1029200005221A70FB6801225A70FB6804333A1DB5
:1029300092E8030083E80300FB680C3307F11C02F4
:1029400092E8030083E80300FB6897F828201A76D2
:10295000FB687A6A5A611437BD465DF8047B02B0A1
:10296000704700BF90B589B002AFF860B960BB682E
:102970001B7E002B40F0C580BB68D3ED017AB6EE1C
:10298000007A77EE877AFDEEE77AC7ED017ABB88A9
:1029900099B2BB68D3ED037AB6EE007A77EE877A08
:1029A000FDEEE77AC7ED017ABB889AB2BB68D3ED3A
:1029B000027AB6EE007A77EE877AFDEEE77AC7ED17
:1029C000017ABB8898B2BB685B6909B212B204B2E3
:1029D0000093F8682346FEF743FABB68D3ED017A0B
:1029E000B6EE007A77EE877AFDEEE77AC7ED017AE8
:1029F000BB8899B2BB68D3ED037AB6EE007A77EE66
:102A0000877AFDEEE77AC7ED017ABB889AB2BB6898
:102A1000D3ED047AB6EE007A77EE877AFDEEE77AA8
:102A2000C7ED017ABB8898B2BB685B6909B212B284
:102A300004B20093F8682346FEF712FABB68D3EDA0
:102A4000027AB6EE007A77EE877AFDEEE77AC7ED86
:102A5000017ABB8899B2BB68D3ED047AB6EE007AEE
:102A600077EE877AFDEEE77AC7ED017ABB889AB2F6
:102A7000BB68D3ED017AB6EE007A77EE877AFDEE89
:102A8000E77AC7ED017ABB8898B2BB685B6909B287
:102A900012B204B20093F8682346FEF741FABB680D
:102AA000D3ED027AB6EE007A77EE877AFDEEE77A1A
:102AB000C7ED017ABB8899B2BB68D3ED047AB6EE54
:102AC000007A77EE877AFDEEE77AC7ED017ABB8868
:102AD0009AB2BB68D3ED037AB6EE007A77EE877AC6
:102AE000FDEEE77AC7ED017ABB8898B2BB685B69F7
:102AF00009B212B204B20093F8682346FEF710FA46
:102B000086E0BB68D3ED027AB6EE007A77EE877A7C
:102B1000FDEEE77AC7ED017ABB889AB2BB68D3EDC8
:102B2000047AB6EE007A77EE877AFDEEE77AC7EDA3
:102B3000017ABB889BB212B21BB29A421ADDBB6803
:102B4000D3ED027AB6EE007A77EE877AFDEEE77A79
:102B5000C7ED017ABB887B82BB68D3ED047AB6EE01
:102B6000007A77EE877AFDEEE77AC7ED017ABB88C7
:102B7000BB8219E0BB68D3ED047AB6EE007A77EE3B
:102B8000877AFDEEE77AC7ED017ABB887B82BB6866
:102B9000D3ED027AB6EE007A77EE877AFDEEE77A29
:102BA000C7ED017ABB88BB82BB8AFB8229E0BB6888
:102BB000D3ED017AB6EE007A77EE877AFDEEE77A0A
:102BC000C7ED017ABB8899B2BB68D3ED037AB6EE44
:102BD000007A77EE877AFDEEE77AC7ED017ABB8857
:102BE0009AB2BB685B6909B212B2B7F9164000939A
:102BF000F8682346FEF734F9FB8A9BB201339BB297
:102C0000FB82B7F91620B7F9123001339A42CEDBB6
:102C10001C37BD4690BD00BF80B584B000AF786062
:102C20000023FB6067E0384AFB6852F82330002B32
:102C30005ED0354AFB6852F823305B78002B57D0C2
:102C4000314AFB6852F823301B78062B4FD801A27B
:102C500052F823F0712C021A832C021A952C021AB6
:102C6000A72C021AB92C021ACB2C021ADD2C021A3C
:102C7000254AFB6852F8233078681946FFF74EFC66
:102C800036E0214AFB6852F8233078681946FFF78E
:102C9000B3FC2DE01C4AFB6852F8233078681946D3
:102CA000FFF704FD24E0184AFB6852F823307868E7
:102CB0001946FFF763FD1BE0134AFB6852F8233007
:102CC00078681946FFF784FD12E00F4AFB6852F856
:102CD000233078681946FFF745FE09E00A4AFB6889
:102CE00052F8233078681946FFF7A0FD00E000BFD6
:102CF000FB680133FB60054B1B68FA689A4292D36C
:102D00001037BD4680BD00BF7C140010A404001025
:102D100080B5ADF51E7D00AF3B1D18603B461960C8
:102D200044F64253A7F864320E23C7F838322823FA
:102D3000C7F838323B461B681B891A463B461B685E
:102D40005B8903FB02F303F23643C7F866320023C4
:102D5000A7F86A320023A7F86C32002343F4866395
:102D600043F00603A7F86E320023A7F87032282339
:102D7000C7F83C323B461B681B89C7F840323B46CC
:102D80001B685B89C7F844320123A7F8483208233F
:102D9000A7F84A320023C7F84C320023C7F8503254
:102DA00040F6C463C7F8543240F6C463C7F85832DB
:102DB0004FF48073C7F85C324FF48073C7F8603209
:102DC00007F10C023B1D104619680A2213F082FD20
:102DD000034687F8733297F87332002B40F0E28095
:102DE00007F10C0107F5197207F50E730846114635
:102DF0000E2214F009F807F10C0107F50F7207F520
:102E00000E7308461146282213F0FEFF0023C7F870
:102E100038324BE0D7F8383207EE903AF8EE677A5E
:102E20009FED627AC7EE877A9FED617A67EE877AC7
:102E3000FCEEE77A17EE902AD7F8383207EE903A90
:102E4000F8EE677A9FED597AC7EE877A9FED597A47
:102E500067EE877AFCEEE77A17EE903A1B041A4485
:102E6000D7F8383207EE903AF8EE677A9FED4F7A4E
:102E7000C7EE877A9FED507A67EE877AFCEEE77AA5
:102E800017EE903A1B021344C7F8303207F10C01D9
:102E900007F50C7207F50D7308461146042213F06E
:102EA000B3FFD7F838320133C7F83832D7F83832A1
:102EB000FF2BAFD90023C7F8383266E00023C7F8EC
:102EC000343233E0D7F8343299B23B461B685A8922
:102ED000D7F838329BB2D31A9BB2013B9BB29AB25D
:102EE0003B4609B212B21868FDF724FFC7F8740216
:102EF0003B461B681B78002B09D0012B00D007E054
:102F0000D7F874321B01DBB2C7F8743200E000BF9F
:102F1000D7F87432DAB207F10C031046194614F0F0
:102F20002FFCD7F834320133C7F834323B461B68E4
:102F30001B891A46D7F834329A42C3D83B461B68DD
:102F40001B8903F00303002B1AD00023C7F830328B
:102F50000AE007F10C030020194614F011FCD7F821
:102F600030320133C7F830323B461B681B8903F00F
:102F70000303C3F104031A46D7F830329A42E8D863
:102F8000D7F838320133C7F838323B461B685B89C3
:102F90001A46D7F838329A4290D807F10C031846EF
:102FA00014F064F907F51E77BD4680BD00007F432D
:102FB00000007543000030420000534380B400AF6E
:102FC000034B1B681846BD465DF8047B704700BF85
:102FD000EC04001080B400AF034B00221A60BD4621
:102FE0005DF8047B704700BFA804001080B500AFF7
:102FF000FFF7F0FF00F09CF980BD00BF80B584B002
:1030000000AFF860B9607A60FB680C2B04D900232C
:10301000FB606FF0020338E0FFF7DCFF1D4B1A681E
:103020001D4913465B0013449B000B4408331B6887
:10303000002B0DD0174B1A68174913465B00134439
:103040009B000B4408331B686FF004000021984775
:10305000104AFB6813600F4B1A680F4913465B0058
:1030600013449B000B441B68002B0BD0094B1A68C0
:10307000094913465B0013449B000B441B68B86866
:10308000796898471CF0D4FE002318461037BD46D7
:1030900080BD00BFEC040010FC15001080B584B0AA
:1030A00000AFF860B9607A60FB680C2B02D96FF052
:1030B000020349E0264B1B680E2B02D94FF0FF3369
:1030C00042E0244B1A68244913465B0013449B00DA
:1030D0000B4408331B68002B0DD01E4B1A681E4989
:1030E00013465B0013449B000B4408331B686FF0CE
:1030F000030000219847164B1B68164A12681749AF
:1031000041F82320124B1B680133114A1360114A06
:10311000FB6813600F4B1A680F4913465B0013449A
:103120009B000B441B68002B0BD00A4B1A680A4902
:1031300013465B0013449B000B441B68B868796816
:1031400098471CF075FE002318461037BD4680BD19
:10315000A8040010EC040010FC150010AC040010D2
:1031600080B582B000AF78603960404B1B68002B9F
:1031700037D13F4B1A683F4913465B0013449B000D
:103180000B4408331B68002B0DD0394B1A683949A2
:1031900013465B0013449B000B4408331B686FF01D
:1031A000040000219847324B00221A60304B1A6805
:1031B000304913465B0013449B000B441B68002BF3
:1031C0000CD02B4B1A682B4913465B0013449B0011
:1031D0000B441B684FF0FF30002198476FF001034C
:1031E0003FE0234B1A68234913465B0013449B00BE
:1031F0000B4408331B68002B0DD01D4B1A681D496A
:1032000013465B0013449B000B4408331B686FF0AC
:10321000020000219847154B1B68013B134A1360BD
:10322000124B1B68144A52F82330114A1360104B9A
:103230001A68104913465B0013449B000B441B683B
:10324000002B0BD00A4B1A680A4913465B00134443
:103250009B000B441B687868396898471CF0E8FDB0
:10326000002318460837BD4680BD00BFA8040010E3
:10327000EC040010FC150010AC04001080B500AF89
:10328000224B9B68312B3FD9214B1B78002B3BD124
:103290001E4B00229A601F48FEF776FD1E4B1A68EF
:1032A0001E4913465B0013449B000B445B68002BD4
:1032B00009D0194B1A68194913465B0013449B0047
:1032C0000B445B68984706F07DFEFFF785F81148D0
:1032D000FFF7A2FC05F0B0FC114B1B78002B10D0BF
:1032E000104B1B685A1C0F490A600F4810210F4AE7
:1032F00020F08AFD0C480749FFF70AFD084B002221
:103300001A700448FDF7B4F880BD00BF20690010B2
:1033100000F8002070140010EC040010FC150010E0
:10332000D00C0010CC0C0010183F00102890051A8B
:1033300080B400AF3F4B404ADA603E4B3F4A1A61CF
:103340003C4B3F4A5A613B4B3E4A9A61394B3E4A9D
:10335000DA61384B3D4A1A62364B3D4A5A62354B68
:103360003C4A9A62334B3C4ADA62324B3B4A1A631C
:10337000304B3B4A5A632F4B3A4A9A632D4B3A4A99
:10338000DA632C4B394A1A642A4B394A5A64294B5E
:10339000384A9A64274B384ADA64264B374A1A650A
:1033A000244B374A5A65234B364A9A65214B364A95
:1033B000DA65204B354A1A661E4B354A5A661D4B54
:1033C000344A9A661B4B344ADA661A4B334A1A67F8
:1033D000184B334A5A67174B2C4A1A60154B2C4A24
:1033E0005A60144B2B4A9A60124B2E4A9A67114B23
:1033F0002D4ADA670F4B2D4AC3F880200D4B2C4A1B
:10340000C3F884200B4B2B4AC3F88820094B2A4A67
:10341000C3F88C20074B294AC3F89020054B284A53
:10342000C3F89420034B274AC3F89820BD465DF8A3
:10343000047B7047FC150010ED34021A2935021A7E
:103440000D36021A416C021A3971021AC573021A3A
:103450004536021A2D39021A253B021AF176021A54
:10346000697A021A8D7E021AD961021AE963021A78
:103470009965021AE57E021AC181021AF581021AC3
:103480004946021A054A021A8D50021A893B021A4D
:10349000C53F021AF944021A3D5C021A9D5F021AE6
:1034A000C960021AF165021A5D67021A1D69021AE3
:1034B000AD83021A9987021A9D8B021A2155021AAE
:1034C000FD57021AE55B021A80B483B000AF786042
:1034D0000B46FB70FA787B6802F5046253F82230E1
:1034E00018460C37BD465DF8047B704780B483B046
:1034F00000AF786039607B680533042B0CD801A2DB
:1035000052F823F01935021A1935021A1935021A20
:103510001935021A1935021A00BF00BF0C37BD4613
:103520005DF8047B704700BF90B585B004AF2848B4
:1035300000210222274BFEF7B7F9274B00932448BE
:10354000264948220223FEF7FBF8254B1B68254A33
:10355000934208D0244B00931D4824494C221E233B
:10356000FEF7EEF813E0224B1C6822480621FFF715
:10357000ABFF0346DB0C03F00F031F4A00920194DC
:10358000029313484C211E22174BFEF75BF91B4B8D
:1035900000931B4B01930E484C212822124BFEF73F
:1035A00051F9184B0093164B019309484C212822DE
:1035B0000D4BFEF747F90C4B0093054812494C227E
:1035C0003223FEF7BDF800BF0437BD4690BD00BFF3
:1035D000701400104092041AF874051A3490051AF9
:1035E00038140010EFBEADDE988E051A4490051A0F
:1035F0003C14001000400F405890051A7490051AB2
:103600008C90051A9890051AAC90051A80B483B076
:1036100000AF786039607B680533042B0CD801A2B9
:1036200052F823F03936021A3936021A3936021A9C
:103630003936021A3936021A00BF0C37BD465DF81A
:10364000047B704780B59CB002AF78603960FEF7AC
:103650001BFCFEF731FF07F10C03184606F020FFB4
:103660008F4B00938F4B01938F4807F10C0393E826
:1036700006008E4BFEF780FF07F11403184606F094
:103680000FFF8B4B0093874B01938A4807F114037C
:1036900093E80600854BFEF76FFF07F11C03184601
:1036A00006F0FEFE844B0093844807F11C0393E868
:1036B00006007E4BFEF70CFF07F12403184606F0C8
:1036C000EFFE18F0BDFA03460093764B01937C4859
:1036D00007F1240393E80600744BFEF74DFF794A87
:1036E00007F12C0392E8030083E80300764B009374
:1036F000764807F12C0393E806006C4BFEF7E8FED2
:10370000734A07F1340392E8030083E80300714B26
:103710000093714807F1340393E80600634BFEF70A
:10372000D7FE6E4A07F13C0392E8030083E80300EA
:103730006B4B00936B4807F13C0393E806005B4B2F
:10374000FEF7C6FE614B00225A70634B00225A708E
:10375000644B00225A704FF000037B64624BBB64E1
:1037600064230093614B0193614807F1440393E89C
:103770000600604BFEF7BAFB4FF00003FB645E4BA4
:103780003B6564230093594B01935C4807F14C035C
:1037900093E806005A4BFEF7A9FB4FF000037B6548
:1037A000584BBB6564230093504B0193564807F177
:1037B000540393E80600554BFEF798FB4FF00003C7
:1037C000FB65534B3B6664230093484B0193514880
:1037D00007F15C0393E806004F4BFEF787FB0420DC
:1037E0004E4905F0F3FC042005F008FC05204C4987
:1037F00005F0ECFC052005F001FC06F051F9494804
:1038000006F0AEF92848FEF737FE2A48FEF734FEE8
:103810002B48FEF731FE2948FEF72EFE2B48FEF717
:103820002BFE2D48FEF728FE2E48FEF725FE3048D9
:10383000FEF70AFB3148FEF707FB3648FEF704FBAC
:103840003148FEF701FB7B6813F1040F1CD013F124
:10385000040F07D841F2110293420AD013F1050F69
:1038600014D018E013F1020F12D013F1020F11D887
:1038700011E03B687B667B6E1B68184617F044FFBF
:10388000294809F06DFC06E000BF04E000BF02E03B
:1038900000BF00E000BF00BF6837BD4680BD00BF6D
:1038A000C090051ACDCC4C3E08180010988E051A11
:1038B000F0040010A8170010C01700109816001090
:1038C00054170010D490051A6C1700104017001000
:1038D000DC90051A20170010F4170010E490051A68
:1038E00000170010E0170010000024429A99993E3A
:1038F000E41600100C1800100000F841C816001063
:10390000AC17001000004C42AC1600105817001005
:103910000000A8418C1700109C1600101896041A7D
:10392000A494041A7C6F041AC890051A90B587B045
:1039300004AF06F045F905F07DFC18F081F9024668
:10394000564BDA6018F0D4F80346012B03D1544BE0
:10395000544ADA6002E0524B534ADA6018F0D8F861
:10396000786052481821524A7B6820F04DFA17F0CF
:10397000BFFE03461846012107F0FCFB03464D48F5
:1039800020214D4A20F040FA4C4B1C684C4B1B68E0
:1039900000934C4820214C4A234620F035FA4B48EE
:1039A00009F02AF80346C82B23D9484809F042F801
:1039B000474B5B78002B03D1454B01225A7002E044
:1039C000434B00225A70434B5B78002B03D1414B91
:1039D00001225A7002E03F4B00225A703E4B5B7846
:1039E000002B03D13C4B01225A7002E03A4B0022DB
:1039F0005A703A4B1B781C46394B1B781846394B8A
:103A00001B781946374B5B781A46374B1B7800906A
:103A100001910292039335482021354A234620F034
:103A2000F3F9344B1B6834482021344A20F0ECF978
:103A3000334808F0A1FF0346002B04D06FF00100CB
:103A40000021FFF78DFB2F4808F096FF0346002B5F
:103A50001FD02D4B00221A7317F04AFE02462A4B44
:103A60001A60294B294A9A60274B294A1A61264B2A
:103A7000284A5A61244B284A9A61234B274ADA6123
:103A8000214B274A1A62072041F210011E4AFFF714
:103A900005FB00BF0C37BD4690BD00BF541700109A
:103AA00008180010EC90051AF890051AF0040010A0
:103AB0000891051AC01700101891051A8C130010F0
:103AC000901300106C1700102891051A6C680010F4
:103AD00040170010F4170010E017001080130010BA
:103AE0008113001084130010606300102017001071
:103AF0003891051A88130010001700105C91051A00
:103B0000BC680010A8680010303E00106091051AD3
:103B1000002E930200D26CFD7891051A8891051A47
:103B20009891051A80B582B000AF786039600420A2
:103B300005F0FCF9052005F0F9F97B680533042B45
:103B40000CD801A252F823F05D3B021A5D3B021A29
:103B50005D3B021A5D3B021A5D3B021A00BF08374B
:103B6000BD4680BD80B500AF05481F2109F072F841
:103B7000034604481946202221F0D9FF80BD00BF2A
:103B80006C5700106406001090B5ABB002AF7860BF
:103B900039607B6813F1040F1ED013F1040F07D8AE
:103BA00041F2110293420AD013F1050F16D01CE026
:103BB00013F1020F14D0B3F1FF3F15D015E03B68AD
:103BC000C7F89C30D7F89C301B68184607F050F9AE
:103BD000044809F0C5FA08E000BF06E000BF04E0B1
:103BE00000BF02E0A891051A00BF07F097F903464D
:103BF000184602F0D7FE07F05BF90346184602F0BC
:103C0000ABFEFEF741F9FEF757FCFFF7ABFFC14AE9
:103C100007F10C0392E8030083E80300BE4A07F1B2
:103C2000140392E8030083E803004FF0FF3301938D
:103C3000BB6900937B69B94807F10C0206CAFEF71D
:103C40000DFDB74A07F11C0392E8030083E8030067
:103C5000B24B5B687B62B34BBB624FF0FF330193A7
:103C6000BB6A00937B6AB04807F11C0206CAFEF7E4
:103C7000F5FCAE4A07F12C0392E8030083E8030049
:103C8000AB4A07F1340392E8030083E803004FF0E6
:103C9000FF330193BB6B00937B6BA64807F12C02AB
:103CA00006CAFEF7DBFCA24A07F13C0392E80300D8
:103CB00083E80300994B5B687B649F4BBB644FF0C8
:103CC000FF330193BB6C00937B6C9C4807F13C0273
:103CD00006CAFEF7C3FC07F14C03184606F0E0FBEA
:103CE0001BF01CFB034600934FF07E530193944856
:103CF00007F14C0393E80600924BFEF73DFC924A15
:103D000007F1540392E8030083E80300642300935F
:103D10008E4B01938E4807F1540393E806008D4BB8
:103D2000FEF7E4F807F15C03184606F0B9FB8A4B8E
:103D300000934FF07E530193884807F15C0393E8AA
:103D40000600804BFEF718FC854A07F1640392E8F1
:103D5000030083E80300642300937C4B01938148B4
:103D600007F1640393E806007F4BFEF7BFF807F105
:103D70006C03184606F094FB7C4B00934FF07E5387
:103D800001937B4807F16C0393E806006D4BFEF747
:103D9000F3FB784A07F1740392E8030083E8030019
:103DA00064230093694B0193734807F1740393E80C
:103DB0000600724BFEF79AF807F17C03184606F0EE
:103DC0006FFB654B00934FF07E5301936C4807F1F6
:103DD0007C0393E806005B4BFEF7CEFB694A07F1D4
:103DE000840392E8030083E8030064230093574BA5
:103DF0000193654807F1840393E80600634BFEF7DF
:103E000075F807F18C03184606F04AFB604B1B78E7
:103E10001A46604B9B5C1A465F4B53F822405F4842
:103E200007F18C0393E806002346FEF789FC5C4A01
:103E300007F1940392E8030083E8030064230093EE
:103E4000424B0193574807F1940393E80600564B01
:103E5000FEF74CF83148FEF70FFB3348FEF70CFB3A
:103E60003448FEF709FB3548FEF706FB3448FEF7F9
:103E700003FB3748FDF7E8FF3848FEF7FDFA3948FD
:103E8000FDF7E2FF4548FEF7F7FA4648FDF7DCFF8D
:103E90003748FEF7F1FA3848FDF7D6FF3848FEF705
:103EA000EBFA3948FDF7D0FF0020404905F08EF9C4
:103EB000002005F0A3F801203D4905F087F9012015
:103EC00005F09CF802203B4905F080F9022005F03E
:103ED00095F80320384905F079F9032005F08EF8AC
:103EE0000420334905F072F9042005F087F8052015
:103EF000324905F06BF9052005F080F805F0D0FD9A
:103F00002F4805F02DFE07F019FF00BFA437BD466E
:103F100090BD00BFB891051AC091051A9C0500100C
:103F2000C891051A00002042B4050010D091051A6E
:103F3000D891051ACC05001000005042E40500108D
:103F4000FC050010988E051AE091051A9A99993E81
:103F50001406001000060010B491051A3006001077
:103F6000E891051A48060010340600106406001097
:103F700034050010F091051A4C05001038050010AA
:103F800068050010F891051A800500106C050010F6
:103F9000A5090010E498051A5C000010080500103F
:103FA0000092051A180500100C050010FC99041A5F
:103FB000B892041AF897041AF89A041A2895041A61
:103FC0003471041A90B587B002AF05F0F9FD05F021
:103FD00031F906F06DFF03460B2B1ED1022005F0D0
:103FE0000DF8032005F00AF80320A54905F0EEF8C6
:103FF0001BF098FC0346002B25DB012B02DD022B76
:1040000005D020E002209F4905F0E0F804E00220FE
:104010009D4905F0DBF800BF15E006F049FF0346B7
:10402000092B0AD0022005F059F80320974905F022
:10403000CDF8032004F0E2FF05E0022005F04EF881
:10404000032005F04BF81BF069F90246904BDA604B
:104050001AF0F2FE0346002B04D11BF021F90346AF
:10406000042B03D08A4B8B4A5A6103E0884B4FF0F4
:104070007E525A6107F0FEFC0346022B53D186485C
:1040800007F0A8FDF860FB68002B0BD183483021B6
:10409000834A1FF0B9FE834B834ADA60834B7D4A23
:1040A0005A613CE07C4807F061FDB860FB68009312
:1040B0007A4830217E4ABB681FF0A6FE07F030FA2E
:1040C00003463B603B46184608F068F878607B681A
:1040D000002B1DD07B681B68DBB2184608F0DEF8A9
:1040E000034618460D2108F0B5FD04467B685B6861
:1040F0001846012107F03EF8034600936D48302131
:104100006D4A23461FF080FE664B6A4ADA6002E081
:10411000644B654ADA60654B4FF07E525A61634BDF
:104120005E4ADA6065E05C4807F020FD0346002B3C
:1041300011D11BF0E1F80346012B08D15F4B1B782E
:104140005F4A9B0013441B68584A536107E0574B72
:10415000504A5A6103E0554B4FF07E525A6107F0C6
:1041600089FC0346012B18D14E4B4FF07E525A6109
:104170005448142108F06EFD0446474BD3F8C43868
:104180001846012106F0F6FF03460093434830210C
:104190004D4A23461FF038FE07E0424B3D4A5A6124
:1041A0003E483021494A1FF02FFE06F081FE0346AB
:1041B000092B07D13B4B374A5A613E48444921F00D
:1041C00044FC10E0374B4FF07E525A6106F03AFE45
:1041D00003461846012106F0CDFF0346354830213D
:1041E0003C4A1FF011FE314B2C4ADA602D4B314A0C
:1041F000DA60394B1B781A46384B9B5C002B06D192
:10420000374B384ADA60364B224A5A611EE01AF0C0
:1042100013FE0346012B06D1314B334ADA60304B93
:104220001C4A5A6112E015F031FF0346002B07D0FB
:104230002B4B2E4ADA602A4B4FF07E525A6105E032
:10424000274B2B4ADA60264B124A5A61294808F05C
:1042500093FB0346002B5CD006F02AFE03460B2B93
:1042600050D11BF05FFB0346022B4BD10023009380
:1042700021482249224A322306F044FA49E000BF8D
:10428000F89A041AF897041A8097041A7098041A76
:10429000FC050010CDCC4C3E644E0010840600108E
:1042A0000892051A68050010B491051A340500102B
:1042B0002492051AB40600104492051A283F0010F3
:1042C000B49A051A6C5700105492051A5C92051A9C
:1042D0007C92051AA092051AA4090010EC98051A00
:1042E00030060010AC92051ABC92051ACC92051A41
:1042F000DC92051AD0680010EC92051AF892051AA3
:104300000893051A02F00EFC07F018FD694808F042
:1043100027FF694808F030FB0346002B20D006F049
:10432000C7FD03460B2B0DD11BF0FCFA0346022BF5
:1043300008D10023009361486149624A322306F0A4
:10434000E1F90DE0002008F0D1FB03465E48194674
:10435000402221F0ECFB07F0F1FC564808F000FF8A
:1043600006F0A6FD03460B2B41D1584808F004FB8C
:104370000346002B1BD01BF0D5FA0346002B16DB9F
:10438000012B02DD022B0DD011E01BF0A1FA504BE6
:104390001B781A464F4B9B5C184606F0CBFD1AF073
:1043A0008BFF04E01BF0B2FA1AF06AFF00BF4A4824
:1043B00008F0E2FA0346002B30D01BF095FA1BF010
:1043C0007BFA464807F0AEFE0220454904F0FEFEA7
:1043D000022004F013FE15F03DFE18F0E9FB034641
:1043E000012B01D119F0DEFC07F0A8FC16E03A48D9
:1043F00008F0C2FA0346002B10D006F059FD034620
:10440000092B0BD0354807F08DFE07F097FC18F00C
:10441000CFFB0346012B01D119F0C4FC314808F051
:10442000ABFA0346002B35D006F042FD03460B2BBA
:104430000DD11BF077FA0346022B08D1002300931D
:104440001E481F49284A322306F05CF922E0204B1F
:104450001B780133DAB21E4B1A701D4B1B78052BEB
:1044600002D91B4B00221A70194B1B781A46194BA4
:104470009B5C1A461D4B53F822301D4AD360144BE7
:104480001B781A46134B9B5C184606F053FD0948EF
:1044900008F066FE174808F06FFA0346002B05D0B7
:1044A00009206FF001010022FEF7F8FD00BF14376C
:1044B000BD4690BDA891051A6C6800101493051AAA
:1044C000F892051A2093051A6C57001080680010A6
:1044D000A5090010E498051A94680010644E0010B5
:1044E000F897041AA86800102893051A5C000010B9
:1044F00008050010BC68001080B582B000AF78607D
:104500003960002004F012FD012004F00FFD0220AC
:1045100004F00CFD032004F009FD042004F006FD66
:10452000052004F003FD7B680533042B0CD801A2A1
:1045300052F823F04945021A4945021A4945021A20
:104540004945021A4945021A00BF0837BD4680BDD9
:1045500080B485B000AF374BD3ED017AFDEEE77A3A
:10456000C7ED017ABB88FB810023BB811BE0314B87
:104570001B69B7F90C2030498A5C203A53F8223085
:104580001A89FB8913449BB2FB812A4B1B6993F860
:104590008D319AB2FB8913449BB2FB81BB899BB2DC
:1045A00001339BB2BB81B7F90C30244A1278934295
:1045B000DDDB204B1B69214A127811461E4A525CF2
:1045C000203A53F822301B89013B9BB27B81B7F91B
:1045D0000E3007EE903AF8EEE77A194BC3ED017A08
:1045E000174B184A9A60164B02225A70144B00223D
:1045F0001A61B7F90E20B7F90A30134407EE903A62
:10460000F8EEE77A0E4BC3ED087A0D4BD3ED027A44
:10461000B0EE007A77EE877A094BC3ED097A084B42
:1046200002225A77064B0022DA621437BD465DF843
:10463000047B7047F0060010E406001088070010A5
:104640003C07001000004042B0B594B004AF786061
:104650003960494B00221A73474B484A9A607B687D
:1046600013F1040F1CD013F1040F07D841F210020C
:1046700093420AD013F1050F14D018E013F1020F82
:1046800012D0B3F1FF3F11D011E03B4A3B68144612
:104690001D460FCD0FC40FCD0FC42B68236006E05D
:1046A00000BF04E000BF02E000BF00E000BF324BEB
:1046B0001B7B012B11D0022B1AD0314B08221A7010
:1046C0002D4B1B681846012106F054FD03462D486A
:1046D00019460A2221F02BFA18E0294B06221A70FB
:1046E0002848294921F0B1F9234B284A9A600DE066
:1046F000234B07221A70204B5B6822481946072279
:1047000021F015FA1F4B0022DA7100BFFDF7BCFB48
:10471000FDF7D2FE05201E4904F058FD052004F0E7
:104720006DFC01201B4904F051FD012004F066FCE2
:104730000220194904F04AFD022004F05FFC032026
:10474000164904F043FD032004F058FC04201449EA
:1047500004F03CFD042004F051FC0020114904F059
:1047600035FD002004F04AFC0F4B1B7B012B1DD0B4
:1047700005F096F91CE000BF8C0700103493051A71
:10478000BC070010E40600103893051A4093051A80
:10479000A494041AA893041AA095041A3093041A36
:1047A0002094041A7899041A303E001005F054F948
:1047B0007E4805F0D5F97E4B9B6818467D49FCF78D
:1047C00053FF0346DA0F13445B109BB21BB2C3F1D5
:1047D000800307EE903AF8EEE77AC7ED027A764B5F
:1047E000FB60734B9B680093744807F1080393E8E0
:1047F0000600704BFDF76CFE714BDB681846714983
:10480000FCF732FF0346DA0F13445B109BB21BB276
:10481000C3F1800307EE903AF8EEE77AC7ED047A29
:10482000694B7B61664BDB6818466649FCF71CFFE9
:104830000346DA0F13445B109BB21BB2C3F18A0329
:1048400007EE903AF8EEE77AC7ED067A4FF0844328
:10485000FB614FF0FF33019301230293FB69009347
:10486000BB695A4807F1100206CAFEF74FF807F174
:104870002003184605F014FE554B0093504807F1ED
:10488000200393E806004F4BFDF722FE4C4BDB68FC
:1048900018464C49FCF7E8FE0346DA0F13445B1058
:1048A0009BB21BB2C3F1800307EE903AF8EEE77AB1
:1048B000C7ED0A7A444BFB6264230093454B019396
:1048C000454807F1280393E80600444BFDF70EFB2B
:1048D0003B4BDB6818463B49FCF7C6FE0346DA0F44
:1048E00013445B109BB21BB2C3F1800307EE903AF6
:1048F000F8EEE77AC7ED0C7A334B7B6364230093C1
:10490000374B0193374807F1300393E80600364BE5
:10491000FDF7ECFA2A4BDB6818462A49FCF7A4FE9F
:104920000346DA0F13445B109BB21BB2C3F1800342
:1049300007EE903AF8EEE77AC7ED0E7A224BFB636A
:1049400064230093264B0193284807F1380393E82A
:104950000600274BFDF7CAFAFFF7FAFD1848FDF7E6
:104960008BFD1A48FDF788FD1448FDF785FD1A48B0
:10497000FDF76AFA1B48FDF767FA1C48FDF764FA71
:10498000042004F03BFB1BF053FA1A4808F052F8DD
:10499000194808F04FF8194808F04CF8184808F082
:1049A00049F800BF4037BD46B0BD00BF4C72041A85
:1049B0008C070010887F051A0000B04174070010B2
:1049C000F0060010C022051A0000E8412007001080
:1049D000E40600109A99993E04070010F4060010AE
:1049E000CDCCCC3E3C070010240700105807001027
:1049F0002C0700106C68001080680010946800108C
:104A0000A868001080B584B002AF00237B6005F079
:104A1000D7F804F00FFCFFF79BFD894B1B781A4673
:104A2000884B9B5C1A46884B5A61884807F0A4FF64
:104A30000346002B3FD0864B1B7B002B03D0844BBF
:104A40001B7B032B1ED1834B1B78002B04D1824B85
:104A50001A78804B1A7005E07E4B1B78013BDAB266
:104A60007C4B1A707B4B1B78032B02D1794B0222B3
:104A70001A70784B1B78062B03D1764B05221A70DF
:104A800019E018E0724B1B7B012B03D0704B1B7B92
:104A9000022B10D16F4B1B78002B06D16E4B1B786D
:104AA000013BDAB26B4B1A7005E06A4B1B78013B95
:104AB000DAB2684B1A70694807F09EFF0346642B10
:104AC0001FD9634B1B7B002B03D0614B1B7B032B3C
:104AD00017D1FA2016F036FC604807F0ABFF604BA8
:104AE00030225A705E4B30229A705D4B30221A7120
:104AF0005B4B30225A715A4B3022DA71584B3022BC
:104B00001A72564807F058FF0346002B00F0C38086
:104B10004F4B1B7B002B03D04D4B1B7B032B75D1C5
:104B20004C4B1B78002B0FD14D4B1B782B2B03D1FB
:104B30004B4B2D221A7068E0494B1B782D2B64D10A
:104B4000474B2B221A70A6E0424B1B78444AD25C9A
:104B50000132D1B2424AD1543E4B1B78012B18D1BD
:104B60003F4B5B78312B06D93D4B9B78332B02D9D9
:104B70003B4B30225A70374B1B781A46384B9B5CA4
:104B8000322B42D9334B1B781A46354B302199547E
:104B900081E0304B1B78022B12D1314B5B78312BEB
:104BA00006D92F4B9B78332B02D92D4B30229A708C
:104BB0002B4B9B78392B28D9294B30229A706AE0ED
:104BC000244B1B78042B03D0224B1B78072B0ED1D0
:104BD000204B1B781A46224B9B5C352B06D91D4B6C
:104BE0001B781A461E4B302199540EE00DE0194BEC
:104BF0001B781A461A4B9B5C392B06D9154B1B7830
:104C00001A46174B3021995445E044E0104B1B7B6A
:104C1000012B27D10F4B1B78114AD25C0132D1B244
:104C20000F4AD1540B4B1B781A460D4B9B5C392B0A
:104C300031D9084B1B781A46094B302199542AE088
:104C4000283F0010A49A051A200700106C68001075
:104C50008C07001088070010BC0700108068001047
:104C6000E4060010944B1B7B022B14D1934B1B7852
:104C7000934AD25C0132D1B2914AD1548F4B1B7806
:104C80001A468F4B9B5C7E2B05D98C4B1B781A46A2
:104C90008B4B212199548B4807F0AEFE0346642BC1
:104CA0001FD9854B1B7B002B03D0834B1B7B032B16
:104CB00017D1FA2016F046FB824807F0BBFE804B66
:104CC00030225A707E4B30229A707D4B30221A71FE
:104CD0007B4B30225A717A4B3022DA71784B30227A
:104CE0001A72784807F068FE0346002B00F0B78080
:104CF000714B1B7B002B03D06F4B1B7B032B7BD19A
:104D00006E4B1B78002B0FD16D4B1B782B2B03D1D7
:104D10006B4B2D221A706EE0694B1B782D2B6AD1DC
:104D2000674B2B221A709AE0644B1B78644AD25C62
:104D3000013AD1B2624AD154604B1B78012B18D191
:104D40005E4B1B781A465E4B9B5C2F2B05D85B4B4A
:104D50001B781A465A4B32219954594B5B78312BA8
:104D600049D9574B9B78332B45D9554B31225A7033
:104D700075E0524B1B78022B18D1504B1B781A460A
:104D80004F4B9B5C2F2B05D84C4B1B781A464C4B3A
:104D9000392199544A4B5B78312B2CD9484B9B785D
:104DA000332B28D9464B33229A7058E0434B1B785B
:104DB000042B03D0414B1B78072B0ED13F4B1B78A4
:104DC0001A463F4B9B5C2F2B06D83C4B1B781A4650
:104DD0003B4B352199540EE00DE0384B1B781A46B9
:104DE000374B9B5C2F2B06D8344B1B781A46344B21
:104DF0003921995433E032E02F4B1B7B012B15D125
:104E00002E4B1B782E4AD25C013AD1B22C4AD15497
:104E10002A4B1B781A462A4B9B5C2F2B1FD8274BFB
:104E20001B781A46264B3921995418E0224B1B7BDC
:104E3000022B14D1214B1B78214AD25C013AD1B20A
:104E40001F4AD1541D4B1B781A461D4B9B5C202BCF
:104E500005D81A4B1B781A46194B7E2199541A48CB
:104E600007F08AFD0346002B49D0134B1B7B002B18
:104E700003D0114B1B7B032B2AD1104B1B78013322
:104E8000DAB20E4B1A700D4B1A78104B1B789A42FF
:104E900002D90A4B00221A70084B1B78032B02D14F
:104EA000064B04221A70054B1B78062B03D1034BCB
:104EB00007221A7023E022E08C07001088070010F8
:104EC000E406001094680010A8680010BC070010E9
:104ED000624B1B7B012B03D0604B1B7B022B0ED143
:104EE0005F4B1B780133DAB25D4B1A705C4B1A785A
:104EF0005C4B1B789A4202D3594B00221A705A48D5
:104F000007F03AFD0346002B04D06FF001000021AA
:104F1000FEF726F9554807F02FFD0346002B00F059
:104F200099804E4B1B7B002B28D1514B00225A728B
:104F30004F4806F0D3FB7860484B1A697B689A4269
:104F400004DB464B5A697B689A420BDD434B9869F8
:104F5000424BD969414B1A6A00230093322305F072
:104F6000D1FB77E0434A7B681360424B01221A7100
:104F700041F211003F49FEF7F3F86BE0374B1B7B22
:104F8000012B21D1374B1B780133394A0021D154F1
:104F9000374820F0E9FC03461A46374B1A60374B76
:104FA000374A1A6000200021344A042316F0A8FA78
:104FB00004200021304A042316F0A2FA41F2110025
:104FC0002C49FEF7CDF845E0244B1B7B022B0ED17C
:104FD000244B1B780133264A0021D154254B244A07
:104FE0009A6041F211002349FEF7BAF832E01B4BF8
:104FF0001B7B032B2ED11E4B00225A721C4806F03D
:105000006DFB7860154B1A697B689A4204DB134B81
:105010005A697B689A420BDD104B98690F4BD9692E
:105020000E4B1A6A00230093322305F06BFB11E04C
:10503000144A7B68C2F8C438134808F091F80D4A46
:105040007B6813600B4B01221A7141F21100094970
:10505000FEF786F800BF0837BD4680BD8C070010FC
:1050600088070010BC070010BC680010D068001052
:10507000E4060010B00700103C14001038140010B3
:10508000EFBEADDE644E00105493051A80B582B0B9
:1050900000AF78603960002003F048FF012003F082
:1050A00045FF022003F042FF032003F03FFF0420EE
:1050B00003F03CFF052003F039FF7B680533042B28
:1050C0000CD801A252F823F0DD50021ADD50021A6A
:1050D000DD50021ADD50021ADD50021A00BF0837F7
:1050E000BD4680BD90B593B002AF0346FB71A34AA5
:1050F00007F11C0392E8030083E80300D7ED077A69
:10510000FDEEE77AC7ED007A3B887B869B4A07F184
:10511000240392E8030083E80300D7ED0A7AFDEE4A
:10512000E77AC7ED007A3B883B861423FB850C2386
:10513000BB854FF00003BB63FB8D1A4692001344FE
:105140005B009AB27B8E13449BB29BB2B7F93210CC
:105150001AB2B7F930404FF0FF3300938848234626
:10516000FBF77EFEFB8D1A46920013445B009AB259
:105170007B8E13449BB298B23A8EBB8D13449BB284
:105180009BB2B7F9321002B21CB24FF0FF3300935A
:105190007B482346FBF764FEFB8D1A4692001344BE
:1051A0005B009AB27B8E13449BB298B2BB8D5B00BE
:1051B0009AB23B8E13449BB29BB2B7F9321002B243
:1051C0001CB24FF0FF3300936D482346FBF748FEB7
:1051D000BB8D5B009AB23B8E13449BB298B2FB8DA1
:1051E0001A46920013445B009AB27B8E13449BB222
:1051F0009BB2B7F9301002B21CB24FF0FF330093EC
:105200005F482346FBF78CFE002387F83F30ACE075
:10521000BB8D5B009AB23B8E13449BB298B297F859
:105220003F309AB2FB8D12FB03F39AB27B8E13448C
:105230009BB29BB2B7F9301002B21CB24FF0FF33F1
:1052400000934F482346FBF76BFEFA7997F83F30FF
:105250001344632B0BDC97F83F20FB79134407F1D1
:105260000C0210461021474A1EF0CEFD05E007F162
:105270000C031846444920F0E8FB97F83F20FB79DF
:105280001344424AD35CFF2B03D14FF07A53BB63E4
:1052900049E04FF07E53BB6397F83F20FB791344FE
:1052A0003A4AD35C042B1CD801A252F823F000BF69
:1052B000C552021ACB52021AD152021AD752021AFE
:1052C000DD52021A324B7B630BE0324B7B6308E00A
:1052D000314B7B6305E0314B7B6302E0304B7B63FA
:1052E00000BFFA7997F83F301344632B1BDC97F823
:1052F0003F309AB2FB8D12FB03F39AB27B8E1344BC
:105300009BB202339BB299B2BA8D3B8E13449BB2CF
:1053100002339BB29BB20AB21BB2194811461A461D
:105320007B6BFCF7C1FA97F83F309AB2FB8D12FB0A
:1053300003F39AB27B8E13449BB205339BB29AB2AD
:105340003B8E03339BB29BB207F10C0112B21CB22D
:10535000144B0093BB6B019309482346FCF730FACA
:1053600097F83F30013387F83F3097F83F30092BEB
:105370007FF64EAF4437BD4690BD00BF8093051AFF
:10538000701400107493051A7C93051AC013001052
:105390006C74041AD474041A3C75041AA475041AA3
:1053A0000C76041A988E051A80B483B000AF0023DF
:1053B000FB710E4B1B78BB710AE0BB790C4AD35CC6
:1053C000FF2B02D1FB790133FB71BB790133BB7138
:1053D000BA79084B1B7801339A42EEDBFB79184609
:1053E0000C37BD465DF8047B704700BF0800001015
:1053F000C01300100900001080B491B000AF424B00
:105400001B78032B75D801A252F823F01D54021A01
:105410005154021A8754021ABD54021A3B4A3B46A1
:1054200092E8030083E80300D7ED007AB2EE007A39
:1054300077EEC77A364BC3ED017A344A07F1080399
:1054400092E8030083E80300FB68314A936050E070
:10545000304A07F1100392E8030083E80300D7ED18
:10546000047AB2EE007A77EEC77A294BC3ED017A5F
:10547000284A07F1180392E8030083E80300FB6958
:10548000234A936035E0244A07F1200392E80300A1
:1054900083E80300D7ED087AB2EE007A77EEC77A98
:1054A0001B4BC3ED017A1C4A07F1280392E8030065
:1054B00083E80300FB6A164A93601AE0174A07F173
:1054C000300392E8030083E80300D7ED0C7AB2EED4
:1054D000007A77EEC77A0E4BC3ED017A0F4A07F1D7
:1054E000380392E8030083E80300FB6B084A9360EB
:1054F00000BF074B00221A61054B02225A70443745
:10550000BD465DF8047B7047CD0800108893051AEE
:10551000680800109093051A9893051A8093051A4D
:1055200080B594B002AF78603960FCF7ADFCFCF751
:10553000C3FF17F069FA17F05BFA8E4B4FF0FF329A
:10554000DA638D4B4FF0FF321A6017F031FB0346E0
:105550001A468A4B1A7017F065FB03461A46884BA9
:105560001A7017F053FB03461A46864B1A70834B8A
:105570001B78012B08D0834B1A78814B1B780120B4
:1055800011461A4617F0C8FA07F10803184604F046
:1055900087FF7D4B00937D4807F1080393E80600E1
:1055A0007B4BFCF795FF07F11003184604F078FFDA
:1055B000784B0093784807F1100393E80600744B8A
:1055C000FCF786FF07F11803184604F069FF734BD8
:1055D0000093734807F1180393E806006C4BFCF73F
:1055E00077FF07F12003184604F05AFF6D4B009334
:1055F0004FF07E5301936C4807F1200393E80600B7
:10560000634BFCF7B9FF694A07F1280392E80300EE
:1056100083E8030064230093654B0193654807F119
:10562000280393E80600644BFCF760FC634A07F12B
:10563000300392E8030083E80300642300935C4B8B
:1056400001935F4807F1300393E806005D4BFCF7D8
:105650004DFC5D4A07F1380392E8030083E803003C
:1056600064230093524B0193584807F1380393E8A1
:105670000600574BFCF73AFC07F14003184604F0CC
:105680000FFF64230093534B0193534807F14003EA
:1056900093E80600514BFCF729FCFFF7ADFE05200F
:1056A0004F4903F093FD01204E4903F08FFD022086
:1056B0004D4903F08BFD03204C4903F087FD042086
:1056C0004B4903F083FD00204A4903F07FFD012090
:1056D00003F094FC022003F091FC032003F08EFC05
:1056E000042003F08BFC052003F088FC002003F06D
:1056F00085FC04F0D5F9404804F032FA2348FCF761
:10570000BBFE2548FCF7B8FE2548FCF7B5FE264849
:10571000FCF7B2FE2748FCF797FB2948FCF794FBFF
:105720002A48FCF791FB2C48FCF78EFB7B6813F1B1
:10573000040F11D013F1040F07D841F21102934264
:105740000CD013F1050F0BD00FE013F1020F09D0AD
:1057500013F1020F08D808E000BF06E000BF04E024
:1057600000BF02E000BF00E000BF00BF4837BD46F9
:1057700080BD00BF20690010D0080010D4080010C0
:10578000D5080010D608001084080010C0070010CB
:10579000988E051A9C080010D4070010B408001059
:1057A000E8070010A093051AFC0700108893051A5B
:1057B000CDCC4C3E14080010C40700109093051A7D
:1057C00030080010D80700109893051A4C080010F4
:1057D000EC070010CDCCCC3E68080010000800108B
:1057E000A494041A3093041AA893041A2094041A57
:1057F000A095041A7899041AD872041A80B584B056
:1058000002AF04F0DDF903F015FDA24B1B78A24AAC
:105810009B0013441B68A14A5361A14807F0ACF8F0
:105820000346002B1CD017F0D7F817F0C1F9034638
:105830001A469C4B1B789A420AD09A4B19789A4B7D
:105840001A789A4B1B78084611461A4617F064F9E5
:10585000974807F085FC6FF001000021FDF780FC00
:10586000944B1B781846FFF73DFC934B1B781A4668
:10587000924B53F8223092481821924A1EF0C4FAF3
:10588000914B1B7891481821914A1EF0BDFA914B1B
:105890001B7891481821914A1EF0B6FA904807F0FB
:1058A0006BF80346002B0ED08E4B1B780133DAB217
:1058B0008C4B1A708B4B1B78032B02D9894B00221F
:1058C0001A70FFF799FD884807F056F80346002B39
:1058D0000FD0844B1B78002B03D1824B03221A700C
:1058E00005E0804B1B78013BDAB27E4B1A70FFF764
:1058F00083FD7E4807F040F80346002B4AD0794BE1
:105900001B78032B46D801A252F823F01D59021A26
:105910003B59021A5959021A7759021A664B1B78D9
:10592000002B03D1644B01221A7033E0624B1B78C9
:10593000013BDAB2604B1A702CE0634B1B78012BF1
:1059400003D1614B63221A7024E05F4B1B78013B4B
:10595000DAB25D4B1A701DE05E4B1B78012B03D150
:105960005C4B63221A7015E05A4B1B78013BDAB28C
:10597000584B1A700EE04F4B1B78012B03D14D4B47
:105980005B221A7005E04B4B1B780A3BDAB2494B9D
:105990001A7000BF564806F0EFFF0346002B4BD0AD
:1059A000504B1B78032B47D801A252F823F000BFBD
:1059B000C159021ADF59021AFD59021A1B5A021A5A
:1059C0003D4B1B780133DAB23B4B1A703A4B1B78D4
:1059D000012B03D9384B00221A702DE02CE03A4BF2
:1059E0001B780133DAB2384B1A70374B1B78632BB4
:1059F00003D9354B01221A701EE01DE0354B1B7890
:105A00000133DAB2334B1A70324B1B78632B03D954
:105A1000304B01221A700FE00EE0264B1B780A3340
:105A2000DAB2244B1A70234B1B78642B03D9214B19
:105A300001221A70FFE700BF2E4806F09DFF0346C3
:105A4000002B63D0204B1A78224B1B789A420AD93C
:105A50001D4B1B787B601C4B1A781E4B1A707B68A1
:105A6000DAB2194B1A70244B0022DA63194B1B78F7
:105A70000133AF2202FB03F31A46204B1A600E4B90
:105A80001B78002B3CD116F0BFFF18F0BBFA18F0C2
:105A9000B9FA3BE0283F0010B49A051AFC07001041
:105AA000BC680010D4080010D6080010D5080010FB
:105AB000A493051A0A000010CC0800100000001082
