:020000041A00E0
:10000000008000101503001AF501001AFD01001A06
:100010000502001A0D02001A1502001A0000000065
:100020000000000000000000000000001D02001A97
:100030002502001A000000002D02001A3502001AE5
:100040003D02001A3D02001A3D02001A00000000A5
:100050003D02001A3D02001A3D02001A3D02001A3C
:100060003D02001A3D02001A3D02001A3D02001A2C
:100070003D02001A3D02001A3D02001A3D02001A1C
:100080003D02001A3D02001A3D02001A3D02001A0C
:100090003D02001A3D02001A3D02001A3D02001AFC
:1000A0003D02001A3D02001A3D02001A3D02001AEC
:1000B0003D02001A3D02001A3D02001A3D02001ADC
:1000C0003D02001A3D02001A3D02001A3D02001ACC
:1000D0003D02001A3D02001A3D02001A3D02001ABC
:1000E0003D02001A3D02001A3D02001A3D02001AAC
:1000F000000000003D02001A3D02001A3D02001AF5
:10010000000000003D02001A3D02001A3D02001AE4
:100110003D02001AF803001A000000100000000061
:10012000F803001A0000081000000000F803001A8D
:100130000000002000000000F803001A00800020EA
:1001400000000000F803001A00C0002000000000BA
:100150000000001004000000000008100000000073
:1001600000000020000000000080002000000000CF
:1001700000C000200000000080B489B000AFF8602B
:10018000B9607A60BB68FB61FB68BB6100237B617F
:100190000AE0FB691A1DFA61BA69111DB96112689A
:1001A0001A607B6904337B617A697B689A42F0D379
:1001B0002437BD465DF8047B704700BF80B485B02E
:1001C00000AF786039607B68FB600023BB6007E0AC
:1001D000FB681A1DFA6000221A60BB680433BB601A
:1001E000BA683B689A42F3D31437BD465DF8047B86
:1001F000704700BF80B400AFFEE700BF80B400AF1F
:10020000FEE700BF80B400AFFEE700BF80B400AFE0
:10021000FEE700BF80B400AFFEE700BF80B400AFD0
:10022000FEE700BF80B400AFFEE700BF80B400AFC0
:10023000FEE700BF80B400AFFEE700BF80B400AFB0
:10024000FEE700BFFFFFFFFFFFFFFFFFFFFFFFFF16
:10025000FFFFFFFFFFFFFFFFFFFFFFFFFFFFFFFFAE
:10026000FFFFFFFFFFFFFFFFFFFFFFFFFFFFFFFF9E
:10027000FFFFFFFFFFFFFFFFFFFFFFFFFFFFFFFF8E
:10028000FFFFFFFFFFFFFFFFFFFFFFFFFFFFFFFF7E
:10029000FFFFFFFFFFFFFFFFFFFFFFFFFFFFFFFF6E
:1002A000FFFFFFFFFFFFFFFFFFFFFFFFFFFFFFFF5E
:1002B000FFFFFFFFFFFFFFFFFFFFFFFFFFFFFFFF4E
:1002C000FFFFFFFFFFFFFFFFFFFFFFFFFFFFFFFF3E
:1002D000FFFFFFFFFFFFFFFFFFFFFFFFFFFFFFFF2E
:1002E000FFFFFFFFFFFFFFFFFFFFFFFFFFFFFFFF1E
:1002F000FFFFFFFFFFFFFFFFFFFFFFFFFFFFFFFF0E
:1003000080B400AF024B1B680133014A1360F9E768
:100310000000001080B588B000AF72B62B4B7B6137
:100320007B692B4A1A607B6904332A4A1A602A4B7C
:100330003B610023FB6109E0FB699B003A691344C0
:100340004FF0FF321A60FB690133FB61FB69072B39
:10035000F2D962B6214BBB6113E0BB691A1DBA61C9
:100360001B68FB60BB691A1DBA611B68BB60BB6977
:100370001A1DBA611B687B60F868B9687A68FFF774
:10038000FBFEBB69164A9342E7D30DE0BB691A1D19
:10039000BA611B68BB60BB691A1DBA611B687B60D0
:1003A000B8687968FFF70AFFBB690E4A9342EDD33C
:1003B000DFF83C00016841F4700101600A4B3B60CA
:1003C0000A4A3B681A6000F015F8FEE70031054064
:1003D0000010DF10FFF7DF0180E200E01401001AD7
:1003E0005001001A7801001A08ED00E00000001A20
:0803F00088ED00E0FFF784BF77
:040000051A000315C5
:00000001FF
