:0B00000656322E302E4245544130008F
:0500000656312E300010
:0500000656312E300010
:020000041A02DE
:10000000008000105D03021AF501021AFD01021AB8
:100010000502021A0D02021A1502021A000000005F
:100020000000000000000000EFBEADDE1D02021A5D
:100030002502021A000000002D02021A3502021ADF
:100040003D02021A3D02021A3D02021A000000009F
:100050003D02021A3D02021A3D02021A3D02021A34
:100060003D02021A3D02021A3D02021A3D02021A24
:100070003D02021A3D02021A3D02021A3D02021A14
:100080003D02021A3D02021A3D02021A3D02021A04
:100090003D02021A3D02021A3D02021A3D02021AF4
:1000A0003D02021A3D02021A3D02021A3D02021AE4
:1000B0003D02021A3D02021A3D02021A3D02021AD4
:1000C0003D02021A3D02021A3D02021A3D02021AC4
:1000D0003D02021A3D02021A3D02021A3D02021AB4
:1000E0003D02021A3D02021A3D02021A3D02021AA4
:1000F000000000003D02021A3D02021A3D02021AEF
:10010000000000003D02021A3D02021A3D02021ADE
:100110003D02021AB01C021A00000010000000008C
:10012000B01C021A0000081000000000B01C021AE7
:100130000000002000000000B01C021A0080002017
:1001400000000000B01C021A00C0002000000000E7
:100150000000001020000000000008100000000057
:1001600000000020000000000080002000000000CF
:1001700000C000200000000080B489B000AFF8602B
:10018000B9607A60BB68FB61FB68BB6100237B617F
:100190000AE0FB691A1DFA61BA69111DB96112689A
:1001A0001A607B6904337B617A697B689A42F0D379
:1001B0002437BD465DF8047B704700BF80B485B02E
:1001C00000AF786039607B68FB600023BB6007E0AC
:1001D000FB681A1DFA6000221A60BB680433BB601A
:1001E000BA683B689A42F3D31437BD465DF8047B86
:1001F000704700BF80B400AFFEE700BF80B400AF1F
:10020000FEE700BF80B400AFFEE700BF80B400AFE0
:10021000FEE700BF80B400AFFEE700BF80B400AFD0
:10022000FEE700BF80B400AFFEE700BF80B400AFC0
:10023000FEE700BF80B400AFFEE700BF80B400AFB0
:10024000FEE700BFFFFFFFFFFFFFFFFFFFFFFFFF16
:10025000FFFFFFFFFFFFFFFFFFFFFFFFFFFFFFFFAE
:10026000FFFFFFFFFFFFFFFFFFFFFFFFFFFFFFFF9E
:10027000FFFFFFFFFFFFFFFFFFFFFFFFFFFFFFFF8E
:10028000FFFFFFFFFFFFFFFFFFFFFFFFFFFFFFFF7E
:10029000FFFFFFFFFFFFFFFFFFFFFFFFFFFFFFFF6E
:1002A000FFFFFFFFFFFFFFFFFFFFFFFFFFFFFFFF5E
:1002B000FFFFFFFFFFFFFFFFFFFFFFFFFFFFFFFF4E
:1002C000FFFFFFFFFFFFFFFFFFFFFFFFFFFFFFFF3E
:1002D000FFFFFFFFFFFFFFFFFFFFFFFFFFFFFFFF2E
:1002E000FFFFFFFFFFFFFFFFFFFFFFFFFFFFFFFF1E
:1002F000FFFFFFFFFFFFFFFFFFFFFFFFFFFFFFFF0E
:1003000080B582B000AF00233B6000237B6000F02B
:1003100071FD00F08FF90020012100F06DF900233C
:100320007B6002E07B6801337B607B680A4A934212
:10033000F8D90020012100F05FF900237B6002E082
:100340007B6801337B607B68034A9342F8D90020C5
:10035000002100F051F9E2E77F841E0080B588B0EB
:1003600000AF72B6274B7B617B69274A1A607B69B5
:100370000433264A1A60264B3B610023FB6109E0E7
:10038000FB699B003A6913444FF0FF321A60FB6926
:100390000133FB61FB69072BF2D962B600F040F82C
:1003A0001C4BBB6113E0BB691A1DBA611B68FB6083
:1003B000BB691A1DBA611B68BB60BB691A1DBA61B3
:1003C0001B687B60F868B9687A68FFF7D5FEBB697F
:1003D000114A9342E7D30DE0BB691A1DBA611B684D
:1003E000BB60BB691A1DBA611B687B60B86879681D
:1003F000FFF7E4FEBB69094A9342EDD301F0B8FB75
:10040000FEE700BF003105400010DF10FFF7DF01FD
:1004100080E200E01401021A5001021A7801021A67
:1004200080B582B000AF064B7B60064A7B681A60DD
:1004300001F0C6F900F088FA0837BD4680BD00BF5C
:1004400008ED00E00000021A80B483B000AF03465C
:10045000FB710B46BB711346BB800648F979BB792B
:10046000BA8849010B4440F823200C37BD465DF89B
:10047000047B70470060084080B483B000AF7860B0
:10048000064A064BD3F82C3143F00403C2F82C3152
:100490000C37BD465DF8047B704700BF0030044058
:1004A00080B483B000AF7860084611461A46034610
:1004B000FB700B46BB7013467B70F978BB7878787D
:1004C0007A6849010B44134402461A700C37BD4642
:1004D0005DF8047B704700BF80B483B000AF7860E4
:1004E0000B46FB701346BB70FA78F9787B6801F510
:1004F000006153F82110BB78012000FA03F319437F
:100500007B6802F5006243F822100C37BD465DF8A7
:10051000047B704780B483B000AF78607B680122B1
:10052000DA650C37BD465DF8047B704780B483B054
:1005300000AF786039607B683A68DA600C37BD4696
:100540005DF8047B704700BF80B582B000AF786073
:100550007B680A4A93420DD07B68094A934209D1CD
:10056000092003211F22FFF76FFF09200421D72252
:10057000FFF76AFF0837BD4680BD00BF0010084086
:1005800000200C4080B500AF0948FFF7DDFF0848A8
:1005900001F07EFA064847F6122101F0B7FA044846
:1005A0000321FFF7C3FF0248FFF7B4FF80BD00BF80
:1005B00000200C4080B582B000AF00237B600EE0CD
:1005C0000A4A7B6813441978094A7B6813441B78EC
:1005D00008481A46FFF780FF7B6801337B607B6821
:1005E000072BEDD90837BD4680BD00BF741B021A2A
:1005F0007C1B021A00400F4080B582B000AF03465A
:100600000A46FB711346BB71FB79072B09D8FB79AE
:10061000054AD15CFB79054AD25CBB790448FFF7F7
:100620003FFF0837BD4680BD741B021A7C1B021AAF
:1006300000400F4080B500AFFFF7A4FF0E4801F067
:10064000F9F8092005214222FFF7FEFE09200621C4
:100650004222FFF7F9FE02200521D222FFF7F4FE25
:10066000062003214122FFF7EFFEFFF7A3FF034817
:10067000FFF702FF80BD00BF00400F4000000140B7
:1006800080B483B000AF0346FB710B46BB711346C9
:10069000BB800648F979BB79BA8849010B4440F818
:1006A00023200C37BD465DF8047B7047006008408E
:1006B00090B583B000AF0446084611461A4623465B
:1006C000FB710346BB710B46BB801346FB70FB7886
:1006D0009AB2BB8813439BB2F979BA79084611469E
:1006E0001A46FFF7CDFF0C37BD4690BD80B483B0EE
:1006F00000AF03460A46FB711346BB800549FB79F0
:10070000BA8803F5407341F823200C37BD465DF8E5
:10071000047B70470060084080B584B000AF78600B
:1007200039600023FB6014E0FB689B007A68134487
:100730001878FB689B007A6813445978FB689B0023
:100740007A6813445B881A46FFF79AFFFB68013307
:10075000FB60FA683B689A42E6D31037BD4680BD1D
:1007600080B485B000AF78607B68104AA2FB032399
:10077000DB0DFB600E490E4BD3F8203123F47042A1
:10078000FB681B031343C1F820310949084BD3F818
:10079000243123F47042FB681B031343C1F8243156
:1007A0001437BD465DF8047B704700BF7D26D663D5
:1007B0000030044080B485B000AFF860B9601146E5
:1007C0001A460B46FB711346BB71FB79B879FA6880
:1007D000B96849010B44134402461A701437BD46E8
:1007E0005DF8047B704700BF80B483B000AF7860D1
:1007F0000B46FB701346BB70FA78BB78012101FAF7
:1008000003F319467B6802F50A6243F822100C379D
:10081000BD465DF8047B704780B582B000AF1148DB
:100820000921FFF779FF00237B6010E00E4A7B6807
:100830009B00134459780C4A7B689B0013445B88E7
:1008400008461946FFF752FF7B6801337B607B68DF
:10085000032BEBD905480621FFF75EFF0837BD469D
:1008600080BD00BFBC1B021AE01B021AA41B021AA7
:1008700090B583B000AF2F48FFF772FF01F07AF810
:1008800000237B6018E02C4A7B6812F823002A4A78
:100890007B689B0013445978274A7B689B0013446C
:1008A0009C78254A7B689B001344DB78224600F045
:1008B0001DFE7B6801337B607B68052BE3D91F4AF3
:1008C0001E4B5B6823F00C0353601C4A1B4B5B6898
:1008D00043F00303536004200921052200F0D6FCF5
:1008E000052010210122002300F000FE0220092132
:1008F000022200F0CBFC0D2000F046FE0120092171
:10090000042200F0C3FC0E4B41F610021A600C4B9F
:1009100041F203029A600A4B0A4ADA60062001217A
:10092000074A00F0F7FE012000F030FF0C37BD460B
:1009300090BD00BF00CB280C8C1B021A0030044075
:1009400008000010D87A140080B500AFEB4800F022
:1009500071FF0C200121F0220423FFF7A9FEE748D4
:1009600006210022012300F06FFFE4480621002247
:10097000FFF73AFF0420052140220023FFF798FEED
:10098000DE4802210522002300F05EFF042006213C
:1009900040220023FFF78CFED848022106220023C4
:1009A00000F052FF0420032140220023FFF780FEC5
:1009B000D24802210322002300F046FF0520072130
:1009C00040220023FFF774FECC48022107220023B7
:1009D00000F03AFF06200C2140220023FFF768FEBA
:1009E000C64802210822002300F02EFF0520002126
:1009F00040220023FFF75CFEC048022109220023A9
:100A000000F022FF0520012140220023FFF750FEC5
:100A1000BA4802210A22002300F016FF0520022115
:100A200040220023FFF744FEB44802210B2200239A
:100A300000F00AFF0520032140220023FFF738FEC3
:100A4000AE4802210C22002300F0FEFE0520042106
:100A500040220023FFF72CFEA84802210D2200238C
:100A600000F0F2FE0520052140220023FFF720FEC2
:100A7000A24802210E22002300F0E6FE05200621F6
:100A800040220023FFF714FE9C4802210F2200237E
:100A900000F0DAFE0E200C21F0220423FFF708FEFE
:100AA000964807210C22012300F0CEFE934807212F
:100AB0000C220123FFF77EFE092005214222FFF7C9
:100AC000DFFD02200521D222FFF7DAFD06200321F7
:100AD0004122FFF7D5FD03200721F122FFF7D0FDCA
:100AE00003200621F122FFF7CBFD03200321F12291
:100AF000FFF7C6FD0C200321F422FFF7C1FD7F485C
:100B000006210222012300F09FFE0C200421F42282
:100B1000FFF7B6FD794806210322012300F094FE79
:100B200008200221F022FFF7ABFD744804210222C5
:100B3000012300F089FE0C2005214422FFF7A0FDCF
:100B40006E4806210422002300F07EFE03200821C7
:100B5000F222FFF795FD0F200221F222FFF790FD10
:100B60000F200C21F022FFF78BFD0D200021F42235
:100B7000FFF786FD614806210E22012300F064FE86
:100B80000D200121F422FFF77BFD5C4806210F2296
:100B9000012300F059FE042004210722FFF770FD15
:100BA000564806210F22012300F04EFE08200321A3
:100BB000F022FFF765FD514804210322012300F0D4
:100BC00043FE08200421F022FFF75AFD4B48042180
:100BD0000422012300F038FE02200321F422FFF753
:100BE0004FFD464805210322012300F02DFE06207B
:100BF0000421F222FFF744FD06200521D222FFF74F
:100C00003FFD03200421F422FFF73AFD03200521D4
:100C1000D422FFF735FD02200A21F222FFF730FD32
:100C200002200B21D222FFF72BFD09200321F722FE
:100C3000FFF726FD09200421D722FFF721FD0E2012
:100C40000F21F422FFF71CFD2C4807210F2201235E
:100C500000F0FAFD294807210F220023FFF7AAFD23
:100C60000E200E21F422FFF70BFD244807210E224F
:100C7000012300F0E9FD214807210E220123FFF79F
:100C800099FD0C200821F422FFF7FAFC1B480621ED
:100C90000722012300F0D8FD18480621072200236F
:100CA000FFF788FD0C200721F422FFF7E9FC134829
:100CB00006210622012300F0C7FD0C200921F422A1
:100CC000FFF7DEFC0D4806210822012300F0BCFDE1
:100CD0000D200D21F422FFF7D3FC084806211B222A
:100CE000012300F0B1FD0D200E21F422FFF7C8FC16
:100CF000024806211C22012302E000BF00400F40F1
:100D000000F0A2FD0D200F21D422FFF7B9FC3848D6
:100D100006211D22002300F097FD0C200D21F42256
:100D2000FFF7AEFC324806210C22012300F08CFDB7
:100D30000D200921F422FFF7A3FC2D4806211722DC
:100D4000012300F081FD2A48062117220023FFF726
:100D500031FD0D200221F422FFF792FC24480621E8
:100D60001022012300F070FD0D200321F422FFF773
:100D700087FC1F4806211122012300F065FD082091
:100D8000052140220023FFF793FC19480421052286
:100D9000002300F059FD08200721F022FFF770FC26
:100DA000134804210722012300F04EFD08200621EC
:100DB000F022FFF765FC0E4804210622012300F013
:100DC00043FD0D200421F422FFF75AFC08480621B8
:100DD0001222012300F038FD0548062112220123CA
:100DE000FFF7E8FCFFF718FDFFF742FD80BD00BFED
:100DF00000400F4080B500AF692000F047FC02467C
:100E0000014B1A6080BD00BF1C00001080B487B089
:100E100000AFF860B9607A603B60BB68FA6802FBBB
:100E200003F37B617A697B689A4207D37B69084A3E
:100E3000934203D87A693B689A4201D900237B61C7
:100E40007B6918461C37BD465DF8047B704700BFC0
:100E500000CB280C80B584B000AF03460A46FB7176
:100E60001346BB71BB79184600F052FA0346FB7378
:100E7000BB79184600F06CFAB860FB7B184600F0AE
:100E800083FA0246BB680133B2FBF3F3184610370E
:100E9000BD4680BD80B485B000AF0346FB801C23F7
:100EA000FB730023BB6022E01B49BA6813465B005A
:100EB00013445B000B441B88FA889A4214D31649EA
:100EC000BA6813465B0013445B000B445B88FA88E6
:100ED0009A4209D81049BA6813465B0013445B0074
:100EE0000B441B79FB7302E0BB680133BB60FB7BE7
:100EF0001C2B0AD10849BA6813465B0013445B00F7
:100F00000B441B79FA7B9A42CED1FB7B18461437EF
:100F1000BD465DF8047B7047F01B021A80B483B0B5
:100F200000AF164B3B60164B9B697B607B6843F0C0
:100F300002037B60124B9A697B689A4202D0104A86
:100F40007B6893617B6823F001037B600D4B1B681A
:100F50000D4A934203D97B6843F004037B60084A3F
:100F60007B68936100BF3B685A1E3A60002BFAD140
:100F70000C37BD465DF8047B704700BF40420F0050
:100F800000000540881B021AFF2C310180B58AB091
:100F900000AFB9607A603B600346FB73FB7B184689
:100FA00000F0F2F9F8617B68B3F1FF3F51D07A6845
:100FB000FB69B2FBF3F37B62F869796ABA683B6854
:100FC000FFF724FFB8617B6A01337B62F869796AB5
:100FD000BA683B68FFF71AFF7861BB69002B0CD039
:100FE0007B69002B09D17B6A013B7B62FB7B184646
:100FF000796A00F05FF8034658E0BB69002B09D11D
:101000007B69002B06D0FB7B1846796A00F052F80A
:1010100003464BE0BB69002B1BD07B69002B18D02B
:101020007A68BB69D21A79697B68CB1A9A4209D966
:101030007B6A013B7B62FB7B1846796A00F03AF8D9
:10104000034633E0FB7B1846796A00F033F8034629
:101050002CE0BA68FB69B2FBF3F37B623A68FB6988
:10106000B2FBF3F33B6100233B62F869796ABA682B
:101070003B68FFF7CBFEB861BB69002B01D07B6AF0
:101080003B627A6A3B699A4204D300BF3B6A002BF9
:101090000BD003E07B6A01337B62E6E7FB7B1846FB
:1010A000396A00F007F8034600E0002318462837A5
:1010B000BD4680BD80B58AB000AF03463960FB7184
:1010C000FA23FB60FB79184600F05EF9B861002353
:1010D0007B6100233B6100237B6201233B62304B39
:1010E0005B6CFB61BB693A6802FB03F3BB613B6865
:1010F000013B7B61FB6923F0F853FB61FB791B0625
:101100001A46FB691343FB61FA69264B1340FB61E6
:10111000BB69254A93421CD805E07B6A01337B6298
:101120003B6A5B003B623B6ABA6902FB03F35B000C
:101130001D4A9342F1D97B691A043B691B031A4388
:101140007B6A1B021A43FB69134343F04003FB61B4
:1011500015E0BB69154A93420DD87B691A043B69B7
:101160001B031A437B6A1B021A43FB69134343F0B8
:10117000C003FB6103E000F07BF800230BE0084AAA
:10118000FB6923F00103536400BFFB685A1EFA6039
:10119000002BFAD1BB6918462837BD4680BD00BF79
:1011A000000005403DCC00FFFF5E4C09FFCF12134D
:1011B00080B58CB000AF2C4B5B6CFB62FB6A1B0EE6
:1011C000DBB203F00F03DBB2184600F0DDF8B862C3
:1011D000264A3B1D10681860234B1B6C03F001036B
:1011E000002B01D100233BE0FB6A1B0CDBB27B62CE
:1011F000FB6A1B0B03F003033B62FB6A1B0A03F051
:101200000303FB61FB6ADB0903F00103BB61FB6ABB
:101210009B0903F001037B617B6A01333B613B6AFD
:101220000133FB603A1DFB6913441B78BB60BB694B
:10123000002B02D17B69002B07D0BA6AFB68B2FB96
:10124000F3F33A6902FB03F30AE0BB685B003A6917
:10125000B2FBF3F3B96AFA68B1FBF2F202FB03F3F3
:1012600018463037BD4680BD000005405C1C021AA0
:1012700080B400AF044A044B5B6C43F00103536439
:10128000BD465DF8047B70470000054080B485B022
:1012900000AF03463A60FB710B46BB711A4AFB79FB
:1012A000123352F82330FB603B68013B3B60BB7953
:1012B000112B1CD0FB79154AD35C9B0043F0F853EB
:1012C00043F00103DB431A46FB681340FB600E4802
:1012D000FB79BA7912061146FA6811433A6892000E
:1012E0000A4342F40062123340F8232007E0064923
:1012F000FB79FA6842F00102123341F823201437D7
:10130000BD465DF8047B704700000540601C021A72
:1013100080B485B000AF0346FB710C4AFB791233F1
:1013200052F82330FB60FB6803F00103002B01D06F
:10133000112305E0FB681B0EDBB203F01F03DBB2D9
:1013400018461437BD465DF8047B70470000054021
:1013500080B483B000AF0346FB71094AFB791233B6
:1013600052F823309B08DAB2FB790649CB5C134074
:10137000DBB218460C37BD465DF8047B704700BFF2
:1013800000000540601C021A80B584B000AF03461F
:10139000FB710023FB60FB79112B00F2808001A21E
:1013A00052F823F0ED13021AF513021AFB13021A76
:1013B0001114021A2B14021A9F14021A3314021A5F
:1013C0003B14021A4314021A4B14021A9F14021AF5
:1013D0009F14021A5314021A6114021A6F14021A8B
:1013E0007D14021A8B14021A9914021A4FF4004346
:1013F000FB6055E02D4BFB6052E02D4BD3F82C31B8
:1014000003F00703042B02D02A4BFB6048E047E0BF
:10141000274BD3F82C3103F00703042B02D0254BC4
:10142000FB603DE0244BFB603AE0244B1B68FB6013
:1014300036E0234B1B68FB6032E0224B1B68FB60ED
:101440002EE0204B5B68FB602AE0FFF7B1FEF860FE
:1014500026E0FB7918460021FFF7FCFCF8601FE04E
:10146000FB7918460121FFF7F5FCF86018E0FB79DD
:1014700018460221FFF7EEFCF86011E0FB791846F0
:101480000321FFF7E7FCF8600AE0FB791846042126
:10149000FFF7E0FCF86003E00023FB6000E000BF22
:1014A000FB6818461037BD4680BD00BF001BB70063
:1014B0000030044040787D0180F0FA02841B021A5B
:1014C000881B021A0000001080B582B000AF0346EE
:1014D000FB71FB79184600F075F803461846FFF7D4
:1014E00053FF034618460837BD4680BD90B484B00C
:1014F00000AF0446084611461A462346FB710346D0
:10150000BB710B467B7113463B711D4AFB79163349
:101510009B0013445B68FB60FB791B2B22D8BB79D3
:10152000112B28D0FA68174B1340FB607B79002BF6
:1015300003D0FB6843F40063FB603B79002B03D0CE
:10154000FB6843F00103FB60BB791B061A46FB688E
:101550001343FB600A4AFB7916339B001344FA6875
:101560005A6008E00649FB79FA6842F00102163336
:101570009B000B445A601037BD4690BC704700BFBB
:1015800000000540FEF7FFE080B483B000AF0346E3
:10159000FB71FB791B2B0ED80948F979084AFB79B6
:1015A00016339B0013445B6823F0010201F116031C
:1015B0009B0003445A600C37BD465DF8047B7047BE
:1015C0000000054080B485B000AF0346FB71FB7995
:1015D0001B2B01D9112313E00C4AFB7916339B0016
:1015E00013445B68FB60FB6803F00103002B01D030
:1015F000112305E0FB681B0EDBB203F01F03DBB217
:1016000018461437BD465DF8047B7047000005405E
:1016100080B485B000AF3B600346FB800B467B7116
:1016200013463B710123FB607B79002B03D0FB68E1
:1016300043F00203FB603B79002B03D0FB6843F0CF
:101640000403FB603B68022B03D1FB6843F02003DB
:10165000FB60FB88B3F5A17F08D30A49FB88A3F59B
:10166000A1732033FA6841F8332005E00649FB886E
:101670002033FA6841F833201437BD465DF8047B07
:10168000704700BF002005400010054080B586B0BF
:1016900000AF0346FB80FB88B3F5A17F08D31B4A4C
:1016A000FB88A3F5A173203352F833307B6105E04A
:1016B000174AFB88203352F833307B617B6903F093
:1016C0000103002B1BD0FB881846FFF7E3FB034602
:1016D000FB72FB7A1846FFF7F7FEF8607B695B093F
:1016E00003F00703002B02D101233B6101E0022339
:1016F0003B61FA683B69B2FBF3F3FB6001E0002356
:10170000FB60FB6818461837BD4680BD00200540C9
:101710000010054080B485B000AF03463A60FB710D
:101720000B46BB713B681B68FA7912061343FB60DA
:10173000144ABB791B0113441833FA689A601149A3
:10174000BB793A68526802331B010B445A600D4959
:10175000BB793A68926802331B010B449A60BB79EB
:10176000012B03D1074A3B68DB68D363BB793A6836
:101770001269054941F823201437BD465DF8047B02
:10178000704700BF000005400000001080B483B027
:1017900000AF0346FB710949FB790848FA79120149
:1017A00002441832926822F001021B010B441833E4
:1017B0009A600C37BD465DF8047B70470000054019
:1017C00080B489B000AF164BFB61164BBB61164B62
:1017D0007B610023FB74BB691B68BB607B691B6872
:1017E0007B60BB68114A934205D17B68104A9342E3
:1017F00001D1012300E00023FB74FB7C002B09D006
:10180000FB691B68FB60FB6843F47003FB60FA68CC
:10181000FB691A602437BD465DF8047B704700BF42
:1018200088ED00E040EF00E044EF00E021001110FF
:101830001100001180B483B000AF78600C37BD4652
:101840005DF8047B704700BF80B485B000AFF860DE
:10185000B96011461A460B46FB711346BB71BB7942
:10186000002B12D0FB68BA6802F5006253F8222000
:10187000FB79012101FA03F342EA0301FB68BA682C
:1018800002F5006243F8221012E0FB68BA6802F524
:10189000006253F82220FB79012101FA03F3DB43B4
:1018A00002EA0301FB68BA6802F5006243F82210FD
:1018B0001437BD465DF8047B704700BF90B585B016
:1018C00000AF03463960FB711346BB71FB79062BF1
:1018D00001D1FFF723FBFB790420194601220023E5
:1018E000FFF704FE3B681F4A93420CD9FB79184668
:1018F0001D491C4A1B4BFFF749FB0420092101220B
:101900000023FFF7F3FD194B1B68FA7910461946BF
:101910003A683B68FFF73AFBBB79002B1ED00023E7
:10192000FB6018E0124AFB6812F82300104AFB68BB
:101930009B00134459780E4AFB689B0013449C7823
:101940000B4AFB689B001344DB782246FFF7CEFD71
:10195000FB680133FB60FB68112BE3D91437BD46EC
:1019600090BD00BF80778E06001BB700881B021A4F
:10197000681C021A80B500AF062002490122FFF759
:101980009DFF80BD00CB280C80B483B000AF786091
:101990007B680022DA650C37BD465DF8047B704732
:1019A00080B483B000AF786039607B683A689A6031
:1019B0000C37BD465DF8047B704700BF80B483B030
:1019C00000AF786039607B683A68DA600C37BD46F2
:1019D0005DF8047B704700BF80B483B000AF7860CF
:1019E0007B68DB6843F080027B68DA600C37BD46B9
:1019F0005DF8047B704700BF80B483B000AF7860AF
:101A00007B68DB6823F080027B68DA600C37BD46B8
:101A10005DF8047B704700BF80B483B000AF78608E
:101A20000B46FB701346BB70FA787B681A60BA7875
:101A30007B685A600C37BD465DF8047B704700BF79
:101A400080B485B000AF78607B680E4A934202D1C3
:101A5000A223FB810FE07B680B4A934202D1A123B2
:101A6000FB8108E07B68094A934202D18223FB8113
:101A700001E08123FB81FB8918461437BD465DF8E0
:101A8000047B704700200C4000100C4000200840F0
:101A900080B584B000AF78607868FFF7D1FF034667
:101AA0001846012101220123FFF7B2FD78680721C2
:101AB000FFF776FF7868FFF767FF7B6800225A60C0
:101AC0007B680022DA607B6800221A627B68002251
:101AD000DA647B6800225A657B6800221A657B689D
:101AE000094A934205D17B6800221A617B689B6991
:101AF000FB6078680321FFF761FF7B6810229A6220
:101B00001037BD4680BD00BF0020084080B586B0BC
:101B100000AF786039607868FFF792FF0346184697
:101B2000FFF7B4FD78613B681B017A69B2FBF3F300
:101B30003B613B691B0AFB60FB681B023A69D31AD5
:101B4000BB607868FFF748FFBB68DAB2FB68DBB2BE
:101B5000786811461A46FFF75FFF7868FFF74CFF79
:101B60007A693B69B2FBF3F318461837BD4680BD6E
:101B7000FEF7C6BB060606060604040418191A1B5F
:101B80001C0C0D0E00000000001BB7000803010034
:101B9000070301000B0E0100140D01001A080100DB
:101BA0001B0D01000303F3000304F3000305F3001E
:101BB0000306F3000307F3000308F3000113F0002A
:101BC0000200B7000111F3000001B6000112B300DA
:101BD0000114B3000110F700010FF3000000F20040
:101BE0000000F0000001F5000002F4000003F50021
:101BF000000005000A002000240009004000400009
:101C000005006000A6000400C000C3000200E00060
:101C1000E000010000010001030020012001060096
:101C2000400140010C0042014201190062016201C1
:101C30001300820182011200A201A2011100C2015F
:101C4000C2011000E201E2010F00020202020E00D6
:101C5000220222020D00230223021C0001020408BA
:101C6000030F0F0FFF000000000101000909010030
:101C70000A0901000107010102090100060901002A
:101C80000C0901010D0901000E0901000F090100F5
:101C900010090100110901001209010013090100D6
:101CA00014110100191101001A1101001B1101008A
:040000051A02035D7B
:00000001FF
