:020000041A02DE
:100000000080001079E3071AF501021AFD01021AB7
:100010000502021A0D02021A1502021A000000005F
:100020000000000000000000EFBEADDE1D02021A5D
:100030002502021A000000002D02021A3502021ADF
:100040003D02021A3D02021A3D02021A000000009F
:100050003D02021A3D02021A3D02021A3D02021A34
:100060003D02021A3D02021A3D02021A3D02021A24
:100070003D02021A3D02021A3D02021A3D02021A14
:100080003D02021A3D02021A3D02021A3D02021A04
:100090003D02021A3D02021A3D02021A3D02021AF4
:1000A0003D02021A3D02021A3D02021A3D02021AE4
:1000B0003D02021A3D02021A3D02021A3D02021AD4
:1000C0003D02021A3D02021A3D02021A3D02021AC4
:1000D0003D02021A3D02021A3D02021A3D02021AB4
:1000E0003D02021A3D02021A3D02021A3D02021AA4
:1000F000000000003D02021A3D02021A3D02021AEF
:10010000000000003D02021A3D02021A3D02021ADE
:100110003D02021A8CFC071A0000001000000000CB
:100120008CFC071A00000810000000008CFC071A65
:1001300000000020000000008CFC071A0080002056
:10014000000000008CFC071A00C000200000000026
:10015000000000100C00000000000810000000006B
:1001600000000020000000000080002000000000CF
:1001700000C000200000000080B489B000AFF8602B
:10018000B9607A60BB68FB61FB68BB6100237B617F
:100190000AE0FB691A1DFA61BA69111DB96112689A
:1001A0001A607B6904337B617A697B689A42F0D379
:1001B0002437BD465DF8047B704700BF80B485B02E
:1001C00000AF786039607B68FB600023BB6007E0AC
:1001D000FB681A1DFA6000221A60BB680433BB601A
:1001E000BA683B689A42F3D31437BD465DF8047B86
:1001F000704700BF80B400AFFEE700BF80B400AF1F
:10020000FEE700BF80B400AFFEE700BF80B400AFE0
:10021000FEE700BF80B400AFFEE700BF80B400AFD0
:10022000FEE700BF80B400AFFEE700BF80B400AFC0
:10023000FEE700BF80B400AFFEE700BF80B400AFB0
:10024000FEE700BFFFFFFFFFFFFFFFFFFFFFFFFF16
:10025000FFFFFFFFFFFFFFFFFFFFFFFFFFFFFFFFAE
:10026000FFFFFFFFFFFFFFFFFFFFFFFFFFFFFFFF9E
:10027000FFFFFFFFFFFFFFFFFFFFFFFFFFFFFFFF8E
:10028000FFFFFFFFFFFFFFFFFFFFFFFFFFFFFFFF7E
:10029000FFFFFFFFFFFFFFFFFFFFFFFFFFFFFFFF6E
:1002A000FFFFFFFFFFFFFFFFFFFFFFFFFFFFFFFF5E
:1002B000FFFFFFFFFFFFFFFFFFFFFFFFFFFFFFFF4E
:1002C000FFFFFFFFFFFFFFFFFFFFFFFFFFFFFFFF3E
:1002D000FFFFFFFFFFFFFFFFFFFFFFFFFFFFFFFF2E
:1002E000FFFFFFFFFFFFFFFFFFFFFFFFFFFFFFFF1E
:1002F000FFFFFFFFFFFFFFFFFFFFFFFFFFFFFFFF0E
:100300008C91D26E97C349AF06901113EC040C7315
:10031000ADC55F82648C604D633AD879EC2F2A5862
:10032000B2A070388F725DB65B213D9E6CD6A4A6DC
:10033000635DCE161DCD92FF31840B5DEBCFC2D72E
:1003400065B8614C93D3E43B68A827434FC1E08C68
:100350009531168E61143AE40D70070A6700CB8C54
:100360005E6539B47558128F7893AD75A64FB06F2E
:10037000A37EC7B9B93376517E7C3E23CCDAD368ED
:10038000DD9AE4E9882C163D1E8616CE67C53EBE72
:10039000BF9766E83811D32AEFE835F81AEFC39E05
:1003A000BF44970B6AC7E777678A9B321DA8EAB9F3
:1003B0003E80633473EB2FCBC7BAF9A0F71E232F0F
:1003C000C2770E222D3353F8B0EF80AE76A00D47E2
:1003D000FE7CBA998B8F2AD314CC43B0CD477F498A
:1003E000676B70A599C78B0B2C6A83836B8154272D
:1003F000ACB2A27A6489A3334D3B0D60EFA32B69A5
:100400006F36470A3067AD36F0AE6D200BA76893A4
:10041000781C031AA405E4DDC83C585EBA2B1C897D
:100420003F1914343A49F745046C8AB51B8327A554
:10043000D37AE8D3A011C46A516942F30F4F7BC548
:1004400092E4E1F19333592E24BE15387B2FC24438
:1004500014B28A404348E92D55A9E2D0060436B5C6
:10046000F0C42337A136129F20B9AEE1FB8BEF22F7
:10047000A7FDDE5CC43B8249FBB39CE95188282080
:10048000886048B60B8AA3DE9FEB1F899A0731C9A3
:10049000BABF290825D9F0B542D93CED99294E9823
:1004A000918D599B4338161C5AFFBCD91CF8AFF3E9
:1004B00082D32F915F1FFAAE6F9374324EB544769C
:1004C0009D86F80CAD958581A80CAE251D17984921
:1004D0002A486BC6FABC397293AB2CB0C4E4CEA5E3
:1004E000BB463B95FFA246EC4DADE85270D4915708
:1004F000FA2B0805497D7BE04D86790269D5BCC49D
:100500003D086AD6DC034987027F794CD3E701BEF8
:1005100019D4B599DBC95B3DCA5A48792943827819
:10052000F02414686ABA7BF6E18102CA042F0C66D3
:1005300085BAE8941F23E874AD2C0C81BBD05DBE56
:10054000FC015BAFD299545E59BEB75AC691399B34
:100550004DE1F36E5AED58CD3BA0BB3DAEFA3B11D9
:100560002344CD03D35D93EC66893B616B8EAE1B58
:10057000F37133D9DCEE640EA88E7432DE16B05FF0
:1005800083A63782C435C7F04E0708D0B2F661ACF7
:10059000F29F4A3DC6613534DFBE5A45E8610E50D0
:1005A000D9DBDDC4562B57BDA9438BD4E6935CB28F
:1005B0002CC7403ECB7398227102A205DB8208ED66
:1005C000F9B7F7D6199C55C6478C9383D5604D4C27
:1005D00062A8182021CF846642BA53548951E2267A
:1005E0003A9EDB2E9C85988F7179F63EDF154C1173
:1005F000B555A3326AE7CC293390945E49013DF6A4
:10060000AA6D4837851EB0DD1089AEA7D846872D64
:100610006E429E33AEB0BC53D2B1FB0BF139457084
:100620003C009472CD148B96A5C622E1382450EC80
:100630000966F007620948FAB0F465D323A5EBD642
:10064000433E6AD8B1155F59B6088EE78DDB1AAD07
:10065000600E018A493E0D32B89AC1D8AEB7720019
:10066000DA4B9DFABA783BF40696505A7B606CD50B
:10067000D9B87314A3618D0431371F175387AAFEAD
:10068000958E0D413D20F3E8D30D83B2EEB3B758FC
:100690002DECFEF6445E5C78BE99C8825823A17F9B
:1006A000EC51C4ED532A97B8C58B4096DEDB167D1E
:1006B00080C7E96788B4B937319483A357708FB086
:1006C0006C03C59CEFCA0403544530B91EC69AE3B7
:1006D000834B01903939F637978DBBBEA7F3615430
:1006E000FB902ADA15798EB5C3E612428300196AA7
:1006F000FA9F200C6EFE76320C8E04620E455B6112
:10070000E4DCBD8E9CBFCE0ABC4CCD5327B4B3975E
:100710007350C407D354E5FD19F7CE87742CA77D19
:100720008AB15EA7428BCE3AD116502230230A58A6
:10073000DA6DEEBD81538D90F6C074A4F147958FAC
:10074000A550C876550C55E8828A36BD03C2CCF553
:10075000ED75AC073EE9FB3623CDB0811629488AFA
:1007600080C17DE05B9302CD17053BF61DD08C3434
:10077000F47FB77C9A8D50BB549153885BD3D25889
:1007800041AB3C4244EB9A5972DEEF39AD05185249
:10079000407C8C9672CCF0F370C28BC9407A724464
:1007A00032E2B572944AEF08E55D09BB9E170D4F22
:1007B000780147DF473BE574BB48D18260D019F729
:1007C0006CAB06CB50A6BDF68D83B115C23454591F
:1007D000B43C513F3392FDF7FC40B74B786CA81501
:1007E00044114EF21042FFD1435052C38AD0B18619
:1007F000F378CE237EDAC4DAAE0FCE0FEF717D2010
:10080000DA9CD0B1E56248713C7FFBE240396C2B49
:100810008E3057FF9D84966A4D74440174EFE2D286
:10082000D231E8EDFF00A091305DE6FFDEE1997482
:10083000A2A281BF197D8356066663711D46FC4DD9
:100840009C290F0F517E2C8D8FC6CF409E968B6BAF
:10085000DAD05ED26E23B854AD92E7999C2F74EA39
:10086000609962B4D18A232376F32F53AE43B770D5
:10087000DBF7964DE72ADE7971BA61BF9792F06097
:1008800051E4DF0433D69A50AD3B5B7BF464A66A37
:10089000DA77BEA598270235BBE9431629638CE3B6
:1008A00002CE02C963B33C045D469FACCE63850CA7
:1008B00014F6E420D44BC829E2A9494A9383274976
:1008C000AE78792562DC07263AB9475287556758D2
:1008D000633701327F6C0EB606D8E7B96AF271D978
:1008E0001F56FD56E95FA938EFBDE51A0475A28CC5
:1008F00042F1E65B81F4C94269C21F8AF54DBC48EA
:10090000486D333057116E048EC943C186F4B290DE
:10091000355A76780C15582A8CBAEC26401E43A11D
:10092000019CD1964271353183E1CDB8B008BB75D9
:10093000108E549AD7433B331508A49D2447C36FA8
:1009400085A2C0E9221B4EC42545F52A479F79841C
:10095000FE7616B1CAA8CABD619E8039CD980C3BFF
:100960001D5E320E47D253F53F9075914D10EB75D9
:100970008F1F9EAE3112A5DDD80288849A15F78D9F
:1009800038BA0CE96D6B3C2C2320713933386F5029
:10099000B20AAAADF95E0A0BB955364549CF5A2AB3
:1009A00099E8599304020823E3718A10A06BA99F68
:1009B0009238D18F6A4993DAAF01301734F7E35494
:1009C000C647A04BDFDC4CB00286CA88D3F96B4D1A
:1009D000AB96B210FDCABF4F547EE302D1F1EFEBEC
:1009E0008D364A58CA5EC0B6EC218DE47F0A06B641
:1009F00095E26C9E45D257FB8751F660F849DE11AF
:100A000097DEFB9DAF12824DD6FB24DC3DDBD04A46
:100A1000782D6DEE8451A6BADF4ED079685FBDA205
:100A2000427C4DA00F6806825F1FC749AE7ABEACFC
:100A300081ABE7CBDCF08C463840BE604209E476FF
:100A40003D8199C08D2F3B1026EA8E65895C0C6430
:100A50009023F8BC78F1C652F00667CEAAA640569D
:100A60003A510B2CE1FD1E5170D7A5F16126BDDC7A
:100A70003459CF1E1128FE4BBB47D086C76D657F0A
:100A8000A9382B3750E0839205A64BA04CD5F1CA6C
:100A9000498B9A50D622451153C070992D978903DE
:100AA00071254729FA858B53D63D186ADC5DFFE630
:100AB00056053D3BD215A987F21AE4906FE9646DA3
:100AC0001C482E278DC7CFC40046799909DA34F621
:100AD000C08A43285A4D305C7CC036E0A1FBE4ED6F
:100AE000D8AB4D942ED8588E36783B8C9C107D1800
:100AF000E5EDCFE4A53C12CE17D2ABCC91EE2305A9
:100B0000628BC05D8D9FC7E832B5F1E212A4BF6B66
:100B1000431EFBB32BFF489C997E7D5B2D8CFC47CD
:100B2000553629104F1F8A4526E6B2F04B30BC736C
:100B3000133F8973F36FD9634224C40E226BBBA5A4
:100B4000B8AA8CDC7AAE1C2393B58C444C585169FE
:100B5000C20948ED028953E55CC6CE2A5B7C22BA05
:100B60002B0C37A0A3DFF8642265DF3EE29516EA7E
:100B7000D35A4C1823CDA32E56A780B4E0F1C81742
:100B800093D2194020B0C6E211E3CB9CA91502C64E
:100B9000AFE357003009965D69084AFC5F44833132
:100BA0009DC8AB107CD6C9239469073F02068540D7
:100BB000A4B904FC9AC7E6893BBBD61865CA83CDA5
:100BC0005F9AFEE06AF24AD91A346CC602575A623A
:100BD000830957A53F8797D6E221D4C0FFB1BDCA8C
:100BE000E539DF6807A4D6B26F2BE2665A1F87E4A7
:100BF0006073945B72DE8DD80328FE481D8AD96924
:100C000076A2E1C877F25BDE33A53514A4317CC24D
:100C10009AF05F8C1C625707AC0765DFA58E94E5E0
:100C20005179EFB73EBE6C6E18B528CCA87933D297
:100C3000AB3CAD2C2A4D4C134BD91C708D7B39A588
:100C40001050C32B41C583DB83F07366398A5F3252
:100C5000D3933469E068BA032CDB6C65A2FBE19C9A
:100C60007C83BC57B60790E6B9D1A83ADAE5DAC07A
:100C70007AE99DF947D0C4A896BFFE65581E398809
:100C80000FD6EAB6CE077CCB024DAF0EBF80294708
:100C900001ACEAB95EE755ACBE13C1F6092B8D9BDA
:100CA00098202A03FB23F2736DD1F7F920B6E915DA
:100CB00095B763AC33802927813DF8BA4585C2D604
:100CC000BF14759E55264BDEB9774C8CEF5B8C07B5
:100CD0002AAB6051C8E16718F70281BD2A372DE7BA
:100CE0000F213A0B404AC06F6B84F2BC349C38260B
:100CF000B1F18F9925700DDEAD5DA752A48EB38240
:100D000049647CCE2080C6DFEBF1E643EEABE45ACB
:100D1000CA5A0C39A794C29F135B5EE3A36DCADD68
:100D2000D17073CF1F6905312AB0AE3489CAEF0282
:100D3000784C884A827ADAB4A2DDBBC522E33C7ED5
:100D40002609727E37153A6055DA0FF7E68E154898
:100D50006C5C6A56E5805A5695BE2C42AE400F47F1
:100D600073300D805771CA631127F4A76AE2CE145D
:100D7000C77259C578E598A5AE1BE879E8F7B214B3
:100D8000CBC884B68095F1FA910745BE8BB3EBB220
:100D9000EF177B3CE749CE8E9768D13B88507A1A93
:100DA00074E0DBA25E189431805E3370A0DA19FB28
:100DB0002F3589D17C752D82F9F51E17C3B5724187
:100DC0008D2A49ABD84954D7834ABB88155EEDBDFF
:100DD0004ED60C52C6A99EFEB258A968F97C6DCBBE
:100DE000EBF2E275906D22E6E1B24E31BAA46D9B52
:100DF0000861C8EDA9207AE48C4AF97FA0EBDD06F2
:100E0000DCEF9D227B782CE1B32570145A6C440DE5
:100E1000EB0E6098B48022CA78FEE84574A346F6CB
:100E2000D54755CA074A1F8F35E73983B0668920F1
:100E300006EC93918A45525BCDD2AA7C8FE66D1069
:100E4000DE7A3E13167905A1EED062CC479E1A12C7
:100E500074C73E870FB46B8FF5F9FD359FA3FF4E26
:100E60007A29A43627760A8CE6F2A3B9E285142EF5
:100E7000B79807C8A7E5002A0EAF1D1C7CD0014B10
:100E8000D114521EFAE4EBFEBDB2A11D10B2AD703A
:100E9000E4CE7D079B37A695287A277859ED101662
:100EA000F058E8CD33F634D2AD090AF543E3195CC6
:100EB00002AC38AE52F9B0996EBCF57FBC72A5CFCA
:100EC000A28B2CB8C9DF3DED9AAB5A912DB051459C
:100ED00061CB75ACB562C3F7A84F5F7601B4153A24
:100EE000633A53B8B66092226F4A13A79E1E6CBE37
:100EF0006BB01EF1FCF91A40C735107A80C6ECE6DB
:100F000095202DF25C998E0039533C6B4E1B588A0C
:100F1000E3A00B5096243D6A2013F0815018A2A83C
:100F20005D2D127DF07961D1211DB7A9BDAFF1AC66
:100F3000DC8596DFBB9C4F70E3C3D148A90DAF2081
:100F4000B0930D2009DB99693F392E786C93AD7110
:100F50002244A5CA81C2EDC1DDA19A2DA81828148A
:100F60006D96F829A1D0A201EC2DA0826DD7035077
:100F70001560266567E59FEEA64C4367406CC12669
:100F8000111A0AD59A83CF51A1A3DE53226B5405BF
:100F90009E4A1747F1C2AC88F70A83558D3AC07F45
:100FA0006C7A7052CD2DB59290D5C3C4064BCB3B15
:100FB000F83DC9F6557A344F6D81DE90007AC367EB
:100FC000E35FE7A8FA0138709484B61CFEE882ABB0
:100FD0003F485C5070C929F24521E54B4F259116D9
:100FE000115CE0A6642340F6045962D0C318508413
:100FF000FF3350B71D73F61935F562D91BED206F1D
:10100000F2A00AA208DB471B07654B1767582E2D75
:10101000D1604C1CD4DAF89E66C6716EC067DB16D0
:1010200038F2DD230DAD7C23EC34AFB727DEB2DC24
:10103000C63507BBA1049A18A76C3B416AD85BA0D0
:101040008A34DE747B0B1F23E328309F2A40768787
:101050001494A88B5F20753458C47BA1723BB914DB
:10106000D90F2DF3003D61BB15E4D778D4FBEE67B3
:10107000F6B32CD52FCF416ABEA91CB68F7EB1A87E
:101080006F1CC61A138287D732EC767A49FD605CF2
:10109000D614AABE0EE3E409CDC2345620AB2C967A
:1010A000332E08B835D354732C55A24359C621C1E9
:1010B00049BFDF7BD3F3998C37BC4D504E30B68798
:1010C000C0E0471AF4A72702C03791B940A0B00684
:1010D000A1720C60CBB1C23F947C8078860324FB64
:1010E0009E1B82797F06CCA198DDBA9C61E04C966C
:1010F0000C46AEDB2456BC0F1D07857827AF7CBCA1
:1011000012951A241D36879AA56AC8EEF625DEB414
:101110002FE96C3F5549D7485F735B7781547AE973
:1011200061FE8ACBC62778D6BF1435B98DCE19F8A3
:1011300029D1483D433C67C9BED1C5AADA0F195130
:10114000F0DF8CF89B12ED0870968041131DBB9167
:101150005A634EAF0B3CA52496C10DF461CEFBAF94
:10116000FAE4C9AE41205C16E340CDADBC26B5A083
:1011700016344F76C16945B3396861DA05F9A6A21C
:101180009AD0462E540C50390737CCCB6FF8687084
:101190000B6CDE2D7E84EE909E1674D8BF8210EA12
:1011A0009A2A12EBDF874B09E4166F899D7A434038
:1011B00000F0CF981A782315E2B5903E977779849E
:1011C00027E13045E67C908420D448681565F323F8
:1011D000D334D8CEB377D02107FC0929F60D716C32
:1011E0009CEA62BB49FD5A835F4A78452FBB007D6C
:1011F000C26C6A639EABD1AF110F3DE972668D126E
:1012000063DBCC2A0237D9D5DA546E68FF8AF14CF9
:10121000FC8C6789A30ECEF119B3AA3AC07010F8FE
:10122000BD65E253EED67A8B939589493C68AF87CA
:101230001DF1EDE6FF036F540DDB104F8C9F156918
:101240004475AA9AA89D5D2512DCF60D8584B4B07C
:1012500003231CCE822AF9B9F58D4613C52AFEF365
:10126000801F05C6BD15DE8093C8D4230C62CF89CC
:10127000265F4C698246E7197CF1A41A57495FE75B
:10128000DD028D667EEEF2ED449C3BBA56D5AD9301
:10129000BDBCED66DE94713A38EB49CC71C4284987
:1012A00068EC4509D4690B376C5E24E50B2CC3A6AA
:1012B00043105C9B5CF9094891532D92A4267C80D5
:1012C00073F1526990A3BE54B0B6F97F708B2F0BA7
:1012D00028A38860678DED6EE2FD78813B799246A8
:1012E000E2A47219D95916A05108EAA6FF8AD805B6
:1012F00024226A019D1B19E603E387932A3D1937CF
:1013000023B29CCB191532CE8CE80E5EA2476F58E3
:1013100024725D190E90A9C68B8B16F6D2837514B4
:10132000EFB3824CED0CEC0FEF9B75B50DBA43BBE0
:10133000742E6EB8DFFF289209D6408DFE3BFC0963
:1013400072F96FEFC4226A17864E29731BF4B9D065
:10135000475A82A314BD35EF8AF04317CC5E10B410
:101360009F6C42134A54F752C3563190D6B5771545
:101370001C7045A3B958F4B5C48065D4DF534B271E
:101380003D75D3AFB1A686F36330E0BE8BA418D40D
:10139000782DFB5C186DFA47778D4ECAEF2273707B
:1013A0000B095261E1C76376E9523F8977362920FC
:1013B00067905BB158EF0FD07A8C372457BC03414C
:1013C000BC6FB28151B7F3B1C98472C62D71CF41E0
:1013D000632E625FC6C1181BFA82E754903F1F2D2F
:1013E0004EFECC0883A7CEAF9CAAE7D37D48A308C6
:1013F000BDF5C12859A47AFB579787CFD09F208A83
:101400006544772FA5C7BEBB60B2C21BD9449EB14D
:10141000DEDE979A7DF7D4A983D0B0EB20FFDFFD05
:10142000895D6E39D17463F63605C8A7E25F211372
:10143000F9D5F0F207860C6D6FCDABD416D29B6058
:10144000D3C5917CD564E06A7BA063782F2DC72437
:10145000AF9DF24A0EEDF5035000C903C88EDF635D
:101460006967D31CCDA43D94F586766722943E42ED
:1014700006872579E05051E6CF8D2CD49BDDA1EC79
:10148000C1FF0FC759AA560A5F5D5587768EE1BC2A
:10149000C286FD406966831815ED4D3F7868F917DF
:1014A000E589A5228477E95B311A1A82FAC96F416E
:1014B000AC701214DF60835B7CF6B16B5D1791F644
:1014C000643DA2ECE8BF374A9CA20F4E4B011D4B76
:1014D0007E0C930855E43884064AA58EC57EFD1916
:1014E00089231DBC278258EC38C7773D51340F7BC8
:1014F000D865ED518489A080051EE69D19A8851E3A
:10150000A4F5C528E36124FBB3A6CF8E6CFA32D1D3
:101510003B2AB65F91AB95FF829DB7099CBBD290E9
:101520004259995B6FE6987741F19EDEBA12130B30
:10153000EB1461EFF2258DF960C6A645A91B5EF894
:10154000D33F4C1360D76255923E1E9F0DB6446F39
:101550008AAB1D8859E39D1CCCA0FAA94052CD2529
:1015600093A60A7BC600AA14B20C5DB307EDECA9E2
:101570008136BBFEFDD69FEFA12F46C0DCB9153FDB
:1015800071F80C66ACC9A9890008D64C86E914DE4E
:10159000B351270997CE27BC061AD996B9EA38F86D
:1015A000F71D420FE085FDB78D31FEF5005269B79A
:1015B0001B670C8B910BA7A2D04F6091EF12D01636
:1015C000D0DD5468A705FE2E53707C66D032BCB3C4
:1015D000B1227B51DDAD67EC769F3F91256CC87BD6
:1015E00061E82422FE00101669DE37218F41D29D6A
:1015F00092ACE0CD967E38237568F207C66C09E799
:10160000A80105E80E9AB5B01165E8FF75465C348F
:10161000CCA1FE798BFAE4E3AF01AD950E0850FC46
:10162000D450798E3CEA8FF8F62FBC319539AD2F26
:101630000BBD3A246E905BAD1C21380CEC1FA20848
:1016400015EB2A25CDCEF8E21205825C3EB34D752E
:10165000547D8A50CE2B8E44F4CB711AB1820BD6B6
:101660008DB31BAA0F87623CC55811690DFF6F69C6
:10167000D4C3B86F95523AE95DE530015DDE309034
:10168000F9ACCF8A97A265CC1B4D8A75192536F522
:101690005C0745EEC99C413A79314D295660DFE738
:1016A00027816F6130E4D2315DEB5348C7C4D03736
:1016B000AF3BA5559841C65C6A941065553C75BA18
:1016C0006DA34D97B5D5C577351491DE49F873B53F
:1016D00061157A1BBB8A4EE6BB12F69BD46CDC21EB
:1016E0007698DA23763881D9762D1F84B0E8137185
:1016F000215B043FC15AFFE35467DBA3DE29A2C884
:10170000376F68B01E4F3F2893A0A58D6ACA35D3A6
:10171000FE847A79689C5F1B99F7CF0E5CDEFB4CE8
:101720008A564C40806353D11BDBAB20B572788A5C
:101730003208A459AF29609A104C17278030CBB5D6
:10174000A55902147EF4539B31A85D8DF13F6627A5
:101750007E44DC5439A19C61F6B130334B2B51EB04
:101760000FF57A5C6F640B3DB4082806CCD3A9D082
:10177000E6F0A83B54777B04BCA11ECCC41F4F05E8
:1017800057717DFBC40AB71A389EA030799694230E
:10179000075F4D5B831596987A76A0CE463F799485
:1017A000B923AF5A55AE0CDB388E02B5D74A8B251C
:1017B0000CFAC464D2F48241DBE5804D6AE9D4F9C5
:1017C000250B7756E73ACE59527122F413E1C02F18
:1017D000EB7AC14B7A15C2C4A06D7F6F2DBF714FDC
:1017E000B90890CBD3343ED22C6B1161D18D2EF938
:1017F000255161EF27897E1049B3B579BA5E2B93E5
:10180000FFD33A0A51F45CB63BEF1E0F0361F213AB
:101810003F854ADB5D8227308A80821F7FC417CDD7
:101820003F7D61FE5223A830F5AAB3386A6F0CE8F9
:10183000C0A13A351450357DAB0A80D0723C377662
:10184000D850D085FFF4C01BDD19E6B3CEEFC61A21
:10185000739A5FDD8AE1B8EF48E35248A3D7BDB879
:10186000733D5F199E86E8CCE01F58FA6982AFBCD1
:1018700043655DD7DD59ECF697E13D1BA17877050F
:101880005C2E3F918FAC7CECB192FD6B89BD85C61F
:101890003496043E7AE5DB1A506982BD49CC2B6848
:1018A000A7529E3B421E2C97E970264A5B816CD959
:1018B0005B77E70A74398B76522540262ABEA3E56A
:1018C0006795C4371F4A83166A6C5409BF91BECF0F
:1018D000FCA862D1E520F36DC728E81DDD056D2A5F
:1018E000CC40E2C6BD35BA10F4D0A007E481B6C141
:1018F00066712A815CD1FF47A1566FF76265396432
:10190000FF293D7EAEF712C6ED51DD147FEC884510
:101910007126B76CDBEBCEFA419A2566C5C3AE8E55
:10192000973C08BB4437126E5F64940AF4EAC7B46C
:10193000CD29853BAECD89135B423D13D1AB002A47
:10194000A34F7D43E4CD013913480C7657C40656A6
:10195000D371989B3E72DFCAB3F46001F9FE9CB369
:10196000636A66A56D84D000284B2766C012BC96BA
:101970003CE740601264EB316FB290EF6D003F15B1
:10198000AB5813EC5D61E84EA09873F24A790AA057
:1019900038C9C512BE3CA1FF7E3535BBF4E09327A4
:1019A0000B12BA67FFCF39DAFEF2BF7AF0F9E7F52A
:1019B000A8EFB7A33B2D566FB7146E282B2D5AC036
:1019C000044CE737BFA2A16890EA13CB7C270E85B1
:1019D0004E40120428EFECDDBB4AAFEB6011AFD1F3
:1019E00098FF75A412AF35054E4E13501A8AF39026
:1019F00005E9DAEB1A5597155F097B74F2B6077E95
:101A00003B42337DB169729E0A0DB6DADB9CC3306E
:101A1000571FE57737C4B6426760450934C112974E
:101A2000479414D75775DE9C763BE00D9EBD39C3B5
:101A3000454A1CD3D09047778BF1155124696A49E8
:101A4000FA1F924787EBD9E2404900FBE3A8A4AA1A
:101A50002681C3E9A43FC7B64C9D4B65608D770CCA
:101A6000D196137F2AF23B59703A92878F4C93E3B9
:101A70004C6A2BA2A580A4BA57DBFAEA9F7381B304
:101A8000D2F42A4C94258034466A786AAC40270008
:101A9000096819F662D46650F258274EF851B9FC1D
:101AA000B9DFB59B22464F27EAF65C3B073A0E1793
:101AB000B4F9E0375A8A51FD8DD95A3BFD313BF4D8
:101AC000B07BB0CD8B8BDEC219F10B6B782B48B796
:101AD0004A109AFE7081A22E8DB70E48EC1329B8D9
:101AE000BA678A8B8A408C281B1D1E687FE6856238
:101AF00091A3F1ED973D832FD9823FD37D95D606F3
:101B0000C753B010A0BC2D0A8371E3536339AFA74C
:101B100032ACB748223C217DE45BB20700B8AA860C
:101B20004718A02B3574C1D476E669265A30CBA06D
:101B3000D298A0D1DD8EE38B32322B440A2509CA1C
:101B4000C65C0B4B988371BEEAE3D23BD2FA23B357
:101B50009012346818D9A8B83415F903487CCA50D3
:101B6000DC9F5FFD2480074F26E2E6FABCA8B93768
:101B70000F78B4F8F0A1B2EDB3531683896E756D8A
:101B800019815E339B258F100AE54235F2AEFC8B3E
:101B90005BC2F4D0C8D1603BEC7249D16983C5B750
:101BA0006D79E03A49869BE9E9A4ED0B5F7DFA0483
:101BB000568B27C77AA4A54721234629DBBDA686D5
:101BC0001F8AC879CEC142D5260AE724E454DB6FC8
:101BD00077447BDE5CFE3CC8D49919253F720D2BFF
:101BE000FD66EBD5B48136944852A06FBD8063CCBE
:101BF00048D7B19642C82A214DFFA534A81D96B4F6
:101C0000FDBC267D6906BAF50EE6950A5DCD0B533F
:101C1000354CDC67C076E8353CC987B4DC02EC2B78
:101C2000BBEC72015AE663421CBC885B3220C48064
:101C3000F452FE5B402FF387D3F1419F7E05190CD0
:101C4000FA6A4E705A09F84FE99A4A04ED8C021B61
:101C50000507C08A0390EA8CF9EB2D68A4C4C3176A
:101C6000A37C61C8D15425EA59AF71A5E4EF994628
:101C7000EF259977458E086A7FC2776FDC8FAB2599
:101C8000D73361702B3A49B1E1D531541E45A709CC
:101C900051E7797E2A4BD11473F7480FDCB50EC992
:101CA000034CCDB08E281BB4DCE8956F5DB44B3A85
:101CB0001A6D1EF4162CFB8B614CFC33F13AD42CBC
:101CC000C76750D277F67B28CBC4A241B561B7BFB6
:101CD000AC0DF46F9719B3D751414E412CE7C2A216
:101CE0001469A8F56479C223F1F5285189B9D600A1
:101CF000953D87E4456594ADB4788035A73AFCE41A
:101D000001002D4BB9C15A324AD07DA1F0614D97E7
:101D10006B4EABEE5FDE5CAFD4FB40EBF88D7CB678
:101D2000F9444F898C8A46D3E2559974E7F3BC5342
:101D30002AE8C9598E0E8522A37D76BE806E39BDF4
:101D400054C6A8AC11C30BE108D80B0A45E8C8E19A
:101D50003EEDC010C32228EBBE2DE60E1388527351
:101D60001BDB20204B0F4167DDE850B6027BDCBB5C
:101D7000B5957F93AE29F9319EBCEDE4DDFCCD7FB6
:101D80008597EE6AC7A8962EAC5933DBD171E8432C
:101D9000502B597E09BFC5F2E2EE818E225C89E0AC
:101DA0001BD1316A8C72F30DFE50E754F51E5F2C87
:101DB000D4A994B1A34E76C5D1FC87D826070C4F81
:101DC000CF52BF00407DB6DD384C7FB8D871FCC320
:101DD0008F55BA78C8D83DCC5A6B9890EA1AE6F677
:101DE000449784A35E5FEB56F3B77856CFBEED60A1
:101DF000FFC449D14D9387F715F3A5D4E426F21E0D
:101E000065887340ED59652F696385105FE6FD9C19
:101E10007E389026D015A9B0108D8D6BB91771CC76
:101E2000C55AF1464BAD73A65F1A68EA0E76972E37
:101E3000F50856AC95CB4D50DFC22F60CBF97651EB
:101E4000F2B84B04F5B651D1C5E9C7B6ACBEA299FC
:101E5000F55F76B0C0C536F90CA067887D13DB65E9
:101E6000A416F8562B92393EB785E7AC0497A42008
:101E700020956A6C83C5912D8152F7544FC953B197
:101E80000E611295C64B6E622537F93BDD8AF475FB
:101E9000FC4667E8A86FE2DE85CBD4D89AE4EFEE83
:101EA00031359DA2850E5AD42607464CCC554FF7A6
:101EB0005D825709616B089E7F3310FB7796C8409F
:101EC000480A09A7EC52F0EEEC93C1A02896122F15
:101ED0007BDD7B188DE58DC62CFF2351FD5E5D906B
:101EE0003F0504C14CA70A0B92691DCDA96876E88D
:101EF00020E0809A1AAFB3627D427BED2E9EF08D7A
:101F0000353161239251E3D3D3708524C8BF1DC4FA
:101F1000893A311DDEC3758F52A143092C1CDCF4B4
:101F2000788F9778075256CFFDACC7AA2A8F99BDF4
:101F300025B664F36CD3AF72BBD1D1F00DDAA7B67E
:101F40009391AB3927A4BD36E4611F32FCCA65C248
:101F50000886E375B8E887A4E025BC358166C2220F
:101F600004101699E3609681F92E0F0BB37D76F07D
:101F70006B0EE887F632FEAB09075802E887B47E9D
:101F80009FFC2DEBB4CCDFA7EF627C89D97CF0639A
:101F9000AECBCA737D3A2CD2126B8FDC079398714B
:101FA0007A906BB64F8B3C9F2F409794B574D28C30
:101FB00016F5541CBD400064D05BD8493C029F5CC0
:101FC000C90A0F48103A13228F2B443CA3971C9E3A
:101FD0009802C6113F7CB4399006E6F4B3F3622C44
:101FE000A03BCBAA648A7CDCE2318D91FCC3C13971
:101FF0003E39B0393C8E1C4D56D6B709541F6F9BE5
:10200000C8189B68CB723A0E86E92F0DEE223CCCA5
:1020100045ACB5794228EF121E7E548DD27288C22B
:10202000C1F1C8E427586DCBFFA2B3525E0E5E33F8
:1020300099EBC4A769F659A02889494D1EAC3C14F8
:10204000616D4CFC5A58A4ED3EE979A0759CB41022
:102050001F20F3E6AEE058CB9828BB9E0F1FAD5370
:10206000669EF1F0C262D94147D6687F7DB92A8C5D
:10207000D4392EFDB8556680148064319D05DD1F6E
:102080003C253AD7ABC34DBD47B29FD778D84EDF7A
:10209000FD2FCAD5F1B09B103770DB42FDA7A441DC
:1020A000F94943577E53E011EB71B605B58F083CF3
:1020B0003185336D3B072E8B8A299F3AE70BBF9FF3
:1020C0000E5DDD2F94F760AA4EB9EA7FFA955AA803
:1020D000679F1078743606F11AB8CC55B3A529E07D
:1020E000B216F758B1D9A73A24881F821DAE91F5D0
:1020F000CFF6D348FB462AD757EC14DC2B0BF6A8B7
:102100008F09CCE39D02F78EF8D554EB1783D36B80
:1021100027D686BDD2E1E46CEB1F00C4C5CA0F19F7
:102120009276F214E1AD57CCFF455025F23FC0D373
:1021300019A8B5548539D6AE2460F77E0132C82D72
:10214000C53A59A091BF89797EB9BD8D91BF79AC4F
:102150005E2DAB1C15BB9458A044EF81B6D9CACDF7
:102160007C235FB7E620425A1E3BD5CB7B481D65DA
:10217000E74B1FD487AB170AA600FF4CD008C3A5B6
:10218000EEF0116E5FC2C63EEA51FED9E5C8DC58DA
:1021900027899A6ABAF545D00B5510E521F58A15BD
:1021A0007830DC8B37AE062484E1EA36AD3D24DEA0
:1021B00023A725466E58EAF8AB406209B1E01DF549
:1021C000C6E861B5EB5120788275E6D90B0F22CDB8
:1021D0003032C179CF43A61F45E3DFF64CFC73A331
:1021E000C4F46FC4DC6FF2D186ADC3F97211ED9BFC
:1021F0001E95D97E1EA3258341417007722A2C8526
:1022000001421417A05EF0C140F0F3227FADAD3360
:10221000F644D8B723F58520CEEC829BFEEB5F5BBE
:10222000803DF730FCD6FBBFA4173E2EAF030394CE
:10223000933C102D5275620CBDF348B4DB55C2556A
:102240009097A141B57D36204818120BB75671CB37
:10225000E8EE07C1DA31090BDBEB72088E47E34E7B
:1022600055E99D1861C1DE1606F0E43962565566DF
:10227000827CCBED4D007A5E8D9666CA0A2D920166
:1022800034C4B6CDB8586A260FF1BBEA4DD0A88445
:10229000960C86117BF600546E3F8ACA5B140BD8ED
:1022A0005DE3049EA087AE2911A5DE5C449011BDBC
:1022B000EDE134FEA780853EC3625F79CE9FCAFA06
:1022C000E5E38C69CB0AE40E5D5C00D618A40FDD53
:1022D0002DCCDD7AE00D30DD5EC6DA3D27345B7251
:1022E000DAE3776104A7F2E2FC25A04B80AE261E5C
:1022F00052814C02C24F1AD7B3AE0B052FA6E62966
:10230000008EFB342DAED985DAFA7EBA6DE45DAF6E
:102310009FBCEBA6E858AF8BC89FAD559CECB3555E
:102320003E774AF2B3F1F1A4A7C628C8D15F6ACEBE
:10233000515C6573BB4040A8DE706C8D0084E9ED94
:1023400047297BF69A6AFBAECA46FE2230E6BA6996
:1023500035DF0340863F99FE36A213438564A323ED
:10236000DD3A81A8E37434E660B7A975421E77F7B9
:10237000B602582180A866078F7DBFF757B8286539
:10238000A2DA44F6651185C0AA1CDFCF9524BC17DC
:102390002B1B8C820C82A234D4791866B43C8FA794
:1023A0008E43D267D98192A47D977663C997716B6A
:1023B000C0A8CC3B2BA65920371021EBF91F0C6D80
:1023C0008D38405251553DAA88E805750B3F6B3C4E
:1023D00007ADA50C70537BE8EAB22FC95FA6AA5DD2
:1023E0008A08D690561F1A6B6A22B343A0E414F8E9
:1023F000A5E5E34C7AFFFD3ABC57679E25744AE198
:102400003DA8EA0268DAE5E89239A24EA03848060B
:102410009E36247AC35EE38B0B9CD4FEB77B45F6D5
:10242000D7D105F8F9118FCAFFFBB9405DAF998488
:102430000F6100EF4FD01EDEC55FF7CC06E6301708
:10244000F3AB76CE324F0C8CA6597AC7A5A22D5B82
:10245000024FEF567B56A606B226339A1AC2C4180C
:10246000CBA24DB138CA52BF557348F655573922E1
:10247000319BCAB7F7DA9B9D056F1C0B1C7172E389
:102480009462FB03547B2337FC2F00080EB0B15B32
:10249000ED10697FF80D20F106B0ACC9AE46A3E49B
:1024A000016461F25B36CEB57893BAC8D9938F5484
:1024B000BEC11D0C08F2EB87420AFCA4CF5A88B5B6
:1024C0008C1C06A94EBEFFB742B40665535817735D
:1024D00021570AED2996DB0E78DAB0503929E51E2E
:1024E0000A043CBD8CE50600C166CA54EB8633EA9B
:1024F000F38983774F9B8CF540F830740DAE7D18CF
:10250000CEE85A4F1B5AE63B51092BC2CC8722F228
:10251000A6C65DB0A66ECE6E77467C94B491F313DA
:10252000E8B185032BE4CE98A247264670CA28B8A6
:10253000D53ECE4750CD72601AECD8D4DD5287BF5D
:102540001618D91A011FC6C1F7C50D5E4788FEAD22
:102550001EC4BE75C2ABC21B3F25E83F0CF9BB4F82
:10256000C0662F58F00EB6B6780C4F8BBF14189279
:10257000EE2AB6189412FC6A55BEDADC3686B5FE31
:1025800009BD9EE058A5BD0F0D07FCB65C365C2B5F
:102590000D5651E142A2BBAD69C4023133DA7FF17D
:1025A00057508201753739486DA70A8C15460E1FA2
:1025B00062AFCEE035D3BC6602F07793A38BDC33F9
:1025C000870B5E0BB45AB5D51C09739B972E9822C6
:1025D000B6E3CF830B9FBC84941BFF85C0A6A5E206
:1025E000CAD7050AE8036A07FAF9C42B5F20CED3DD
:1025F0005754DDBFBC5827E84EDA76995B30157624
:102600006391D0C0298E3AB278C78912DB912474C5
:102610004C2B2D6BC8E52672AF1DBB0E8CD1ABC900
:10262000E44DC7CE500EA9C81A2A46F4CE150CBDEB
:10263000B5024D3002A9AD7E6B5E100CD22B26A7E1
:102640001CBF2E8DC956233D8165519D9E31A39A95
:1026500010FE5989837BC73A9F4962F2FE9DF5EED1
:10266000049ED80EE77FF45EDE0FAE9D5810E03971
:10267000BA75FCD4D29C24A0F8F3ED7FF3313EE48C
:102680006F6299FF5994B3900AFAAB74CD2AE28F26
:1026900069293788A0211C677A3716F391746BACCF
:1026A000D0C92EF677E0E025C26BC9D8F1AFD3CD03
:1026B000115E16CAFAB6434D453184217EC0FF959E
:1026C0008EFEA303FCEB17884912C635574376CB21
:1026D0006449E1335EA0B21A85E0B0465CBEA70251
:1026E0006C3349F20BD0D125468D81E8EF0EF50110
:1026F000BAB9BD35DECB37ED4B897D1B3BD12C8A7A
:102700006AC4C823FA83BF9477BCEDD01FCA2B7765
:10271000EAAE8BA3017223A1FC5BA68252B5EA74D8
:1027200061F67D2A45D10736F929BD21DE67CE81C4
:102730005E06318C458989F8A027279EDC3C41C282
:10274000D1786E294C003118A754A9D8B501C3948B
:102750008D25244C845D2FD86D858A1EAA6959BDAC
:10276000E7FA5065F8A5345ED518E5F0E0B1429E71
:10277000649310B718F53E744996BCC775136E3E46
:10278000FBECF0BAB15D9BE8F0C6766B783EF7BB28
:1027900042EBB91658A2A4F2BCDB1C61E86CE8C29B
:1027A000A9A7F5F4C088EC07F728C6527ED2FC0A28
:1027B0009F0084895957E55847FEFED6413AFF836A
:1027C000DDB4C1D04903FBBAFFB11F30DB5273E95E
:1027D000DF11C2E8E85E6851C19CACC28A16C6BD72
:1027E000284274CA112BC19B04CA8AA738B57DF54B
:1027F0008B14F72F77169B7F4B6F0FAC573930E850
:10280000EB620798DDA8D8B35027E31DD3C0190B9E
:102810001FB737751F964511A7F57EA11B1544CB31
:102820009AA1BBD6ADE418E23C43DF50337EAB8ABD
:1028300056038DA002BAC9551CF6F1E72A37973A1C
:10284000E318833104425D3A9F5439DBB7F5DE2843
:1028500049F44A1887A4C9DFD866BAB7F330B80478
:10286000ABA46C1BFA7A8514A65200AD81EE9D26AE
:1028700018C89D35ED7FB33F4EA3599E88A6476E7D
:102880009C342F1288C32DCF6E357235A31C5EE9A0
:10289000C9939F2A9282172BF12DCC5720E78CFFEA
:1028A0000B92104CBE8A9E549ACEC7B70D7D9C31B8
:1028B000456FD4F4071CDC1A1D03215AF6D6AF86E7
:1028C000A97229110C122B3EF54A8FC3BB601E73EF
:1028D000919A11B01297F8EEB5F52FBA69435EC31D
:1028E0001E400D9B548A25334496FFBD8D185FBC56
:1028F000E5AEC85BC5FE74117A3A5B17E270D4B1DD
:10290000EBCBA47A52831E0675DE6C7B983A619CF1
:102910009572D4BB7A02FE20CBFB201A2F0E50D327
:10292000C24DD1C173E469628FC1E6E791F8793F86
:10293000D8BF81709B1936E9CC84AE576204D76743
:102940008D99B94B699F28B108722CB81C178FD389
:1029500082E0416F8DDF37A816E7F4EF3512FF8A6A
:10296000EA7F59F83E2ED63996CF6829ED7ECDB54F
:10297000F4DBD581C368D9AE62113481AB387BF505
:1029800073A1CE9DBE9795530A08D8BD770EBB980C
:102990001A3FFA5A3D7DC682A5AB962DF9548D5D3E
:1029A0005372B54BAF2FF65D458177BB8F1C365305
:1029B000559B666B3E21B8F6DA4CF813016859B6A0
:1029C0007A7B6A045870E9EB489D14BB060BF288C9
:1029D0007442D75EED221F32BABF706237E35CDD0E
:1029E00027C04114B231FAE4B27B22A10DFCF0CF32
:1029F000596F9EBE90FBC8575B374A990086B364F7
:102A000040379345CADED64247F2AB72FF7E25BD02
:102A1000CFA008C8449D4C2CF8E9B87AE661E42CB4
:102A2000C8BD60D568AA057B985C779D505658DD77
:102A3000128DCA5F7DEA20A2EA674DE0265C5BE664
:102A40000E7EA9411D4F54249B8D30E826AFDBA19B
:102A500091DB67599685AEDD9DBEEB015C24553C4C
:102A600000908FD1AC16BFC338A5C4F0BA377C3AFA
:102A70008BAC4F4AF4024F89D0CBA35F6353C87627
:102A800038F3E8951F0AF47A1BA320F0C0BE236632
:102A900041B075B0D50A47FE400601E1736060E5BC
:102AA000DD4DB7C64EE61B81B7D52E51E15EC8128B
:102AB000A83C1DB2DD17A12DACE95519091307BBC0
:102AC000433A1373065C175B95F3F9FFDBF61CE1E1
:102AD0003DEE383642AD07C6AB891A64900178A343
:102AE000CD730EA64B540B4B25C11DE91EA152B64A
:102AF000CD73DB1ADAD17895334DC77C41B2CA94D5
:102B00007B553268E87696E9E3EC1080901EA80ABF
:102B10003764971D255EC8FCFA7873FE8D8E0972A6
:102B2000F6886EC86FE9CE56DDF236EDC0F70515B2
:102B3000A4BD45DD1AAD6F1D8C356E6F02975C54D8
:102B4000E39E8A07AFDF9A4D96413F3227DA3C0277
:102B5000725E59CF492C574919503B3A7B5E534618
:102B600096E20A216DFE65C422F747D96D3CF6B1A5
:102B7000F86BFDA43D8C0AB64640ED5EA460D238E9
:102B8000EDF99C44D01A9474F994AD52E57DDBDDE7
:102B90005A89410F60AF080AD753DA2D100620C2B8
:102BA000250EEC74A0B1E1DED789ABA8DFB8D1C99E
:102BB0006510041A1FC2D73EF0916D7C3F6763F227
:102BC00073EB2CD691673CA8A86238D7035F2A1E06
:102BD0008211C7000106A26336AD830E44659E6F65
:102BE00025B834F48BFB37FED35B72BC89003A9175
:102BF000664EF92E9F63F06D48C99FE3E32E644251
:102C0000C4C8B14A2B369387DAC92CA694E6D936C4
:102C100073F2A7F66B70D0C2C7C7ABC25B531AA5DD
:102C2000F72FF7C04EEF6530BB7253D6364AD862E5
:102C3000EF6870F1866ED654F8EE83638BD02B87E5
:102C4000AE87AE65EE19E7838C773BF81CFA8C7D76
:102C5000EE49D2F2E2291E8958A3C85F6C01A5EAA9
:102C600047CC27AE9B7373D681EC640F33DE38FEFE
:102C700062057541FD38A48569250C4B5087178A7C
:102C8000D250B14FD2DDE17AD6FC71F5C40F557A3E
:102C90006BC9FD668C63EC0E28A14575672885F924
:102CA000D5DA3CE22CE82B8424FA6B01C7AEC1597B
:102CB000CF91E0878AB0FE6E64A32731986B13AD85
:102CC000777820E9D2734D829E794292F8EB467A6A
:102CD000DFEBA5D548FE6F25DCCD7D89C0FAECB8C9
:102CE000E6BD894F8ED7865C445DE8116E6B7678C1
:102CF0005CAD51ACC53E657909FA0D05F5C4C2A3BA
:102D00008D89AB3B61F7EB07654991EB155DB670BB
:102D100057042C13A93FF3A857104693CA81667F26
:102D20009B4583E5BF3A1765C149477CAD7A63ABE4
:102D3000449DADF097AEFA4D9503E350B0583DE396
:102D4000E3114FD0DAD1B01CEDC75160F876FADD4F
:102D5000AD9B4F2DD375E8EC4B364FBB57C6B469CE
:102D60000B63989B2A93D172EC9103D05C99551F09
:102D70000906A3150910106D296384A381F4C526E3
:102D800012E85494DD5EB219CADC404171178FB16C
:102D9000E030B251239F5FFB522A72C60E2DF0F72E
:102DA000CCDCBD7445C141AA53894B2CCFCEFC115C
:102DB000D3D3C35142740373885941B2ECEC0B9CDA
:102DC000EB4975955A1B6B1FEF08FD9953322B8405
:102DD0002E61F23A6A9FB557D949EBEC7F8EBE67F8
:102DE0007DAE41865867B6B867A3623976691F56CB
:102DF0002DBD848AF9D0324C941EBB10307FA06167
:102E00004A961BA5F1A52BC7AA3AD3C63C7BE16F16
:102E10002995BEC10A336EAD7BF5F13AABA688E7C2
:102E20000301EFDF4D7A648892BCE0BEFD6C0F19A0
:102E30003D4CE69AC1DE5616286E2AFCB3F01C0300
:102E4000B1EBC33B8B0121AF30362F4D52AFAF0EEC
:102E5000E5D8FD5EBFED2624AAD8B7DE5068D4A120
:102E60009FDC0D12A9D38D3C2A376A8BAF09C47938
:102E7000BF1B16DBF3BD44C3C49E91B349425FC779
:102E8000618DAE76A29D65114AC13488829B74A182
:102E9000143E1F3552F8ADE198494D0B42DAF2E786
:102EA000D7A329215A4ED722B504903289BB412994
:102EB00029EF9E0B232A7469DFCCDD584F5ACF705F
:102EC000CE4CB0DF715246C667FD7F4E687B57DC43
:102ED0000724E1523BE6C4AD2FC0428E707ED25B28
:102EE000351F633D0A62B7D6A9D8A426AA26006476
:102EF0007500502B787C35E78703AFB110B855E8E3
:102F00002A231948181AD2A56C0AA962429E0209FE
:102F1000BFDE196F2DA7E2B8E97BB507B206C5F190
:102F200082BBFB860CB84B5A2EABBF6ED2D3A5E941
:102F300000A6F1329FE6BB8241605E9C64CBF365E4
:102F400044B8DF86A27CFC0692BE4182E874E51696
:102F5000D5CC060C1493529C007845AC5AAFF6635E
:102F6000B759291AF31E4684A9EAA0E0A5399ACDDB
:102F70007A47C697C4E751B1654386293650ACE31A
:102F8000C7DECA8F4ACB23B786826229F271F7C6A1
:102F9000DE773112E85E9ED00877B4AF981C4D59A9
:102FA0003EBD18C66E0B82AF240F11428427BEF4BB
:102FB0004CBF4BBE1F9AFB693FF987D216731F6A3D
:102FC0003409EB35583057D3F582EED84D5B4BE0E2
:102FD000B9C063D8D08E39A3C2AF867583AF98B01D
:102FE000F0A70D7B3B899B1B6777C99CAB221BE33A
:102FF000AEA61956104699A6CF4773A8A9E24F4529
:10300000E93EE8A64ECFA53024477059C49CF89FEE
:1030100094A3C7DD9642A0A90D67ACF315F27285A3
:103020002883B36D3A7595DE00E931C8D640E132A8
:103030004FD314061B71AFA79D3E98E722B21A31F9
:10304000D5EB3040E98A651F0DE8DDAC10D7D3CD54
:10305000857AA341DE6C69B6D40CCFFBDCADBB4EE8
:10306000CF00F3EA0FA048C56EF5F833940296C678
:103070006BCA61A80ED8536882796CDDBA6A425F68
:103080002D8FDD10E3E8BEE532DDD3E9733622D2C1
:1030900075098F114C133FF6AC8A6895346B0B049D
:1030A000B29805052485E3830C7C7631056AF54BDF
:1030B000579967B1DA3113194FE763587F28B0C6C3
:1030C000D2CE36DA301DAEF0250B04CF9C0EF04286
:1030D000951D3E9A045A298185ECB53C228A04E468
:1030E000CCAF5E36331A1B3AEB768BCF2C447C4147
:1030F000F620C361E915C277A5B455446771CE9B2C
:10310000062003EDAFBA0F7A0104AF8DCF5A5540B8
:103110006F744601C6A2FAB6EDE7917EC5D6D27AA3
:10312000A8EFC80C418F913C114960E56634A84A6C
:103130005F15D5F32BCDD464254CFFC82890B52A54
:103140003234E4DF9248FFDFE209EF7D42154FB8E9
:103150003E461FB001DE4FDB1B63E7F48FC91480CE
:103160009335B33150C9B81615F51022DD5621102C
:10317000FC478AE171052953E509C42E610A4F19FC
:10318000F46FE90D611E68748E089A0CCE2DFEC492
:1031900041D6F8483E320F8E0B604C47048AB50B7F
:1031A000A5F62D6E6D14AEDEDF1553696A1D84B869
:1031B0000A00EC8A1207DAC2605B0100D2217003B8
:1031C000528E66D70090572D27196929DEA523EE68
:1031D000DC933C049D2AF99E1C6A0E1113AD0CBEB3
:1031E000A54F16DCB6ACB87AA9BF62F89EB0E4BAB7
:1031F0003712243EE46B662894C7BB9582451A7A41
:103200000CAA848E8E47382FDAC25BDEC700006BB3
:103210008553DA0089CED939E9ED47EFF122F76419
:10322000A4E8ECF32C562BEFDAF5632210886194B6
:10323000C7500F2E6A1AF03ED04AA4A000483DB7EE
:10324000CAF739DE140C3E2F27EB25936AB72961A4
:103250008CB327A113C9F98AF8AD22E2B18AEF91A4
:10326000B8AC57194E837FBB11DF067FF45DD419CC
:103270002143144C219CA401FDAFE666E95C7E9DD0
:10328000FB94DBBE60101209336C8F33C27A969ABE
:10329000D909C06D76A2701B07551C9F9C19D1B42B
:1032A0006169835F8216B810300A19B50C713F82CC
:1032B000184B8DE09B11265924BFB60AF4736C1A83
:1032C0009ADAD258F73618C350AF3C6B89BA0F96CA
:1032D000169986508BF1194F432A3BC25FAE1CBC36
:1032E0009DFF1A319FE78BE133CA8FEBD4BACF69C8
:1032F000B020F35AED1B8EA8C18214CDFB5563A2FA
:10330000937FCE8AA0DDF72F0EA51DC1622D7A888E
:103310005AD2123FBAC2CF8170716F1CD2BDE6DDA6
:1033200066EC5854EC45C8D229C44B48FECC4694B0
:10333000078B72294324E8D0AF4C192E6EDA5C500B
:10334000BE405B75D4259C14093F15F5768783A391
:103350002BDB14464BBC99420487A59F2C9A644EE4
:1033600067FB89BE71D0BFE1EF5D1F040EF25A28E2
:10337000C9750392C5160501A619714C80FDE86F49
:10338000DBC78E7BFEC5325A1B3257ED9D9533123B
:103390002D7CD6B696D18851F58717585F7360F1AA
:1033A00075B0284764DF290443A87693BF176411DA
:1033B000E55F1E032632D8093E3C8577ADD9FBA8D0
:1033C000D16577EC6CECAD4E53D272EE5AF591DECE
:1033D00022067300545DCB43D81E082759B25669A4
:1033E000ADCEC159A078A4F8B1D0B054BFEAAE496F
:1033F000ABA754A766FB54749A34144EE486F4A029
:103400007C08408C34383DAA627A4E83AC7683EED9
:103410006FBF7CB25DAF03B1794CBF6B6455132AAB
:10342000DB0FD8B7A922147269AA45EBACD0C82328
:10343000B125DE250A4243CD058E12E778D2450C30
:103440006724A79C9ECB444DAA0949B2691705A9D8
:10345000849BB93E77EE2099CC0BB21A102DF996C9
:1034600065388488282B85E5E1907B00F89063ED32
:10347000896963DD18079478040ED09319293D7D7E
:103480000FB24D31937D805816D45CE6731FA03B7C
:10349000A8C591A7C91C7D5DA40B841A5AF1CCB7AD
:1034A00053FDF1464231590CE80AC644AAAD05E481
:1034B0006D94EB539895B3F334F08D88F866FE2441
:1034C00007A593752E5AF9766B85BEBF5538B3F6AE
:1034D000059FACC606781FBD4AFD1152A4D11382C8
:1034E0000CA23D051A90B6129B74E812D7F39DFB0F
:1034F0003C968259B9381D8E85D52A3049A7D19A74
:10350000713CB3B3FBAEDB75E99A2A92900CE65797
:103510006015150E4FBAC8D484AE80456586C8F4D0
:10352000A34EA19A40E9008EBA0C6F1F0D8BFE7856
:10353000EED3CF3491C34AB774DF2F4D2E9610626D
:10354000D136EF416B4C1677148653424AA9C6F820
:10355000AF075791B69462DF03EA2661B9B36024DE
:10356000FC0C4DD69CBC0CA2BC581F0A70086CCA3F
:1035700018369D263F7EAC3CD40F3E8125B5BD61FB
:10358000262E453D5BEF5CF3FAB4D55D74576EFAB9
:103590007D5B48831639E57E6010028C7E8B7C074C
:1035A0009BBEE442C22E6E28D9A92B8AA84EC87CA5
:1035B000A04303CA6C394BEC48C7DD4BEDD0756FA7
:1035C00038CDC2B6732C384FED20A96C0E5BD511E7
:1035D0004886EB3A87B29A6173F7F9FA51233B09AF
:1035E00034BB51DA8B1108740BB4DD4C90DEDEED88
:1035F000F2CB0267E43AE8863361437C333DFDC990
:10360000E5A0375209FA86377D772FD2D44DD19471
:10361000190B088621D324FAD3CBA72ACE8C40CD10
:10362000B71367EFA68BE4F744CBE96D0B15B1E553
:1036300090AE62273477A8117C3D7E3D535C68F1E3
:1036400036611BC1E6E1ED8D27104156E9B6EEBEAD
:1036500019C1991F2919983F6B5673690DA6A4E8E3
:1036600062F837A9F9F0FFAFC1D50024365227C55B
:103670004EC02491C249C71DC9DC558F6D8480801E
:103680006C58F3F17F45C429C1EA5D5419740919D6
:103690002EAD1A4C82132618301AE01D9B70413D46
:1036A000547FB7DD5E364609FCFAD0D8EB7303547D
:1036B000D33B60C06933FE5832DAC06465A68D51D1
:1036C000A820FF99BC2BBBF867115087424D2DBD38
:1036D000168B4A5F0F81D320805FAB8375E1A355C2
:1036E0006D7F2FCB736997A880685858E37715E4EE
:1036F000AD024ED95C2E42274DDE195D7F378385A2
:103700006DFB1AC31E6249ACF3A2DFA6287B3D09FC
:1037100049C6D67293C9F93E3C077D95503A284870
:10372000E5D3EAE85C52C64BB9A2E5B94E9BFFD19E
:10373000A11014B86110F2A402DB8616E4B45CB9DF
:103740007996C1559155ACF7008AB9F1E33FEFA1E5
:1037500008ACF440256FE6D4E046E581CBAF6704C2
:10376000452C3FB7D9A9404B631DB7D65601C0C2FF
:10377000EBE40D38C01B940AB0ED744A6F2B2B514B
:1037800023B5ABB7FF38C85F6BA8DC08B80F7DDF87
:10379000862295E6A12F442A973507EB34F5DB38CE
:1037A000F166B3A15608C3B31CAECC173F8C52A030
:1037B0006F95C44C9545AFF4718020C930DD2A75F2
:1037C000CCA416515CDC887D5FE1CAF3622CEB0B64
:1037D000E3677C9F308FA2ABB7BE30D5E8F9833E5C
:1037E00084564A9A750043930D46EDB37BBC9144D1
:1037F0009514E6C8618B453D016A999DABB395650B
:103800005E8B6E0CE15095E223E891EAA1EF30FB6C
:103810002CEB3FD313BADDF9110D990B67A6E75ACC
:10382000B18755F04D8562457E03A578F95A9B1204
:103830003A9E70C073C151A4AD75FAD4B78A7B7D2E
:103840000137381A9A3FADA688FA5510156500B6AB
:103850007187D0C93527E6EF35B042D88B8E8EF30D
:10386000882776C1228177FAF0CA37796C418F4870
:103870007544622FBAB148DA5149E4E9FDD51BFA23
:103880006B6188EDEE3E94F00FD6D96BEF6D82F44C
:1038900021FA63462C5E39D6DF9C70D89C8EFD1AC7
:1038A000AE3D0D0AB9A15936AF7120E3D8DDEAE388
:1038B000C6F0C70372D4CD0D28B10E52CEBB5380D3
:1038C000D9BEBCB260783A80A02C97BA3E55FD02B2
:1038D000B18C12ACC7FAA7D96FFFE207930668F460
:1038E0001D9F0A1A2037834EB64762463D12CFD23B
:1038F000B40CA141A9A7B9DF16E343609532EC9A55
:10390000C3A29D9E4AE3E17909C3F67F97619B5C60
:103910003010538765264B75E62B033CF422B983A0
:103920005AC8829B753187D12A2737E5B13947B507
:1039300047E63084DF64359D5727B71EE0A485E74E
:103940000A7225CFDF00E7FE88825D3DEF65C4ACDB
:10395000E44EF50EF134A3F593E5434D7968F18516
:10396000A250DA3E1477D547FE31FC5D07F7ADF182
:10397000630A3A91AF76F5D6CF2F3CFABC998520F1
:1039800091D79A9E8B85986C78AD0FBF3846ED9B8A
:103990003752EA6E2E5FD62B5A036FE53BDB8A6502
:1039A000ACDBCC305C0F65DD72CD190167359E88CC
:1039B00041A0C26AAE16F231006F448716B2319C44
:1039C00022A9135C79BD3E27EC0DFB6045D4C324CE
:1039D00065E6A49A1820B695E99A2FEDCADEC7BF0E
:1039E0009C7DDFBD22420F83629A7DA11A91EC2C4F
:1039F000AB1F222F0E978302F37E72DF8D505C0E79
:103A0000453BC4C8F5060223D720387EA2147A5855
:103A1000AD0342ABBB97B105F9DDCAA4CF2FF611B8
:103A20003D6F5BDECD2437A41DFF58EE5F055FDEE2
:103A3000031A318A0EB152AE8ABFCE183C5E53A72C
:103A40002A264033B89B8B89CC9D8DBC3FC2A6F4FF
:103A50007DEBA0B5FE6B038C1CAD530D561E68BFED
:103A6000ABB0C438C52B26678EA8BE7024956EC82F
:103A700019DA9A50BD9EA9BE23B4160A487D33AD0B
:103A800035CE118FFD6D2E52C4392655AD93688702
:103A90003F8BF47B8417020D06051511151B1F11B2
:103AA00075113A5584DFCAABAB488B837754118FBD
:103AB0004C8FCBBC88B7281DCC0388F7581D3CA978
:103AC0001A14E09C58120260C049D03C8C7E95B21A
:103AD000F485C586506288BDE81D898156D2538D14
:103AE0000BE26962737537398C6AFC3FE6EB914DE6
:103AF0006DD603D258B658B88C22B33B888109EDF5
:103B0000F64231A915323F7F4E8BF9E56549D7FD65
:103B10008C3C137FCF80355489B1D650C1FCB10B9A
:103B2000600E49A3BAE7383B978484CCBD735242F8
:103B30004BB6AE4C6E8A1E750DDC1F645CEEBD523A
:103B4000DAED8456FF3342A404D8E84BFB6897169D
:103B50005F94040B4D649DD6F0D395DDC7D4DEA8E9
:103B6000C632F2CFEEFB421773094796A2D37AA46E
:103B7000450904C8E9B1047550AD662B9E64DD307B
:103B8000F93F84C876C7276351ED97441D07341D5C
:103B900059F098BECF16BF152E7C7F419517790E30
:103BA0002C179C624EB12E7DE2A177FC1AC05848BA
:103BB0007948D2ADCC1F61E2806F9AF947E6CE3AE0
:103BC000748917056AD1CEA7C21BDB2D9FC2FA6D7F
:103BD0002436C84C44CC420DB6BAE2DF173535FC6A
:103BE000D23C8890A853DEA7792AEAB0433342BD7D
:103BF000742CD4111D81F5A7460A4EB0EFEF908CBE
:103C0000E5DF5B623A6AC5D15820D319E192C983D6
:103C100077256BEA6024DE5047E04A9E042EB78A7F
:103C20009A5DCA63D8E0820A6703B8FCAEDCC6B40A
:103C300040CB38CA83A62CC1010A1B5A1F26CD2AA5
:103C400069487F83C766AA97A261825D6BE1A16A1A
:103C50001A965D38F5ED07F3310962CDC428EA40C4
:103C6000368E93665D42EDDA20A1272124CF5520C0
:103C700068B03F89C994347C418B52BE03DDD27A4F
:103C8000764126DD4D3B0DD7A8831754C5E5CF629D
:103C9000B3426414E86177A15A1725D1F02FD643B7
:103CA000CEADABE2A878D22CA268E0457DDFB65B52
:103CB000BBF00AC178BE9115C9858336163CE679FA
:103CC000ADD485173AEDB93B6F38717F8032247AD5
:103CD00060C915002414CA101B951822F59C16669D
:103CE000816698A8599E21CE36CE52404C119597A8
:103CF0006108D54D26E555980975FCA5D49646D2A0
:103D0000210BFE199A7B20C2A747CA55C18AC30A54
:103D1000FF81C1ECC7C83F9B11FF9FE4A27CFA9FC3
:103D2000887F1E41137BFDE6E812A6DF1BFFD67ECF
:103D3000B2F1A553D55A0B59CC62079ADB3C1F2A26
:103D40004C2ACD426B82F68484DA04B4225F80125E
:103D5000282032B0D7A6CA2E74C574B173620AACDB
:103D6000F37B92F13194122FFB20CFFA5556366C2B
:103D7000E2F571BA096E53A55F9FCEA60D451021DD
:103D8000CF57C1A7CC8EE1940D02B5B6D7CFD81DC1
:103D90008E08CE7EF050A28427EC9192C66C22B59C
:103DA00010AD2AFD958FA05314DDAD07B89CCD90C2
:103DB000C7B117057691307FB53C7FDFFD4FCEA1AF
:103DC000E0FFA62AA5DA87FF677B6A12A39BCB8B4D
:103DD0001F01CA14541D3F7E7CAB485910C056C405
:103DE0000F0B26B9F6A3EBEC29189DFB271DDC1958
:103DF00070F4C0FB84B94CC2C027ADF9912EEFA777
:103E000024A502977412947B16DDEB3C7F44575F28
:103E1000CE2EE81B005A4056BF63F8CFF6F15BFA8E
:103E200029F6D6811A45A55E6045E5A6CD0F437CEF
:103E3000D04E2B6346D3A7C965ACD7101AC48525CD
:103E400082F013896DD54488898ABBBB759A89AF86
:103E5000207BFFA7C5F8B4554F0C1C6E6D94439B97
:103E6000BFC023DCFCB90FFA0AA2D9BC17EB54CAB5
:103E70002228F09EC5DD5F8A3CBE3A61B9D51BF4AD
:103E80004620FBB576ACB3676C049D221EF83D63FB
:103E9000B7514B45A4A5D5E26099A03E7EAD413413
:103EA00087E475F6F09F5476748831C13F3D6B43CB
:103EB00080D7A96789D550A04B1854DC0C75E8BE93
:103EC000C3699A3982477218FDD5D01B7413A22397
:103ED0002D5CBEA704D9AAB294D5ABD74A776AFFA6
:103EE000A072FDD6A232C13864906AB305352B3773
:103EF0007631AFAFB641BAE9BEE8A5AD9B9ACD85A4
:103F00006BD07B0216CC80FB9B8542746FF6AC5F56
:103F1000A9736119C8BA495FB81317BA8C149DCA3E
:103F2000C3E44834B92921A9B0B31331FE457AC797
:103F30003B46032839B4BDB0871C4A02B4C66E871D
:103F4000E778B18BAE77A58051B76814A717607278
:103F500099507E461075900F2697AD9DDE1FF5EAAD
:103F6000448C498694EF18C3A082D6814BA8096F70
:103F7000BBD8686447277672E7A26416CA07A132E5
:103F8000C27DD01BCDDADDAA37BBA68E9E0EC37DC7
:103F90008E3DE106B791A31C15D69EF28A02F998D0
:103FA000E0A3BFCDD8EEA2E1FABE2C8C81E8D3D835
:103FB000DEE6878C259B7B31DAB305F63BEA1F35BD
:103FC000C10DADFB4FF6A5A09B000BF864179A2D11
:103FD00002C514A37A6C7345288DF325E8ABA610AF
:103FE0009EF7CA743BD888E841E7F1258F82CDC29D
:103FF00018D8F475D67CBA559967D2C1027FB8EF4C
:104000005AFB5A6C4D26F2293C2C61927A4DB6A689
:10401000C0300C10B73039213C74DAD306C6E5C184
:104020002F01CB93276075F2E6CA39AA1A27DA4B1B
:10403000B12C01D272A7382AC2382FD84B1E237553
:10404000469F637982227E60BB1A2AECF78F0715A0
:104050009A8E22D9C5134F87C8A1D1EE309CA7C72D
:10406000A6C3637AC461C98EADA117587D4C3232A4
:10407000311A3EBCFC49B03350DBB0E1518F2F1EEA
:10408000736245332C8D5038C5932C24FBF60A7C83
:104090006E9FBD165EEBCB5D132F29E8B0E73D1D8B
:1040A00072F9E51B06FE06A4C905F6681D8B375A92
:1040B000D13473B2D219BF8896E820FC636888DED9
:1040C000560EB20211EF766F98184C58F4633F8782
:1040D000F7CF167C738B4B58395C841DDD0940612A
:1040E0007D17110FD93548E2BE0319B9CD66933358
:1040F000A8990593510B6ACBC359C9B46A58918FDB
:10410000D7EADBDD5130ADC28733BE7072918BD2FE
:10411000C951754404AC0F71AD464C806C93786501
:10412000728AE1E28BB6E177EC420C1E4DFA58310F
:10413000CDF6EB19E24D8A2BDB69300BE42C56F3FC
:10414000BB58FDE8AFA9471370FD57C1A0F124B2D9
:10415000ED1AB375A85F8224FFB6072186D593BFF9
:10416000EC1962F4FC708223AFD7A8E5F5C98AE99F
:10417000457D1DCA79E04A5CD5D8E8F8A2258D9A1C
:104180006998D4868F2FB57D978FC6D0B69D2F3670
:104190002C1DDC08B7C8460BCE051F24878A8189F1
:1041A0004A0D7B5DF4045A15C8A033E91A7AA53884
:1041B000A9B2CC844884E2A152C9B8891091F50C07
:1041C0000E3C85A821D24227C3C74017955CF15405
:1041D00060E77AD5BEFC40C62ADA0B2B4BD10436F9
:1041E000AB26DADDF4FC16D770A4C18143CB0BF506
:1041F000D7642929161F4E12FCBF7E46C717DCF272
:10420000C2096C6E81145F63D0A365193ABF825FE7
:10421000CF1553E7A8DB208BD8C8E1347ECF1059E7
:10422000C7CFBE3A5F9C73C304C55873BA34D73D39
:104230003D1F77B1C3F549E7E9E096B9322BE400B9
:10424000930B526B0048FF32A190E2E282ADD0A303
:10425000F1A4F75F585E95D285D7507E05BA90D904
:10426000E158DFAEE26C3CF51F450F331367643C49
:1042700010F3C78E3384A834767FE528F8802CE7C6
:10428000FF08002ACD21C185670140124E62BF1D83
:1042900072136E12F202A55CB0AA38628614FD9EFB
:1042A0001828330A673A6FEF324227314495E514F4
:1042B000C0C7B6E41219F4FD62A47A22E85EFE5388
:1042C00004A2F9262EB4B638A47FE0B0DA73181A27
:1042D000C424A2BE5D188BFF3436A8C2C04C06D3DE
:1042E00043D42DA29BBFE50B117E4093394322EEB0
:1042F0008C5F5EC4BB40F5EC16FAF2F80CF377570E
:10430000790C6C0646757E053E97ADDFD7F8C5F093
:1043100013B93660ED411803DF408CA0CDEDFE1DD2
:1043200006E8192CD71CA716E05986249315141DEE
:104330003502E453BC176A37F4692706E9DE3750C3
:10434000988FD9EFDE9918F711207F94BAF370C9CE
:104350002B6E6BCB08AB60EF7EE2376EF4A12D02C3
:1043600021358C033C253E9BE9ED419C97D57C0192
:10437000F85DDA7A726C48EC2EEA70FC61AA027081
:10438000F37D7385676C8D062FCFE11A6AC458A838
:1043900065367596C6B290B4ECA0D451B4423A3E9C
:1043A000EBD1A91962F7998BD0D44BA28A2D816ADF
:1043B00092C7972B346BA940EDBE98C7983B51ED3F
:1043C00095A22F991B3E466D9CE9C6F267ED29BE6A
:1043D0001E69BFECAA0F0A7F27682CA35ED2F39454
:1043E000825D0CE8FEE84F5481298E4AA5B6D9FFBC
:1043F00094D9A92E7C65428698AF71B211A30FCAD9
:10440000F6327009E041C0351A6B6B8180BFDA71FA
:104410008E2C0E8529C4181C1A864F4F779C42DEBD
:104420001AC4547245CF1F5319731410F9C105D81B
:10443000D4FF24E49489A0311953EE5AF270BD7D63
:10444000288D66BC6A672BBE0DBB6BB5B0082359BF
:1044500080767A77785D4990232359F1E1C560A889
:10446000B597E76B5B496E6CD365D7D81EEA8111AF
:104470003095D97BF64605CB43D598470E39DD47B5
:104480005AC3FF1920B7FE37080DA3128671723880
:10449000A247C14CECE5B26F911C2785B0265E9A0D
:1044A000888F7D5AEB67F07896A173E8A2F244D228
:1044B0006360A5C678915B75119087048F7987E258
:1044C000AF098AF6F3174D3A5749B54A71C9CD9FDE
:1044D000D754224F809822F73408495BE0ECE81D5E
:1044E0001A903998674EDF4B126B6F2EDC10034722
:1044F000C2E72C3B56376117E793C2EACEF25A6AFD
:10450000609730E19034378975D73D1528F31A2329
:10451000050298F8BFADC6E22F22B1D48CF57C20FD
:104520001104CE44E022B68DB0A3C57FFA4CEEF460
:10453000789EE5CC5961AAB3D04DB16E8362FC8000
:104540005A1C042425D642E24B0A481CE747E8E2FD
:1045500033BD5CED0FB0C6AF5A1A749270480A4D65
:10456000A64525DE48CACEA15B02814F198ECB89B4
:1045700065CF3AC6060F70A95554C90A62AF7202D8
:1045800000FA75A2210A9969EEBA910C2F7795CBA2
:104590004FEA2DA00D434697D57C88F300C43FAB6E
:1045A000907E4E1E1829675B35D1D84C7D6379DE2D
:1045B000BFFEBB7782D1F5BCB4DECDA582A669294A
:1045C0007AE67CB12976B32583D16B3C6BFA1A71FC
:1045D00003A9340109C729BF89916A3A5CC2D98FFE
:1045E00067AED197E7C7B5484A95F4B065B851B9F9
:1045F000C45BA1D8726720B3BCBC28970B79C9C033
:10460000F8DCD4BD2982893BF4EBB773D37859D059
:1046100040B1760020011D008D1EDA2B9F1D3CD17C
:10462000CB34B889E4939041D266E486B0ACDF44E1
:104630006358565A02C99FF6BFD4300BA85E9BD66A
:10464000AEE5A79EBFD0ECAD20342DB91D964FE04E
:104650003E95C847C7E1CE0294C2CA0F63859874DD
:10466000CA0DD8CB054185926BA93ACD9BE5D928D7
:10467000844FCD1395540FCC16A50AFD05DC499B3C
:104680009CB9EE0FBE84DBFD1035DB1DA70167AEC4
:10469000E8A18A13B885DE76FE0BB45F36888D8F6D
:1046A000609E31E2F6CA6AFF74D0026079F2251585
:1046B0003D5B14635135E317DA7811B2D07BC688BD
:1046C000A74BBC08CF85B71D378B9FE8827EFC0CBB
:1046D000E69F22DA73293D2ABB1A087EB9B72FF864
:1046E000097AB82D351C45B8A3F62CC695FB945B0A
:1046F0007C04CC3159EB147E0E924CB57C39647F2E
:104700005BA7DE08C5CED6C95969367CFC7794C054
:1047100086AC01B4EBFE9F1D663A1FA2CF903B6AA8
:1047200092AD6AEE1C8C95AD2E02D7EFB4978297AE
:10473000FD8C2FD037B0945D07C0A18BAF34FAC881
:104740002ECCEA4E0CA5A4F9165486E826B069CE04
:10475000B788A443616B32E2190DE65BEA0AFDF902
:10476000080EC0E8AD338A58E835B9E329AB3657AF
:1047700057D3D3278FB767C39A0835FEBE480F0CAF
:10478000578CE018EF802084FD4C5B2CB14FB86E45
:10479000D78F041636D66A50A7FD4DA5FD8C999F7C
:1047A00025AC8B9DCA1E68D6B34F29425B3A114A8D
:1047B0004FC7272F44F9D680228F70F1327B867144
:1047C000B3BB0604C31BA3B9262D63E6AD27F56C66
:1047D000EB03553664695B2CD60B7B3BAD77A33777
:1047E000C8B78FA0330D8734246E091695EFD2FA1F
:1047F0009A03052F26500D4960DA2EB7A0670BAF3C
:10480000892B1EF5985438DE7B2012F6604496E61C
:104810003880A0AA71731177AA454059DECF94BCA5
:1048200062598D69D1DD6145CA26B4053E16E91B82
:1048300043477F1FC6613E151AA64B5214DFFFACDB
:104840008C559306B72D155B1F5BDF4ABF0B399460
:104850005C2416975074F5011B774E2A910E31EBAC
:10486000270879E883E263163223006B82F3560F40
:104870006DB7F6EFC9685B176091EB40DEEAC910CF
:1048800029F323B792501079C0FF642D74897F27D4
:10489000213FBDDA184122BEAC6188F1F7233848C8
:1048A00059EF428ED09E7C1CA67C2FC9032EA2D627
:1048B00012C31F9E2CEEF7E8D1640A30C81F829DF8
:1048C000C71CD38447F15682C3A1349B1258BA7EC9
:1048D000BEB1DE3304991B6BF859BC6C944B548603
:1048E000FA9102E75B1D8F206D9CDB8BBA5BD6795A
:1048F000A98C7116414E982D01688CED35EAEE7742
:104900004DAEA18056D323A022BDC667BE8FB19CF9
:104910008343C208D93D45ABF8D4E5F291A1EB82BF
:10492000AE633E0BBA5622D668D0F48388316E71DE
:10493000B7EF6AF127E59D0F68F58781ED300F80AD
:10494000D144B85B51A5E22C20EC9F0849C223C793
:1049500065733BA136FA5AC9C52EA3C4CEA0E83868
:10496000C173B144781320110D3DD13B4694C5A6C7
:10497000D2BF1C7AF46D49D7E9EF9522021D5E7F04
:10498000046747D610DF4E52532994F9281F82300E
:1049900069FCF20E846D435329D95A897DFE0FEFCD
:1049A000DF5136DE4DEF95F271C926CAD950AEC936
:1049B0006C65B9052B4FFA9623F3AC3784C4D454F5
:1049C0001AA419D7E8A3E37966FF9DBA46787AD886
:1049D0002A901C18450AC49056A0BA59425E6EAC83
:1049E000F4D2B03537D7E1C8823F9F2CB2404FABED
:1049F00079D40CF3A8BC0F0FE0898048E88936070A
:104A000091F0C674C844A152AF5496056B98DE1657
:104A1000500FE06E527A0438C2A055AD5799DFF8B6
:104A200009979AC17ADAE23432B94453250AA44785
:104A3000AB69F7D9A8C8B516EC8DB227EFF3FB1612
:104A4000749DFCD3FD1C9C762CAB3B9836B012B801
:104A5000FC0D02EDA1065041E183D5EC28BB453F9A
:104A6000BE2DDF880DD14A8ECD81ACFD8C1CE03B84
:104A70007AF92BE2F10D746D4DBBF17947B04D71B0
:104A800066FCDA08D18AAA2AC27320205A53B4C518
:104A9000A399712F90624DB0B8723A52DFD0471D82
:104AA000343A969042D76AF04E001F7EEC5412FAC8
:104AB000062CD6AD3E1EE003AE29505E4F574BF19B
:104AC0002B03EC1FBC2482CB2F80E09043CEC46329
:104AD0005F404CB3FA9ADE155A93E119870BA1F6A1
:104AE000B42D53E968F33EE2A90A7DBD3D50BFE015
:104AF00065ECFF0E0B98F79025D6C5284269442433
:104B0000DFE9DB157BDAFA6C026A09EF1D20D809B0
:104B1000D301B49A0B92EB1C36C2C4922D159F4060
:104B2000C559DD5375AA648AF2930CA18F077304EB
:104B3000FDBB5441B4AA184DFEBEDFB816683EEC6A
:104B4000CAC82AC3428494299C29A87886498D2FF3
:104B50004FC09471C15D8B1B419055B6CBAC74892D
:104B6000541FD6C6DDAFC179272BA58B029FC6B5D2
:104B700031B06956D3CD2B6D3C0E82B22FDE5DEF86
:104B8000B51E246673C6519FFF1B4A95B70019A135
:104B9000C99F851B431EB686F4688ACE2D0E4A49EE
:104BA000CDB6D6E37B60426A5EC956B88395B63C03
:104BB000F4E0E88F5842AC96679D720A3C8372F02D
:104BC000D000C8012A3526695D1ABD79C7FE035E8B
:104BD000B24ED94C26BAF08A0A3F7BDDEE382EDB86
:104BE0005766E782CDB511BFBA7E313E8532CF69B7
:104BF0009A1357EEA926C915103DF6EABA487B2547
:104C0000ECE22260178091FD3C1A91A789B205D889
:104C1000701243DAE03F31319DD1728FBE270571AA
:104C2000030B51A30F6E52198259B28E94228C5DE0
:104C3000381E7AA705A144ACB0F1C3460D013F145C
:104C40001520A47D6061C801C02958878DA29C7A77
:104C50004414569FAD5D6B62C6A5F31DAA0C0B8074
:104C6000199D79747D0FFDD75578E7DB48BD1F0D81
:104C7000554801F9ABA067B8B441B6BB6EAB57B4A9
:104C80001DD86DEF2928FC35177F4934768F190917
:104C900085E5C8610A12D57936C1BF3B584269AA79
:104CA0002132BE704F30E32C4BCBE12B56324124E6
:104CB00028AD3588E2F5A90B03F4B96868C0DDD5E5
:104CC000169F1343D1A8B955029C163E30A9230361
:104CD0007F9B13AA0CE0C82C88B36D5B767AC38ADD
:104CE000EE0C14B71FFD527FF3E08646DE6ADA59F8
:104CF000D1B6E9CDAD32C835D6E6BB1E3B5EDE8708
:104D0000D88B5024956CE3814893B62B5A814D1D66
:104D1000D8148AC091F5DDBB43DEE03842344494B8
:104D200001FE6D531AB6C464D267841A7B9DDB55AD
:104D3000999D4526D41EF6E2AD94E0B68BAA3F14A9
:104D40004E222A5C13F903224F25ED2970C33FA69A
:104D5000038B9FA5EE1DBFE3088AA685D60ED92733
:104D60002870CB59737F419F9922D7AF30CC71EA1D
:104D70005539B2000B99263062465389537D4C4118
:104D80004BC60100F7E633844AFF0BCB4610B33C19
:104D900019BB309C5BD81C8E499AF72C2BB84C1C45
:104DA000D595646ACA71F26F052EB60B8E5AEA5217
:104DB00093176F984DB0E672A972B65DEE075892E0
:104DC000B3EEF5B1AC4871A7C8C1972C2211FFEF23
:104DD000B0A5981448B4CF25AEF1C157BA9580FD5F
:104DE000D623589F6538A54AA5C8CF8B18BA4F97C8
:104DF00073C7AC496E434AFF1FCF02BA8719EC3222
:104E0000409955FEB9608A77FF4D6F7FE4430DF4FA
:104E1000A129E4F3E8378F93D958809535EAC38BFD
:104E2000DB9C4A7F6450DE123C344921D3CA1ADB32
:104E3000C20E195E34F94A090AC22560E0F542142F
:104E40008AE3A447F88D8F504AD2B6B3ED6DBF0FF9
:104E50003EA4D226D16457E2524175A22B7E32473E
:104E6000F23496F026D2E2357FC9146242961B9C3A
:104E70000215213B221B43258CC1F5B718EC24CC2D
:104E80009F6EC1B8D7CFE96BC19DA60850F49FBCF7
:104E900026D8A0165CF725D7F1716364DD2B1C932F
:104EA000A448C3D4D462C5332CB57A85743AD59856
:104EB0002238903F4B0E6FA849EAC7666B858E95E6
:104EC0008012630830CBE7C3136CEAA67DA062B6FC
:104ED0009BCB42A49ADD4796D81B8AEA9B5FC8A762
:104EE00027E40462D6CC675650CD2BDF23C82BA90C
:104EF0008810CA9F42E9FAA3CBCD2F1540FD28B4F4
:104F0000A4437F989BFFDFCF64EB53CDB168720F52
:104F1000F0E1628A9429643DE96197099C52155336
:104F2000A4773BE049920D8830FB3B57962DF16208
:104F30005B20245F9B9D1F7BDF41AE3A68D6321217
:104F4000D500283A2D91C65DD3D95A99EE0DA7BC4C
:104F50006F34AD7C2DB6B80757BF0107E3D31F5A96
:104F6000C828819504B734C95AC78BC143858CD2F0
:104F70009AF2CB3428B6E41F4721E26D90BE7A0046
:104F8000BAFFD1C58B11B7B7FFE422662BF7C3D2A6
:104F9000332F6CF107EA311244624EE3D4C7389BD9
:104FA0004D8A0643B4C746893A133444937EF3507E
:104FB0005D103A615188F8CFCEBE8029C3D4E23863
:104FC000AB8719A0F1801D6BE9E3B6F4B6EC7EC5A2
:104FD0006EFD86C48CD749C4913675F5461CC566EE
:104FE00030FB990C65525FDDF2CF786ED10419E188
:104FF00040BBBBC54E1EACD33D540FBA0A2824CCCF
:105000001D50C3BA5372601B9EA9D1BD5FDAF28DE9
:105010001D93B58B610017124FC5CE1043A4D2C9A2
:10502000AAAB5081405E8ECD5BA026A54CEE73638B
:1050300062819C7773986B1D38B16A8DA34FD7FA44
:10504000D60712B48A714CBF05E730C0D972C5616A
:10505000516BAEC1075B56113F32488FF300290CEC
:10506000C82CCE45DCBFD8F035DD718C68AA43C6AC
:10507000EC093B38A015F27BB100745729BDCB0574
:10508000BD23F8ADA47F849292BD8C2AE9C9A9956D
:10509000EE82A2EAC4F16BB33A5293DB4B81C7773D
:1050A000126CCE44B296226C84A9A6E388C791E71D
:1050B00057DE68A71BE040CCB8457251ECA84611FA
:1050C000F515177DFB64E3575F36651A4B882A7226
:1050D000C1AB846D18205C312B028C6D24D080DB39
:1050E0006394ED73B014ECF3FB1047E57B2581303E
:1050F0001A00904024D9F8D5B9E552F9D875338E05
:10510000B689B7B69AB7C2ACBE917107D977B60562
:10511000805B5224403FB7899B18BACAC2F31A85F4
:10512000DDB82EF16ECB95633EE3819268F1FB41D1
:105130002F4C787C230F4E76D22D1A82FDF7EACBC6
:1051400076EB2A2148C497B5C5EFE65DBD2421AAB8
:105150001C789B757A9E62CE6AB81F40B012654675
:10516000F9B61C7CC6DAF96AB5C3B63328F0B9AD16
:105170000B7066855C7450D8885CB790A55604B2F5
:10518000899F640608A5E3417E30BFB7E72FA57964
:10519000FE713540ACE0EA846644F36A2369C55F7A
:1051A000BE03A9898CB2A5668C24062BB498F0594D
:1051B000B73E913321C406A8B4E0A0C4B1791E154E
:1051C0006B60F8E3851BEC4CCCCFB487DABFCFCD56
:1051D000539AB3E4D7913EFAFD00D4AC12E0B41276
:1051E00005F0BF54A00CD39B51456651107ECEF5FF
:1051F00010D27017C6393DD922FEE684474039ECFB
:105200001AA181E9FF7A2D46C61893922BECEA7E0B
:1052100032DF9B3F6F9C4CCBB3E532A2264F54113B
:105220000B7A376EFCE4F595A52A51ADA6ABAE35E9
:1052300013675267A4FA7C7D54B63619488B2076E2
:10524000C38286B0B57B814DEA0599454B9E250703
:1052500037FC8EBEFDEC6C11FEB91A46AEDB4C1A63
:105260000ADAEA2324FE8097E6047D9E603632B592
:10527000902EE24CFC6179D61675B2FB613A9E0E17
:10528000B87F3B71B401E3387BF6D8F86FCDB0C777
:105290008765B680F9001DA860130DAF4B8536AB4E
:1052A000656EE6E0FBC0008F4BA9D1068881674898
:1052B000C5EB74FB841E15B8629210A1F333EDF6B2
:1052C000BF2D9200E7CFCBC66427344F2E161FDFC9
:1052D000ABC5EA60113B2646592D7E69B05E9B172F
:1052E000BCDB465BEE6761F51FAD975DEAC6894B97
:1052F0007230F62E498CE484064BA7B9516216052C
:105300008B1D9253D0C4F14463F44163A3C85C93F2
:10531000A433F67F686CCD30F6C254A2C0A7A4BCFB
:105320009691D1CD33367BAE3FB1CA554A80E03E2F
:10533000EF13151D6C979C1E4F625C0D704F84BB64
:105340005084CD12F68F606EB7483FB7A278E575EE
:10535000E116B3AC928650FFF4B37DD0D96D3DF029
:105360002D0E05C6B3CE475FB3A7652357E57CD79F
:105370007CE72B599BD729C933CD1D43118F954A03
:105380000A4F8993731FC213CE53F8EB202CA80E3B
:1053900036A653F241E45455E53B92E5B0034D2463
:1053A000121B19085CE8645D24188A48DE3DA806D3
:1053B000250F0C6B3BA20826FA34AE378DDC63CB8D
:1053C00005D4D905139FB24E42F6CD29590C76A7C4
:1053D000928BC0A0F6E2E96F12F30D273A2CD04869
:1053E000B4BF420A64A3F3855CBE2845D5DFCCEE8A
:1053F000BD06A4011CC2D423EB6AF220928A1415C4
:1054000025857599CA6C43EE983A4437B9A3993308
:10541000261F6A3387CE2CF1EB1F1EFAB0D2F3D1D0
:10542000AA131F506A332451C3B669E17E9C6947B1
:10543000D0BFFA7220E08D575984AEAA4D483DC5C1
:1054400047728DA68449C9F2FB196FD1644A724E26
:10545000B6D729F1D780B1C985C8F7E58579037A30
:1054600078A49A0C0FC2C286F607770771BCF20EB9
:10547000115FF4761E4CEDC6C0C321BC52E36D81B2
:1054800015F459C0AF653FF314A2FAD008AA58C862
:10549000D5E8D425858D5B2BB6D44C4BA1063413AF
:1054A0009AF6F17C62325EAC1F00627B521DBD1623
:1054B0006A58E76A0E48FC88992E09DB19F4520EE7
:1054C0006EE73612B8DC66A3892805842BDFD999EC
:1054D0001635E0481FCA0451F969E3342883922B3A
:1054E000AE540D6AE7AA5D8EF243E1E642775DB9FC
:1054F0005470C5E31309EEA4E2E4194FF9317A06BA
:1055000095D9D5D7D26EB26BD85256DBE91E0F8132
:105510000B29DFB8BDAE18A565698802910D95C04D
:10552000C8DA5068A186E7E6BD590BC1B213BAC408
:10553000D59743CF51C248E7C1307268E5AFDACAA8
:10554000BC95120ECDA6DF8542F9FA64A356F2513E
:10555000AEC42DFAC9C56F069269A671137E000EFE
:105560007F40041D01ACF62EB7BD8C58C8E3446AD9
:105570003E20B92181DF00F6260B7B64FF6E71C4EB
:10558000F8EBE56252D55002CDFE430C39163EAF22
:10559000253C32F3C4DF8C9F400EF6F530922F4845
:1055A0004BC85FDCFEE11869CFB754839CF4BD0F94
:1055B000CDCC3EC33C7EFF195F452243DE5BD13A32
:1055C000CFFAC070B662B04323C8230C8B09034BDB
:1055D00050E62764546B0BCDC9467DB9BFD58A749C
:1055E000E619B3A1344D586B1CFBA0735AF28E55CB
:1055F00041D6F3F7336DE664EFF2A670E5F6834E1D
:105600003EAF2671556217038EBC4859CB9872D6AF
:10561000B82778E9E1934179324FB241A6E8852570
:10562000775235ABCC1CFFDEBEEF6976248D9956E0
:1056300080D0B7BD7E9A6CAB6DAD3F06B0D65CA591
:105640003722E17863C70A9C279A2AF129CA54A510
:10565000B65BC1D631C7A7DCE68A3D1EDCF92DE872
:1056600093C43F01AB20F3B8C51A96E46F7A81A3C7
:10567000599A4F551486746F7B0592D889ECBF2ECA
:105680006C415E658B52F9956808101631C26C6BDF
:10569000089AC542A9D8D30C4FCF86A68E1A2FD907
:1056A0005B68772D1B1C1706A0BAEC0C755E3EB923
:1056B0009826D0EE267D84936E5115BBCC53074DB2
:1056C000D837BBC94A3F50EC83BEA2EFEBC797F176
:1056D00091CD0D674A41B2DDE3E4BFC9065C3A4CA7
:1056E000B29F333EA2746E59D6E36B67DA95A7A6D4
:1056F000BA2329FF45A0039784DDE5667F86E5266A
:1057000084553D4C93584E1C5EB49066D64B034D69
:105710003D180FE3333B07119C9CB9C58F07D95047
:10572000FE44E385585A1261D50CA0900F9CC039F5
:10573000D99829667702F3484E2BB0F79F898D5789
:10574000DB406792677EF5E206AD0D269B7602FF91
:10575000DB80EBF7DE73D9FC509A362DAA1BC24BC7
:105760007E49B5CE352ED15BA24760CAF4CDADD708
:1057700028B11B1E9D967868676B41CD47C737EBF4
:10578000EAC2A751C133CAACAE905497120F088336
:10579000EC5F04F9FFA4AEE7D04C67C9ED0413DA5F
:1057A0000F75DF32255B16F4E66F6F0D42E155573A
:1057B00063BDE0E8C23EEB4613BF8174CB00BFAAD5
:1057C0007C79889D2FD55E90490F128F34A0A5EF6C
:1057D000F70F662F232B17D089991E65DAA129E5CB
:1057E000B0C591C958B8288D5F4F9FB32B5B11721C
:1057F0001A927DBC9A8F865061B71396B7F8B6A7F8
:10580000E62CDF6F0FDC963FE7D8D0D48C64A42D54
:1058100087AB4B48246D4B203E4067A1A492D667CE
:1058200099F7CCFF7BA2633EFB3DD4C2BFB2C4FC60
:1058300012E60E0BAD6D8379E1BF30CE74F49B554B
:1058400002683A9498A5B1E5480C4CE69889618CB9
:105850007C6B8FBD84CAB92C74521DBC7294C9066E
:10586000A27FBF56772F636C3428C3A0209CE158D9
:105870005EA3520965DDD037AF0E204688F572B3BE
:1058800043464318C90A144C0722895B07190BD7F2
:1058900071C55ECE42C0A1C5AE88A7690F1DE43FA9
:1058A000B60F5DDA58C88E538F0501435375309695
:1058B0000348D4C296A47182A57E6A4163AB3DE9D8
:1058C0003D49A5F7BB307FA9360A3F3CBF5D723822
:1058D000571066C74921A8119EDA35DA5E4DF0E40B
:1058E000C8170509D038DAD2C92B8C8B6534C34769
:1058F0000B31E9524475A01CA19359E1FBA44BE87C
:105900001A5B74A75868681E3694FE1D951DAC6915
:1059100017EDCE2C639D9F5277E8683DDFF9D624C2
:10592000E0A3710ABF1BEEA3C9CA1CB077828683AD
:10593000E6EFC90DD51E847CBB22306F002B3F3CA7
:10594000BDD93DF2ABA2AAFBFF2B639981EFDAF43C
:1059500062E456EF2FC84FC21EF44E9CEB7FA39E0D
:105960008BDFF29E4594D84445CE0EA9BAEBFBCB13
:10597000483C0D1BD44F0CF5897BD3B7530D1080D9
:1059800088C50DA1FD3BAECD0C11AA61BAA60732A8
:10599000F98254AF7187C93BD2FD14CAC120F037D8
:1059A000BE8E21F5DD5ACE0C8D400EC2A5AB3AE37A
:1059B00073A1BED0B9600E00FCD2CEFF27E40CEB81
:1059C0002072A32B8412549FB44722317906952765
:1059D000C230562062207E5D7F20F80B8BCEE5A87A
:1059E0003323A133080F5E614C1F1C723EDD87F527
:1059F0003DA73DF68EEC8900F445AB64194913E5EB
:105A0000617AFD5564621FB3D2F4D343030B1FA226
:105A10009803CDE491EF19479AA13EC263FA480278
:105A20000B3711C4DF3191DB888A23991845FDE8D3
:105A30002608CC167C2F537160B5BBC3235C4FD8AE
:105A4000ACD138CCFA5BC36672F25C07CB7F2F54C3
:105A5000A3569C5A2D3286DCE39F632975CDB82B63
:105A60003A4BED470D30EECA4565A389D34CA6E00D
:105A700086671FCCBFF4AA7A4A5CE95BF799F0A469
:105A80003A30CC7F92E8477368D214C88EFC0896EF
:105A9000F983A30EAEEB6C45A172FCB14693D2AC78
:105AA00074FF4FA280264D9D1FAC64EDE0E1EC4DEC
:105AB00053536174F5E2F64EC386DE20EB962CD488
:105AC000FF67548EAD6516D33505EF02867F65C03E
:105AD00085AE5DF3315EB7920900DFF9482DB189DB
